{
  "contractName": "ChainlinkOracle",
  "abi": [
    {
      "inputs": [
        {
          "internalType": "address",
          "name": "_oracleAddress",
          "type": "address"
        },
        {
          "internalType": "bytes32",
          "name": "_jobId",
          "type": "bytes32"
        },
        {
          "internalType": "address",
          "name": "linkAddress",
          "type": "address"
        },
        {
          "internalType": "uint256",
          "name": "_fee",
          "type": "uint256"
        },
        {
          "internalType": "int256",
          "name": "_decimals",
          "type": "int256"
        },
        {
          "internalType": "string",
          "name": "_apiBaseURL",
          "type": "string"
        },
        {
          "internalType": "string",
          "name": "_apiPath",
          "type": "string"
        },
        {
          "internalType": "bool",
          "name": "_isSignedResult",
          "type": "bool"
        }
      ],
      "stateMutability": "nonpayable",
      "type": "constructor"
    },
    {
      "anonymous": false,
      "inputs": [
        {
          "indexed": true,
          "internalType": "bytes32",
          "name": "id",
          "type": "bytes32"
        }
      ],
      "name": "ChainlinkCancelled",
      "type": "event"
    },
    {
      "anonymous": false,
      "inputs": [
        {
          "indexed": true,
          "internalType": "bytes32",
          "name": "id",
          "type": "bytes32"
        }
      ],
      "name": "ChainlinkFulfilled",
      "type": "event"
    },
    {
      "anonymous": false,
      "inputs": [
        {
          "indexed": true,
          "internalType": "bytes32",
          "name": "id",
          "type": "bytes32"
        }
      ],
      "name": "ChainlinkRequested",
      "type": "event"
    },
    {
      "anonymous": false,
      "inputs": [
        {
          "indexed": false,
          "internalType": "address",
          "name": "withdrawer",
          "type": "address"
        },
        {
          "indexed": false,
          "internalType": "uint256",
          "name": "amount",
          "type": "uint256"
        }
      ],
      "name": "LinkWithdrawn",
      "type": "event"
    },
    {
      "anonymous": false,
      "inputs": [
        {
          "indexed": true,
          "internalType": "address",
          "name": "previousOwner",
          "type": "address"
        },
        {
          "indexed": true,
          "internalType": "address",
          "name": "newOwner",
          "type": "address"
        }
      ],
      "name": "OwnershipTransferred",
      "type": "event"
    },
    {
      "anonymous": false,
      "inputs": [
        {
          "indexed": false,
          "internalType": "address",
          "name": "sender",
          "type": "address"
        },
        {
          "indexed": false,
          "internalType": "uint256",
          "name": "amount",
          "type": "uint256"
        }
      ],
      "name": "Received",
      "type": "event"
    },
    {
      "stateMutability": "payable",
      "type": "fallback"
    },
    {
      "inputs": [],
      "name": "decimals",
      "outputs": [
        {
          "internalType": "int256",
          "name": "",
          "type": "int256"
        }
      ],
      "stateMutability": "view",
      "type": "function"
    },
    {
      "inputs": [],
      "name": "fee",
      "outputs": [
        {
          "internalType": "uint256",
          "name": "",
          "type": "uint256"
        }
      ],
      "stateMutability": "view",
      "type": "function"
    },
    {
      "inputs": [],
      "name": "isSignedResult",
      "outputs": [
        {
          "internalType": "bool",
          "name": "",
          "type": "bool"
        }
      ],
      "stateMutability": "view",
      "type": "function"
    },
    {
      "inputs": [],
      "name": "jobId",
      "outputs": [
        {
          "internalType": "bytes32",
          "name": "",
          "type": "bytes32"
        }
      ],
      "stateMutability": "view",
      "type": "function"
    },
    {
      "inputs": [],
      "name": "oracleAddress",
      "outputs": [
        {
          "internalType": "address",
          "name": "",
          "type": "address"
        }
      ],
      "stateMutability": "view",
      "type": "function"
    },
    {
      "inputs": [],
      "name": "owner",
      "outputs": [
        {
          "internalType": "address",
          "name": "",
          "type": "address"
        }
      ],
      "stateMutability": "view",
      "type": "function"
    },
    {
      "inputs": [],
      "name": "renounceOwnership",
      "outputs": [],
      "stateMutability": "nonpayable",
      "type": "function"
    },
    {
      "inputs": [],
      "name": "signedResult",
      "outputs": [
        {
          "internalType": "int256",
          "name": "",
          "type": "int256"
        }
      ],
      "stateMutability": "view",
      "type": "function"
    },
    {
      "inputs": [
        {
          "internalType": "address",
          "name": "newOwner",
          "type": "address"
        }
      ],
      "name": "transferOwnership",
      "outputs": [],
      "stateMutability": "nonpayable",
      "type": "function"
    },
    {
      "inputs": [],
      "name": "unsignedResult",
      "outputs": [
        {
          "internalType": "uint256",
          "name": "",
          "type": "uint256"
        }
      ],
      "stateMutability": "view",
      "type": "function"
    },
    {
      "stateMutability": "payable",
      "type": "receive"
    },
    {
      "inputs": [
        {
          "internalType": "string",
          "name": "apiURLParameters",
          "type": "string"
        }
      ],
      "name": "requestIndexPrice",
      "outputs": [
        {
          "internalType": "bytes32",
          "name": "requestId",
          "type": "bytes32"
        }
      ],
      "stateMutability": "nonpayable",
      "type": "function"
    },
    {
      "inputs": [
        {
          "internalType": "bytes32",
          "name": "_requestId",
          "type": "bytes32"
        },
        {
          "internalType": "int256",
          "name": "_result",
          "type": "int256"
        }
      ],
      "name": "fulfillSigned",
      "outputs": [],
      "stateMutability": "nonpayable",
      "type": "function"
    },
    {
      "inputs": [
        {
          "internalType": "bytes32",
          "name": "_requestId",
          "type": "bytes32"
        },
        {
          "internalType": "uint256",
          "name": "_result",
          "type": "uint256"
        }
      ],
      "name": "fulfillUnsigned",
      "outputs": [],
      "stateMutability": "nonpayable",
      "type": "function"
    },
    {
      "inputs": [],
      "name": "withdrawLink",
      "outputs": [],
      "stateMutability": "nonpayable",
      "type": "function"
    }
  ],
  "bytecode": "0x608060405260016004553480156200001657600080fd5b5060405162001a6838038062001a68833981016040819052620000399162000392565b6200004433620000ff565b6001600160a01b03861662000063576200005d62000151565b6200007f565b600280546001600160a01b0319166001600160a01b0388161790555b600980546001600160a01b0319166001600160a01b038a16179055600a879055600e859055600d8490558251620000be90600c90602086019062000202565b508151620000d490600b90602085019062000202565b5060068054911515600160a01b0260ff60a01b1990921691909117905550620004bd95505050505050565b600680546001600160a01b038381166001600160a01b0319831681179093556040519116919082907f8be0079c531659141344cd1fd0a4f28419497f9722a3daafe3b4186f6b6457e090600090a35050565b6200020073c89bd4e1632d3a43cb03aaad5262cbe4038bc5716001600160a01b03166338cc48316040518163ffffffff1660e01b815260040160206040518083038186803b158015620001a357600080fd5b505afa158015620001b8573d6000803e3d6000fd5b505050506040513d601f19601f82011682018060405250810190620001de91906200045b565b600280546001600160a01b0319166001600160a01b0392909216919091179055565b565b828054620002109062000480565b90600052602060002090601f0160209004810192826200023457600085556200027f565b82601f106200024f57805160ff19168380011785556200027f565b828001600101855582156200027f579182015b828111156200027f57825182559160200191906001019062000262565b506200028d92915062000291565b5090565b5b808211156200028d576000815560010162000292565b80516001600160a01b0381168114620002c057600080fd5b919050565b634e487b7160e01b600052604160045260246000fd5b600082601f830112620002ed57600080fd5b81516001600160401b03808211156200030a576200030a620002c5565b604051601f8301601f19908116603f01168101908282118183101715620003355762000335620002c5565b816040528381526020925086838588010111156200035257600080fd5b600091505b8382101562000376578582018301518183018401529082019062000357565b83821115620003885760008385830101525b9695505050505050565b600080600080600080600080610100898b031215620003b057600080fd5b620003bb89620002a8565b975060208901519650620003d260408a01620002a8565b60608a015160808b015160a08c015192985090965094506001600160401b0380821115620003ff57600080fd5b6200040d8c838d01620002db565b945060c08b01519150808211156200042457600080fd5b50620004338b828c01620002db565b92505060e089015180151581146200044a57600080fd5b809150509295985092959890939650565b6000602082840312156200046e57600080fd5b6200047982620002a8565b9392505050565b600181811c908216806200049557607f821691505b60208210811415620004b757634e487b7160e01b600052602260045260246000fd5b50919050565b61159b80620004cd6000396000f3fe6080604052600436106100d55760003560e01c8063918c00b911610079578063c0a5977f11610056578063c0a5977f14610262578063c2939d9714610278578063ddca3f431461028e578063f2fde38b146102a457005b8063918c00b9146101fb578063a89ae4ba1461022c578063c043a2541461024c57005b8063715018a6116100b2578063715018a61461017f5780637e0b66d0146101945780638da5cb5b146101b45780638dc654a2146101e657005b8063313ce5671461011657806351744bca1461013f57806369723be71461015f57005b3661011457604080513381523460208201527f88a5966d370b9919b20f3e2c13ff65706f196a4e32cc2c12bf57088f88525874910160405180910390a1005b005b34801561012257600080fd5b5061012c600d5481565b6040519081526020015b60405180910390f35b34801561014b57600080fd5b5061011461015a36600461109b565b6102c4565b34801561016b57600080fd5b5061012c61017a3660046110d3565b61034f565b34801561018b57600080fd5b50610114610561565b3480156101a057600080fd5b506101146101af36600461109b565b610597565b3480156101c057600080fd5b506006546001600160a01b03165b6040516001600160a01b039091168152602001610136565b3480156101f257600080fd5b50610114610619565b34801561020757600080fd5b5060065461021c90600160a01b900460ff1681565b6040519015158152602001610136565b34801561023857600080fd5b506009546101ce906001600160a01b031681565b34801561025857600080fd5b5061012c60085481565b34801561026e57600080fd5b5061012c60075481565b34801561028457600080fd5b5061012c600a5481565b34801561029a57600080fd5b5061012c600e5481565b3480156102b057600080fd5b506101146102bf366004611184565b6107d0565b60008281526005602052604090205482906001600160a01b031633146103055760405162461bcd60e51b81526004016102fc906111ad565b60405180910390fd5b60008181526005602052604080822080546001600160a01b03191690555182917f7cc135e0cebb02c3480ae5d74d377283180a2601f8f644edf7987b009316c63a91a25060085550565b6000610359611060565b600654600160a01b900460ff161561038757600a5461038090306328ba25e560e11b61086b565b905061039f565b600a5461039c90306307e0b66d60e41b61086b565b90505b61045a6040518060400160405280600381526020016219d95d60ea1b815250610452600c80546103ce906111f5565b80601f01602080910402602001604051908101604052809291908181526020018280546103fa906111f5565b80156104475780601f1061041c57610100808354040283529160200191610447565b820191906000526020600020905b81548152906001019060200180831161042a57829003601f168201915b505050505086610890565b8391906108bd565b610515604051806040016040528060048152602001630e0c2e8d60e31b815250600b8054610487906111f5565b80601f01602080910402602001604051908101604052809291908181526020018280546104b3906111f5565b80156105005780601f106104d557610100808354040283529160200191610500565b820191906000526020600020905b8154815290600101906020018083116104e357829003601f168201915b5050505050836108bd9092919063ffffffff16565b60408051808201909152600581526474696d657360d81b6020820152600d5461053f9183916108e0565b600954600e5461055a916001600160a01b03169083906108fe565b9392505050565b6006546001600160a01b0316331461058b5760405162461bcd60e51b81526004016102fc9061122a565b610595600061091d565b565b60008281526005602052604090205482906001600160a01b031633146105cf5760405162461bcd60e51b81526004016102fc906111ad565b60008181526005602052604080822080546001600160a01b03191690555182917f7cc135e0cebb02c3480ae5d74d377283180a2601f8f644edf7987b009316c63a91a25060075550565b6006546001600160a01b031633146106435760405162461bcd60e51b81526004016102fc9061122a565b60006106576002546001600160a01b031690565b6040516370a0823160e01b81523060048201529091506000906001600160a01b038316906370a082319060240160206040518083038186803b15801561069c57600080fd5b505afa1580156106b0573d6000803e3d6000fd5b505050506040513d601f19601f820116820180604052508101906106d4919061125f565b60405163a9059cbb60e01b8152336004820152602481018290529091506001600160a01b0383169063a9059cbb90604401602060405180830381600087803b15801561071f57600080fd5b505af1158015610733573d6000803e3d6000fd5b505050506040513d601f19601f820116820180604052508101906107579190611278565b6107935760405162461bcd60e51b815260206004820152600d60248201526c2bb4ba34323930bb9032b9391760991b60448201526064016102fc565b60408051338152602081018390527fcb1436249a1dd8cf93362c28d79a4e20dc54398b6c49e30316e8396e72a584b0910160405180910390a15050565b6006546001600160a01b031633146107fa5760405162461bcd60e51b81526004016102fc9061122a565b6001600160a01b03811661085f5760405162461bcd60e51b815260206004820152602660248201527f4f776e61626c653a206e6577206f776e657220697320746865207a65726f206160448201526564647265737360d01b60648201526084016102fc565b6108688161091d565b50565b610873611060565b61087b611060565b6108878186868661096f565b95945050505050565b606082826040516020016108a59291906112c6565b60405160208183030381529060405290505b92915050565b60808301516108cc90836109ac565b60808301516108db90826109ac565b505050565b60808301516108ef90836109ac565b60808301516108db90826109c3565b600061091584848460016320214ca360e11b610a27565b949350505050565b600680546001600160a01b038381166001600160a01b0319831681179093556040519116919082907f8be0079c531659141344cd1fd0a4f28419497f9722a3daafe3b4186f6b6457e090600090a35050565b610977611060565b6109878560800151610100610c33565b50509183526001600160a01b031660208301526001600160e01b031916604082015290565b6109b98260038351610c98565b6108db8282610d6c565b67ffffffffffffffff198112156109e2576109de8282610d93565b5050565b67ffffffffffffffff8113156109fc576109de8282610dd5565b60008112610a10576109de82600083610c98565b6109de826001610a228460001961130b565b610c98565b6004546040516bffffffffffffffffffffffff193060601b166020820152603481019190915260009060540160408051808303601f19018152918152815160209283012060045460608901526000818152600590935281832080546001600160a01b0319166001600160a01b038b16179055905190925082917fb5e6e01e79f91267dc17b4e6314d5d4d03593d2ceee0fbb452b750bd70ea5af991a2600082600080886000015189602001518a604001518b606001518a8d6080015160000151604051602401610afe989796959493929190611376565b60408051601f198184030181529181526020820180516001600160e01b03166001600160e01b0319909416939093179092526002549151630200057560e51b81529092506001600160a01b0390911690634000aea090610b66908a90899086906004016113de565b602060405180830381600087803b158015610b8057600080fd5b505af1158015610b94573d6000803e3d6000fd5b505050506040513d601f19601f82011682018060405250810190610bb89190611278565b610c105760405162461bcd60e51b815260206004820152602360248201527f756e61626c6520746f207472616e73666572416e6443616c6c20746f206f7261604482015262636c6560e81b60648201526084016102fc565b600160046000828254610c239190611405565b9091555091979650505050505050565b604080518082019091526060815260006020820152610c5360208361141d565b15610c7b57610c6360208361141d565b610c6e90602061143f565b610c789083611405565b91505b506020828101829052604080518085526000815290920101905290565b60178111610cb957610cb38360e0600585901b168317610df8565b50505050565b60ff8111610ce357610cd6836018611fe0600586901b1617610df8565b50610cb383826001610e1d565b61ffff8111610d0e57610d01836019611fe0600586901b1617610df8565b50610cb383826002610e1d565b63ffffffff8111610d3b57610d2e83601a611fe0600586901b1617610df8565b50610cb383826004610e1d565b67ffffffffffffffff81116108db57610d5f83601b611fe0600586901b1617610df8565b50610cb383826008610e1d565b60408051808201909152606081526000602082015261055a83846000015151848551610e43565b610d9e8260c3610df8565b506109de82610daf8360001961130b565b604051602001610dc191815260200190565b604051602081830303815290604052610f48565b610de08260c2610df8565b506109de8282604051602001610dc191815260200190565b60408051808201909152606081526000602082015261055a8384600001515184610f55565b604080518082019091526060815260006020820152610915848560000151518585610fb1565b6040805180820190915260608152600060208201528251821115610e6657600080fd5b6020850151610e758386611405565b1115610ea857610ea885610e9887602001518786610e939190611405565b611032565b610ea3906002611456565b611049565b600080865180518760208301019350808887011115610ec75787860182525b505050602084015b60208410610f075780518252610ee6602083611405565b9150610ef3602082611405565b9050610f0060208561143f565b9350610ecf565b60006001610f1686602061143f565b610f2290610100611559565b610f2c919061143f565b9151835183169219169190911790915250849050949350505050565b6109b98260028351610c98565b60408051808201909152606081526000602082015283602001518310610f8a57610f8a8485602001516002610ea39190611456565b835180516020858301018481535080851415610fa7576001810182525b5093949350505050565b6040805180820190915260608152600060208201526020850151610fd58584611405565b1115610fe957610fe985610e988685611405565b60006001610ff984610100611559565b611003919061143f565b90508551838682010185831982511617815250805184870111156110275783860181525b509495945050505050565b6000818311156110435750816108b7565b50919050565b81516110558383610c33565b50610cb38382610d6c565b6040805160a0810182526000808252602080830182905282840182905260608084018390528451808601909552845283015290608082015290565b600080604083850312156110ae57600080fd5b50508035926020909101359150565b634e487b7160e01b600052604160045260246000fd5b6000602082840312156110e557600080fd5b813567ffffffffffffffff808211156110fd57600080fd5b818401915084601f83011261111157600080fd5b813581811115611123576111236110bd565b604051601f8201601f19908116603f0116810190838211818310171561114b5761114b6110bd565b8160405282815287602084870101111561116457600080fd5b826020860160208301376000928101602001929092525095945050505050565b60006020828403121561119657600080fd5b81356001600160a01b038116811461055a57600080fd5b60208082526028908201527f536f75726365206d75737420626520746865206f7261636c65206f6620746865604082015267081c995c5d595cdd60c21b606082015260800190565b600181811c9082168061120957607f821691505b6020821081141561104357634e487b7160e01b600052602260045260246000fd5b6020808252818101527f4f776e61626c653a2063616c6c6572206973206e6f7420746865206f776e6572604082015260600190565b60006020828403121561127157600080fd5b5051919050565b60006020828403121561128a57600080fd5b8151801515811461055a57600080fd5b60005b838110156112b557818101518382015260200161129d565b83811115610cb35750506000910152565b600083516112d881846020880161129a565b8351908301906112ec81836020880161129a565b01949350505050565b634e487b7160e01b600052601160045260246000fd5b60008083128015600160ff1b850184121615611329576113296112f5565b6001600160ff1b0384018313811615611344576113446112f5565b50500390565b6000815180845261136281602086016020860161129a565b601f01601f19169290920160200192915050565b6001600160a01b0389811682526020820189905260408201889052861660608201526001600160e01b03198516608082015260a0810184905260c0810183905261010060e082018190526000906113cf8382018561134a565b9b9a5050505050505050505050565b60018060a01b0384168152826020820152606060408201526000610887606083018461134a565b60008219821115611418576114186112f5565b500190565b60008261143a57634e487b7160e01b600052601260045260246000fd5b500690565b600082821015611451576114516112f5565b500390565b6000816000190483118215151615611470576114706112f5565b500290565b600181815b808511156114b0578160001904821115611496576114966112f5565b808516156114a357918102915b93841c939080029061147a565b509250929050565b6000826114c7575060016108b7565b816114d4575060006108b7565b81600181146114ea57600281146114f457611510565b60019150506108b7565b60ff841115611505576115056112f5565b50506001821b6108b7565b5060208310610133831016604e8410600b8410161715611533575081810a6108b7565b61153d8383611475565b8060001904821115611551576115516112f5565b029392505050565b600061055a83836114b856fea264697066735822122040d1d961f17d12bbc3bec5a1b4df2885016250458f1e14f8df72e04694a77c3064736f6c63430008090033",
  "immutableReferences": {},
  "source": "// SPDX-License-Identifier: UNLICENSED\r\npragma solidity ^0.8.6;\r\n\r\nimport \"@chainlink/contracts/src/v0.8/ChainlinkClient.sol\";\r\nimport \"@openzeppelin/contracts/access/Ownable.sol\";\r\nimport \"./interfaces/IChainlinkOracle.sol\";\r\n\r\n/// @title Chainlink Oracle\r\n/// @author Tamas An\r\n/// @notice This contract is used to make HTTP GET request to external API\r\n/// @dev Based on official chainlink documentation\r\ncontract ChainlinkOracle is ChainlinkClient, Ownable,  IChainlinkOracle{\r\n    using Chainlink for Chainlink.Request;\r\n    bool public isSignedResult;\r\n    uint256 public unsignedResult;\r\n    int256 public signedResult;\r\n    address public oracleAddress;\r\n    bytes32 public jobId;\r\n    string internal apiPath;\r\n    string private apiBaseURL;\r\n    int256 public decimals;\r\n    uint256 public fee;\r\n\r\n    constructor(\r\n        address _oracleAddress, \r\n        bytes32 _jobId, \r\n        address linkAddress, \r\n        uint256 _fee, \r\n        int256 _decimals, \r\n        string memory _apiBaseURL,\r\n        string memory _apiPath, \r\n        bool _isSignedResult) \r\n    {\r\n        if (linkAddress == address(0)) {\r\n            setPublicChainlinkToken();\r\n        } else {\r\n            setChainlinkToken(linkAddress);\r\n        }\r\n        oracleAddress = _oracleAddress;\r\n        jobId = _jobId;\r\n        fee = _fee;\r\n        decimals = _decimals;\r\n        apiBaseURL = _apiBaseURL;\r\n        apiPath = _apiPath;\r\n        isSignedResult = _isSignedResult;\r\n    }\r\n\r\n    /// @notice Receives ETH.\r\n    receive() external payable {\r\n        emit Received(msg.sender, msg.value);\r\n    }\r\n\r\n    /// @dev Lets contract hadle function calls dynamically. For future expendability.\r\n    fallback () external payable {\r\n\r\n    }\r\n\r\n    /// @notice Create Chainlink request with uint256 job.\r\n    /// @dev For underlying price oracle apiURLParameters is empty string.\r\n    /// @param apiURLParameters Parameters added to API URL.\r\n    /// @return requestId The ID of the request\r\n    function requestIndexPrice(string memory apiURLParameters)\r\n        external\r\n        override\r\n        returns (bytes32 requestId)\r\n    {\r\n        Chainlink.Request memory request;\r\n        if (isSignedResult) {\r\n            request = buildChainlinkRequest(jobId, address(this), this.fulfillSigned.selector);\r\n        } else {\r\n            request = buildChainlinkRequest(jobId, address(this), this.fulfillUnsigned.selector);\r\n        }\r\n        request.add(\"get\", concetenateTwoStrings(apiBaseURL, apiURLParameters));\r\n        request.add(\"path\", apiPath);\r\n        request.addInt(\"times\", decimals);\r\n        //ChainlinkRequested(bytes32 indexd id) is emitted\r\n        requestId = sendChainlinkRequestTo(oracleAddress, request, fee);\r\n    }\r\n\r\n    /// @notice Receive response in the form of int256.\r\n    /// @dev It may take up to 3-4 minutes for the job to be fulffilled.\r\n    /// @param _requestId ID of the request.\r\n    /// @param _result Result of GET request.\r\n    function fulfillSigned(bytes32 _requestId, int256 _result) \r\n        external \r\n        override \r\n        recordChainlinkFulfillment(_requestId)\r\n    {\r\n        //emits ChainlinkFullfilled(bytes32 indexd id) event\r\n        signedResult = _result;\r\n    }\r\n\r\n    /// @notice Receive response in the form of uint256.\r\n    /// @dev It may take up to 3-4 minutes for the job to be fulffilled.\r\n    /// @param _requestId ID of the request.\r\n    /// @param _result Result of GET request.\r\n    function fulfillUnsigned(bytes32 _requestId, uint256 _result) \r\n        external \r\n        override\r\n        recordChainlinkFulfillment(_requestId)\r\n    {\r\n        //emits ChainlinkFullfilled(bytes32 indexd id) event\r\n        unsignedResult = _result;\r\n    }\r\n\r\n\r\n    /// @notice Allows the owner to withdraw the LINK in this contract.\r\n    /// @dev Withdraw LINK after the forward contract is settled.\r\n    function withdrawLink() external override onlyOwner {\r\n        LinkTokenInterface link = LinkTokenInterface(chainlinkTokenAddress());\r\n        uint256 linkBalance = link.balanceOf(address(this));\r\n        require(link.transfer(msg.sender, linkBalance), \"Withdraw err.\");\r\n        emit LinkWithdrawn(msg.sender, linkBalance);\r\n    }\r\n\r\n    /// @notice Concetenates two strings into single string\r\n    /// @param a First string\r\n    /// @param b Second string\r\n    /// @return Resulting string\r\n    function concetenateTwoStrings(string memory a, string memory b) \r\n        internal\r\n        pure \r\n        returns(string memory) \r\n    {\r\n        return string(abi.encodePacked(a, b));\r\n    }\r\n\r\n    /// @notice Sets the API path.\r\n    /// @param newAPIPath New API path to be set.\r\n    function setAPIPath(string memory newAPIPath) internal {\r\n        apiPath = newAPIPath;\r\n    }\r\n\r\n    /*\r\n    function getUnsignedResult() external view returns (uint256) {\r\n        return unsignedResult;\r\n    }\r\n\r\n    function getSignedResult() external view returns (int256) {\r\n        return signedResult;\r\n    }*/\r\n}\r\n\r\n",
  "sourcePath": "C:\\Users\\Tomi\\OneDrive - The University of Chicago\\Documents\\Securrency\\ForwardExchange\\contracts\\oracles\\ChainlinkOracle.sol",
  "compiler": {
    "name": "solc",
    "version": "0.8.9+commit.e5eed63a.Emscripten.clang"
  },
  "schemaVersion": "3.4.3",
  "updatedAt": "2021-09-30T22:29:53.776Z",
  "devdoc": {
    "author": "Tamas An",
    "details": "Based on official chainlink documentation",
    "kind": "dev",
    "methods": {
      "fulfillSigned(bytes32,int256)": {
        "details": "It may take up to 3-4 minutes for the job to be fulffilled.",
        "params": {
          "_requestId": "ID of the request.",
          "_result": "Result of GET request."
        }
      },
      "fulfillUnsigned(bytes32,uint256)": {
        "details": "It may take up to 3-4 minutes for the job to be fulffilled.",
        "params": {
          "_requestId": "ID of the request.",
          "_result": "Result of GET request."
        }
      },
      "owner()": {
        "details": "Returns the address of the current owner."
      },
      "renounceOwnership()": {
        "details": "Leaves the contract without owner. It will not be possible to call `onlyOwner` functions anymore. Can only be called by the current owner. NOTE: Renouncing ownership will leave the contract without an owner, thereby removing any functionality that is only available to the owner."
      },
      "requestIndexPrice(string)": {
        "details": "For underlying price oracle apiURLParameters is empty string.",
        "params": {
          "apiURLParameters": "Parameters added to API URL."
        },
        "returns": {
          "requestId": "The ID of the request"
        }
      },
      "transferOwnership(address)": {
        "details": "Transfers ownership of the contract to a new account (`newOwner`). Can only be called by the current owner."
      },
      "withdrawLink()": {
        "details": "Withdraw LINK after the forward contract is settled."
      }
    },
    "title": "Chainlink Oracle",
    "version": 1
  },
  "userdoc": {
    "kind": "user",
    "methods": {
      "fulfillSigned(bytes32,int256)": {
        "notice": "Receive response in the form of int256."
      },
      "fulfillUnsigned(bytes32,uint256)": {
        "notice": "Receive response in the form of uint256."
      },
      "requestIndexPrice(string)": {
        "notice": "Create Chainlink request with uint256 job."
      },
      "withdrawLink()": {
        "notice": "Allows the owner to withdraw the LINK in this contract."
      }
    },
    "notice": "This contract is used to make HTTP GET request to external API",
    "version": 1
  }
}