{
  "contractName": "CollateralWalletFactory",
  "abi": [
    {
      "anonymous": false,
      "inputs": [
        {
          "indexed": false,
          "internalType": "string",
          "name": "name",
          "type": "string"
        },
        {
          "indexed": false,
          "internalType": "address",
          "name": "newWalletAddress",
          "type": "address"
        }
      ],
      "name": "CreatedWallet",
      "type": "event"
    },
    {
      "inputs": [
        {
          "internalType": "uint256",
          "name": "",
          "type": "uint256"
        }
      ],
      "name": "collateralWallets",
      "outputs": [
        {
          "internalType": "address",
          "name": "",
          "type": "address"
        }
      ],
      "stateMutability": "view",
      "type": "function",
      "constant": true
    },
    {
      "inputs": [],
      "name": "testAddress",
      "outputs": [
        {
          "internalType": "address",
          "name": "",
          "type": "address"
        }
      ],
      "stateMutability": "view",
      "type": "function",
      "constant": true
    },
    {
      "inputs": [
        {
          "internalType": "string",
          "name": "_walletName",
          "type": "string"
        }
      ],
      "name": "createCollateralWallet",
      "outputs": [],
      "stateMutability": "nonpayable",
      "type": "function"
    }
  ],
  "bytecode": "0x608060405234801561001057600080fd5b5061163c806100206000396000f3fe608060405234801561001057600080fd5b50600436106100415760003560e01c8063034b1de514610046578063262330b4146100755780635c16a60d14610088575b600080fd5b610059610054366004610193565b61009d565b6040516001600160a01b03909116815260200160405180910390f35b600154610059906001600160a01b031681565b61009b6100963660046101c2565b6100c7565b005b600081815481106100ad57600080fd5b6000918252602090912001546001600160a01b0316905081565b6000816040516100d690610186565b6100e091906102c0565b604051809103906000f0801580156100fc573d6000803e3d6000fd5b50600080546001810182559080527f290decd9548b62a8d60345a988386fc84ba6bc95484008f6362f93160ef3e5630180546001600160a01b0319166001600160a01b0383161790556040519091507fb88a389e95d6a9c4d9220dcb10a5f46a3dccf41a742e80ae69d875cc894dc2e69061017a90849084906102da565b60405180910390a15050565b6113028061030583390190565b6000602082840312156101a557600080fd5b5035919050565b634e487b7160e01b600052604160045260246000fd5b6000602082840312156101d457600080fd5b813567ffffffffffffffff808211156101ec57600080fd5b818401915084601f83011261020057600080fd5b813581811115610212576102126101ac565b604051601f8201601f19908116603f0116810190838211818310171561023a5761023a6101ac565b8160405282815287602084870101111561025357600080fd5b826020860160208301376000928101602001929092525095945050505050565b6000815180845260005b818110156102995760208185018101518683018201520161027d565b818111156102ab576000602083870101525b50601f01601f19169290920160200192915050565b6020815260006102d36020830184610273565b9392505050565b6040815260006102ed6040830185610273565b905060018060a01b0383166020830152939250505056fe60806040523480156200001157600080fd5b50604051620013023803806200130283398101604081905262000034916200017b565b6000805460ff19169055620000493362000066565b80516200005e906004906020840190620000bf565b505062000294565b600080546001600160a01b03838116610100818102610100600160a81b0319851617855560405193049190911692909183917f8be0079c531659141344cd1fd0a4f28419497f9722a3daafe3b4186f6b6457e091a35050565b828054620000cd9062000257565b90600052602060002090601f016020900481019282620000f157600085556200013c565b82601f106200010c57805160ff19168380011785556200013c565b828001600101855582156200013c579182015b828111156200013c5782518255916020019190600101906200011f565b506200014a9291506200014e565b5090565b5b808211156200014a57600081556001016200014f565b634e487b7160e01b600052604160045260246000fd5b600060208083850312156200018f57600080fd5b82516001600160401b0380821115620001a757600080fd5b818501915085601f830112620001bc57600080fd5b815181811115620001d157620001d162000165565b604051601f8201601f19908116603f01168101908382118183101715620001fc57620001fc62000165565b8160405282815288868487010111156200021557600080fd5b600093505b828410156200023957848401860151818501870152928501926200021a565b828411156200024b5760008684830101525b98975050505050505050565b600181811c908216806200026c57607f821691505b602082108114156200028e57634e487b7160e01b600052602260045260246000fd5b50919050565b61105e80620002a46000396000f3fe608060405234801561001057600080fd5b50600436106101005760003560e01c80638da5cb5b11610097578063d01cdff211610066578063d01cdff214610254578063daf2fd5814610267578063e0b4d0201461027a578063f2fde38b1461028d57600080fd5b80638da5cb5b146101f6578063a08225651461020c578063c282bc0e1461022c578063cf8d8ca01461023f57600080fd5b80636e15181e116100d35780636e15181e14610196578063715018a6146101b957806378cfad85146101c3578063860ffea1146101e357600080fd5b80634f64b2be14610105578063504a2b32146101355780635c975abb146101565780635eb3c89d1461016d575b600080fd5b610118610113366004610db2565b6102a0565b6040516001600160a01b0390911681526020015b60405180910390f35b610148610143366004610de7565b6102ca565b60405190815260200161012c565b60005460ff165b604051901515815260200161012c565b61011861017b366004610e11565b6005602052600090815260409020546001600160a01b031681565b61015d6101a4366004610e11565b60026020526000908152604090205460ff1681565b6101c1610304565b005b6101486101d1366004610e11565b60076020526000908152604090205481565b6101c16101f1366004610e3a565b610375565b60005461010090046001600160a01b0316610118565b61014861021a366004610e11565b60066020526000908152604090205481565b61014861023a366004610e3a565b6106cf565b61024761083c565b60405161012c9190610e79565b6101c1610262366004610ece565b6108ca565b6101c1610275366004610e11565b610b06565b610118610288366004610db2565b610c78565b6101c161029b366004610e11565b610c88565b600181815481106102b057600080fd5b6000918252602090912001546001600160a01b0316905081565b6000808213156102e3576102e0836001846106cf565b90505b60008212156102fe576102fb83600061023a85610f40565b90505b92915050565b6000546001600160a01b036101009091041633146103695760405162461bcd60e51b815260206004820181905260248201527f4f776e61626c653a2063616c6c6572206973206e6f7420746865206f776e657260448201526064015b60405180910390fd5b6103736000610d59565b565b6001600160a01b03808416600090815260056020526040902054168215610532576001600160a01b0384811660009081526008602052604090819020549051636eb1769f60e11b8152908216600482018190523060248301529184919084169063dd62ed3e9060440160206040518083038186803b1580156103f657600080fd5b505afa15801561040a573d6000803e3d6000fd5b505050506040513d601f19601f8201168201806040525081019061042e9190610f5d565b1161046b5760405162461bcd60e51b815260206004820152600d60248201526c30b63637bbb0b731b29032b93960991b6044820152606401610360565b6040516323b872dd60e01b81526001600160a01b038316906323b872dd9061049b90849030908890600401610f76565b602060405180830381600087803b1580156104b557600080fd5b505af11580156104c9573d6000803e3d6000fd5b505050506040513d601f19601f820116820180604052508101906104ed9190610f9a565b506001600160a01b0385166000908152600660205260409020546105118482610fbe565b6001600160a01b038716600090815260066020526040902055506106c99050565b6001600160a01b0384811660009081526009602052604090819020549051636eb1769f60e11b8152908216600482018190523060248301529184919084169063dd62ed3e9060440160206040518083038186803b15801561059257600080fd5b505afa1580156105a6573d6000803e3d6000fd5b505050506040513d601f19601f820116820180604052508101906105ca9190610f5d565b116106075760405162461bcd60e51b815260206004820152600d60248201526c30b63637bbb0b731b29032b93960991b6044820152606401610360565b6040516323b872dd60e01b81526001600160a01b038316906323b872dd9061063790849030908890600401610f76565b602060405180830381600087803b15801561065157600080fd5b505af1158015610665573d6000803e3d6000fd5b505050506040513d601f19601f820116820180604052508101906106899190610f9a565b506001600160a01b0385166000908152600760205260409020546106ad8482610fbe565b6001600160a01b03871660009081526007602052604090205550505b50505050565b6001600160a01b038316600090815260066020908152604080832054600790925282205484156107985783821061074b5761070a8483610fd6565b6001600160a01b03871660009081526006602052604090205561072d8482610fbe565b6001600160a01b038716600090815260076020526040902055610833565b6001600160a01b03861660009081526006602052604081205561076e8282610fbe565b6001600160a01b0387166000908152600760205260409020556107918285610fd6565b9250610833565b8381106107ea576107a98482610fd6565b6001600160a01b0387166000908152600760205260409020556107cc8483610fbe565b6001600160a01b038716600090815260066020526040902055610833565b6001600160a01b03861660009081526007602052604081205561080d8183610fbe565b6001600160a01b0387166000908152600660205260409020556108308185610fd6565b92505b50509392505050565b6004805461084990610fed565b80601f016020809104026020016040519081016040528092919081815260200182805461087590610fed565b80156108c25780601f10610897576101008083540402835291602001916108c2565b820191906000526020600020905b8154815290600101906020018083116108a557829003601f168201915b505050505081565b6001600160a01b03821660009081526002602052604090205460ff1661094b576001805480820182557fb10e2d527612073b26eecdfd717e6a320cf44b4afac2b0732d9fcbe2b7fa0cf60180546001600160a01b0319166001600160a01b0385169081179091556000908152600260205260409020805460ff191690911790555b60038054600181019091557fc2575a0e9e593c00f959f8c92f12db2869c3395a3b0502d05e2516446f71f85b0180546001600160a01b03199081166001600160a01b0388811691821790935560009081526005602090815260408083208054851688871690811790915560088352818420805486168b8816179055600990925291829020805490931693871693909317909155516323b872dd60e01b81526323b872dd90610a0190879030908690600401610f76565b602060405180830381600087803b158015610a1b57600080fd5b505af1158015610a2f573d6000803e3d6000fd5b505050506040513d601f19601f82011682018060405250810190610a539190610f9a565b506040516323b872dd60e01b81526001600160a01b038316906323b872dd90610a8490869030908690600401610f76565b602060405180830381600087803b158015610a9e57600080fd5b505af1158015610ab2573d6000803e3d6000fd5b505050506040513d601f19601f82011682018060405250810190610ad69190610f9a565b506001600160a01b0390941660009081526006602090815260408083208790556007909152902093909355505050565b6001600160a01b03818116600090815260056020908152604080832054600983528184205460079093529281902054905163a9059cbb60e01b81529184166004830152602482015291169063a9059cbb90604401602060405180830381600087803b158015610b7457600080fd5b505af1158015610b88573d6000803e3d6000fd5b505050506040513d601f19601f82011682018060405250810190610bac9190610f9a565b506001600160a01b0381811660009081526007602090815260408083208390556005825280832054600883528184205460069093529281902054905163a9059cbb60e01b81529184166004830152602482015291169063a9059cbb90604401602060405180830381600087803b158015610c2557600080fd5b505af1158015610c39573d6000803e3d6000fd5b505050506040513d601f19601f82011682018060405250810190610c5d9190610f9a565b506001600160a01b0316600090815260066020526040812055565b600381815481106102b057600080fd5b6000546001600160a01b03610100909104163314610ce85760405162461bcd60e51b815260206004820181905260248201527f4f776e61626c653a2063616c6c6572206973206e6f7420746865206f776e65726044820152606401610360565b6001600160a01b038116610d4d5760405162461bcd60e51b815260206004820152602660248201527f4f776e61626c653a206e6577206f776e657220697320746865207a65726f206160448201526564647265737360d01b6064820152608401610360565b610d5681610d59565b50565b600080546001600160a01b03838116610100818102610100600160a81b0319851617855560405193049190911692909183917f8be0079c531659141344cd1fd0a4f28419497f9722a3daafe3b4186f6b6457e091a35050565b600060208284031215610dc457600080fd5b5035919050565b80356001600160a01b0381168114610de257600080fd5b919050565b60008060408385031215610dfa57600080fd5b610e0383610dcb565b946020939093013593505050565b600060208284031215610e2357600080fd5b6102fb82610dcb565b8015158114610d5657600080fd5b600080600060608486031215610e4f57600080fd5b610e5884610dcb565b92506020840135610e6881610e2c565b929592945050506040919091013590565b600060208083528351808285015260005b81811015610ea657858101830151858201604001528201610e8a565b81811115610eb8576000604083870101525b50601f01601f1916929092016040019392505050565b600080600080600060a08688031215610ee657600080fd5b610eef86610dcb565b9450610efd60208701610dcb565b9350610f0b60408701610dcb565b9250610f1960608701610dcb565b949793965091946080013592915050565b634e487b7160e01b600052601160045260246000fd5b6000600160ff1b821415610f5657610f56610f2a565b5060000390565b600060208284031215610f6f57600080fd5b5051919050565b6001600160a01b039384168152919092166020820152604081019190915260600190565b600060208284031215610fac57600080fd5b8151610fb781610e2c565b9392505050565b60008219821115610fd157610fd1610f2a565b500190565b600082821015610fe857610fe8610f2a565b500390565b600181811c9082168061100157607f821691505b6020821081141561102257634e487b7160e01b600052602260045260246000fd5b5091905056fea2646970667358221220ae88aeb7b852a3658046002e987fdacbfd86bf9e95d7b1d2623b243f5d0411d364736f6c63430008090033a264697066735822122027da45a74783f2e26bddcafbd8bdb94405a4dbbfa22cf8739a2e5323c4d80c1e64736f6c63430008090033",
  "immutableReferences": {},
  "source": "// SPDX-License-Identifier: UNLICENSED\r\npragma solidity ^0.8.6;\r\n\r\nimport \"./CollateralWallet.sol\";\r\nimport \"./interfaces/ICollateralWalletFactory.sol\";\r\n\r\n/// @title Collateral Wallet Factory\r\n/// @author Tamas An\r\n/// @notice Factory for creating and storing collateral wallets\r\ncontract CollateralWalletFactory is ICollateralWalletFactory{\r\n    address[] public collateralWallets;\r\n    address public testAddress;\r\n\r\n    /// @notice Creates new collateral wallet with given name and owner.\r\n    /// @param _walletName name of wallet\r\n    function createCollateralWallet(string memory _walletName) external override\r\n    {\r\n        address collateralWalletAddress_ = address(new CollateralWallet(_walletName));\r\n        collateralWallets.push(collateralWalletAddress_);\r\n        emit CreatedWallet(_walletName, collateralWalletAddress_);\r\n    }\r\n\r\n}",
  "sourcePath": "C:\\Users\\Tomi\\OneDrive - The University of Chicago\\Documents\\Securrency\\ForwardExchange\\contracts\\collateral-wallet\\CollateralWalletFactory.sol",
  "compiler": {
    "name": "solc",
    "version": "0.8.9+commit.e5eed63a.Emscripten.clang"
  },
  "schemaVersion": "3.4.3",
  "updatedAt": "2021-09-30T21:51:06.836Z",
  "networkType": "ethereum",
  "devdoc": {
    "author": "Tamas An",
    "kind": "dev",
    "methods": {
      "createCollateralWallet(string)": {
        "params": {
          "_walletName": "name of wallet"
        }
      }
    },
    "title": "Collateral Wallet Factory",
    "version": 1
  },
  "userdoc": {
    "kind": "user",
    "methods": {
      "createCollateralWallet(string)": {
        "notice": "Creates new collateral wallet with given name and owner."
      }
    },
    "notice": "Factory for creating and storing collateral wallets",
    "version": 1
  }
}