{
  "contractName": "ForwardFatory",
  "abi": [
    {
      "anonymous": false,
      "inputs": [
        {
          "indexed": false,
          "internalType": "string",
          "name": "name",
          "type": "string"
        },
        {
          "indexed": false,
          "internalType": "bytes32",
          "name": "symbol",
          "type": "bytes32"
        }
      ],
      "name": "ForwardCreated",
      "type": "event"
    },
    {
      "inputs": [
        {
          "internalType": "uint256",
          "name": "",
          "type": "uint256"
        }
      ],
      "name": "forwardContracts",
      "outputs": [
        {
          "internalType": "address",
          "name": "",
          "type": "address"
        }
      ],
      "stateMutability": "view",
      "type": "function"
    },
    {
      "inputs": [
        {
          "internalType": "string",
          "name": "name",
          "type": "string"
        },
        {
          "internalType": "bytes32",
          "name": "symbol",
          "type": "bytes32"
        },
        {
          "internalType": "uint256",
          "name": "sizeOfContract",
          "type": "uint256"
        },
        {
          "internalType": "uint256",
          "name": "expirationDate",
          "type": "uint256"
        },
        {
          "internalType": "string",
          "name": "underlyingApiURL",
          "type": "string"
        },
        {
          "internalType": "string",
          "name": "underlyingApiPath",
          "type": "string"
        },
        {
          "internalType": "int256",
          "name": "underlyingDecimalScale",
          "type": "int256"
        }
      ],
      "name": "createForwardContract",
      "outputs": [
        {
          "internalType": "address",
          "name": "forwardContractAddress_",
          "type": "address"
        }
      ],
      "stateMutability": "nonpayable",
      "type": "function"
    }
  ],
  "bytecode": "0x6080604052604051610010906100a8565b604051809103906000f08015801561002c573d6000803e3d6000fd5b50600180546001600160a01b0319166001600160a01b0392909216919091179055604051610059906100b5565b604051809103906000f080158015610075573d6000803e3d6000fd5b50600280546001600160a01b0319166001600160a01b03929092169190911790553480156100a257600080fd5b506100c2565b611aca806146e683390190565b611fc6806161b083390190565b614615806100d16000396000f3fe60806040523480156200001157600080fd5b50600436106200003a5760003560e01c806307a8d089146200003f578063e0b4d0201462000072575b600080fd5b6200005662000050366004620005cb565b62000089565b6040516001600160a01b03909116815260200160405180910390f35b620000566200008336600462000684565b6200046b565b6000835160001415620000cf5760405162461bcd60e51b815260206004820152600960248201526875726c20656d70747960b81b60448201526064015b60405180910390fd5b82516200010b5760405162461bcd60e51b815260206004820152600960248201526875726c20656d70747960b81b6044820152606401620000c6565b81620001495760405162461bcd60e51b815260206004820152600c60248201526b646563696d616c207a65726f60a01b6044820152606401620000c6565b60008611620001905760405162461bcd60e51b8152602060048201526012602482015271636f6e74726163742073697a65207a65726f60701b6044820152606401620000c6565b60006200019e428762000496565b11620001a957600080fd5b6001546002546040518a928a928a928a928a928a928a926001600160a01b03908116921690620001d990620004ec565b620001ed99989796959493929190620006ff565b604051809103906000f0801580156200020a573d6000803e3d6000fd5b506040516610dc99585d195960ca1b602082015290915060270160405160208183030381529060405280519060200120816001600160a01b0316637f4e48496040518163ffffffff1660e01b815260040160006040518083038186803b1580156200027457600080fd5b505afa15801562000289573d6000803e3d6000fd5b505050506040513d6000823e601f3d908101601f19168201604052620002b3919081019062000780565b604051602001620002c5919062000800565b6040516020818303038152906040528051906020012014620003215760405162461bcd60e51b815260206004820152601460248201527318dbdb9d1c9858dd081b9bdd0818dc99585d195960621b6044820152606401620000c6565b60008054600180820183559180527f290decd9548b62a8d60345a988386fc84ba6bc95484008f6362f93160ef3e5630180546001600160a01b0319166001600160a01b03848116918217909255915460405163f2fde38b60e01b81526004810193909352169063f2fde38b90602401600060405180830381600087803b158015620003ab57600080fd5b505af1158015620003c0573d6000803e3d6000fd5b505060025460405163f2fde38b60e01b81526001600160a01b038581166004830152909116925063f2fde38b9150602401600060405180830381600087803b1580156200040c57600080fd5b505af115801562000421573d6000803e3d6000fd5b505050507f09ecda7d2ac470ab4d90ce46bcc6bcf8e1ac92df7d2b0eb6597df7ffacb392e28888604051620004589291906200081e565b60405180910390a1979650505050505050565b600081815481106200047c57600080fd5b6000918252602090912001546001600160a01b0316905081565b600081831115620004d95760405162461bcd60e51b815260206004820152600c60248201526b3a34b6b2b234b3331032b93960a11b6044820152606401620000c6565b620004e5838362000842565b9392505050565b613d77806200086983390190565b634e487b7160e01b600052604160045260246000fd5b604051601f8201601f1916810167ffffffffffffffff811182821017156200053c576200053c620004fa565b604052919050565b600067ffffffffffffffff821115620005615762000561620004fa565b50601f01601f191660200190565b600082601f8301126200058157600080fd5b813562000598620005928262000544565b62000510565b818152846020838601011115620005ae57600080fd5b816020850160208301376000918101602001919091529392505050565b600080600080600080600060e0888a031215620005e757600080fd5b873567ffffffffffffffff808211156200060057600080fd5b6200060e8b838c016200056f565b985060208a0135975060408a0135965060608a0135955060808a01359150808211156200063a57600080fd5b620006488b838c016200056f565b945060a08a01359150808211156200065f57600080fd5b506200066e8a828b016200056f565b92505060c0880135905092959891949750929550565b6000602082840312156200069757600080fd5b5035919050565b60005b83811015620006bb578181015183820152602001620006a1565b83811115620006cb576000848401525b50505050565b60008151808452620006eb8160208601602086016200069e565b601f01601f19169290920160200192915050565b6000610120808352620007158184018d620006d1565b90508a602084015289604084015288606084015282810360808401526200073d8189620006d1565b905082810360a0840152620007538188620006d1565b60c084019690965250506001600160a01b0392831660e08201529116610100909101529695505050505050565b6000602082840312156200079357600080fd5b815167ffffffffffffffff811115620007ab57600080fd5b8201601f81018413620007bd57600080fd5b8051620007ce620005928262000544565b818152856020838501011115620007e457600080fd5b620007f78260208301602086016200069e565b95945050505050565b60008251620008148184602087016200069e565b9190910192915050565b604081526000620008336040830185620006d1565b90508260208301529392505050565b6000828210156200086357634e487b7160e01b600052601160045260246000fd5b50039056fe608060405260016004553480156200001657600080fd5b5060405162003d7738038062003d77833981016040819052620000399162000310565b620000443362000113565b8851620000599060079060208c019062000165565b506008889055600a879055600f869055601880546001600160a01b038085166001600160a01b031992831617909255601a805492841692909116919091179055604051839086908690620000ad90620001f4565b620000bb939291906200041c565b604051809103906000f080158015620000d8573d6000803e3d6000fd5b50601980546001600160a01b0319166001600160a01b039290921691909117905550506009805460ff19169055506200048895505050505050565b600680546001600160a01b038381166001600160a01b0319831681179093556040519116919082907f8be0079c531659141344cd1fd0a4f28419497f9722a3daafe3b4186f6b6457e090600090a35050565b82805462000173906200044b565b90600052602060002090601f016020900481019282620001975760008555620001e2565b82601f10620001b257805160ff1916838001178555620001e2565b82800160010185558215620001e2579182015b82811115620001e2578251825591602001919060010190620001c5565b50620001f092915062000202565b5090565b611b49806200222e83390190565b5b80821115620001f0576000815560010162000203565b634e487b7160e01b600052604160045260246000fd5b60005b838110156200024c57818101518382015260200162000232565b838111156200025c576000848401525b50505050565b600082601f8301126200027457600080fd5b81516001600160401b038082111562000291576200029162000219565b604051601f8301601f19908116603f01168101908282118183101715620002bc57620002bc62000219565b81604052838152866020858801011115620002d657600080fd5b620002e98460208301602089016200022f565b9695505050505050565b80516001600160a01b03811681146200030b57600080fd5b919050565b60008060008060008060008060006101208a8c0312156200033057600080fd5b89516001600160401b03808211156200034857600080fd5b620003568d838e0162000262565b9a5060208c0151995060408c0151985060608c0151975060808c01519150808211156200038257600080fd5b620003908d838e0162000262565b965060a08c0151915080821115620003a757600080fd5b50620003b68c828d0162000262565b94505060c08a01519250620003ce60e08b01620002f3565b9150620003df6101008b01620002f3565b90509295985092959850929598565b60008151808452620004088160208601602086016200022f565b601f01601f19169290920160200192915050565b838152606060208201526000620004376060830185620003ee565b8281036040840152620002e98185620003ee565b600181811c908216806200046057607f821691505b602082108114156200048257634e487b7160e01b600052602260045260246000fd5b50919050565b611d9680620004986000396000f3fe608060405234801561001057600080fd5b506004361061014d5760003560e01c806378f8f7d4116100c3578063addcb0e61161007c578063addcb0e614610259578063b317f5ec14610262578063c08611d114610273578063d7188dfb14610286578063efa32d4914610299578063f2fde38b146102a257600080fd5b806378f8f7d41461021d5780637f4e48491461022557806389f00b6d1461022d5780638da5cb5b146102365780638f6204871461024757806395d89b411461025057600080fd5b80636a9c8266116101155780636a9c8266146101be57806370a4cd34146101c8578063715018a6146101d057806371fbadcc146101d857806374a99c54146101fb57806377588b7c1461020c57600080fd5b806306fdde0314610152578063343d208814610170578063381cf2e81461018757806347d3fa6d14610190578063621e29db146101b5575b600080fd5b61015a6102b5565b6040516101679190611a57565b60405180910390f35b610179600d5481565b604051908152602001610167565b610179600e5481565b600b546001600160a01b03165b6040516001600160a01b039091168152602001610167565b610179600a5481565b6101c6610343565b005b6101c6610571565b6101c6610790565b6101eb6101e6366004611ac8565b6107c6565b6040519015158152602001610167565b6014546001600160a01b031661019d565b6013546001600160a01b031661019d565b6101c6610c4c565b61015a611361565b61017960165481565b6006546001600160a01b031661019d565b610179600f5481565b61017960085481565b61017960155481565b600c546001600160a01b031661019d565b6101c6610281366004611b51565b611491565b60115461019d906001600160a01b031681565b61017960105481565b6101c66102b0366004611b7b565b611918565b600780546102c290611b96565b80601f01602080910402602001604051908101604052809291908181526020018280546102ee90611b96565b801561033b5780601f106103105761010080835404028352916020019161033b565b820191906000526020600020905b81548152906001019060200180831161031e57829003601f168201915b505050505081565b6006546001600160a01b031633146103765760405162461bcd60e51b815260040161036d90611bd1565b60405180910390fd5b600260095460ff16600381111561038f5761038f611c06565b14806103b15750600360095460ff1660038111156103af576103af611c06565b145b6103e95760405162461bcd60e51b815260206004820152600960248201526839ba30ba329032b93960b91b604482015260640161036d565b60006103fd6002546001600160a01b031690565b6040516370a0823160e01b81523060048201529091506000906001600160a01b038316906370a082319060240160206040518083038186803b15801561044257600080fd5b505afa158015610456573d6000803e3d6000fd5b505050506040513d601f19601f8201168201806040525081019061047a9190611c1c565b60405163a9059cbb60e01b8152336004820152602481018290529091506001600160a01b0383169063a9059cbb90604401602060405180830381600087803b1580156104c557600080fd5b505af11580156104d9573d6000803e3d6000fd5b505050506040513d601f19601f820116820180604052508101906104fd9190611c35565b6105395760405162461bcd60e51b815260206004820152600d60248201526c2bb4ba34323930bb9032b9391760991b604482015260640161036d565b6040518181527f1a75917c8965c2b9722b0cae30df645224fca070ce7c8edc2c3e208f6ae71b43906020015b60405180910390a15050565b600160095460ff16600381111561058a5761058a611c06565b146105c55760405162461bcd60e51b815260206004820152600b60248201526a77726f6e6720737461746560a81b604482015260640161036d565b60006105d342600f546119b3565b116105dd57600080fd5b6000600a54600d546105ef9190611c6d565b90506000600a546017546106039190611c6d565b905060006106118383611c8c565b9050601960009054906101000a90046001600160a01b03166001600160a01b0316638dc654a26040518163ffffffff1660e01b8152600401600060405180830381600087803b15801561066357600080fd5b505af1158015610677573d6000803e3d6000fd5b50505050601860009054906101000a90046001600160a01b03166001600160a01b0316638dc654a26040518163ffffffff1660e01b8152600401600060405180830381600087803b1580156106cb57600080fd5b505af11580156106df573d6000803e3d6000fd5b50505050601860009054906101000a90046001600160a01b03166001600160a01b0316638dc654a26040518163ffffffff1660e01b8152600401600060405180830381600087803b15801561073357600080fd5b505af1158015610747573d6000803e3d6000fd5b50506009805460ff1916600217905550506040518181527f86da3a1d3f4b013014acc467deb0db6e6d8cc958b6f998933ded255e44e69ac99060200160405180910390a1505050565b6006546001600160a01b031633146107ba5760405162461bcd60e51b815260040161036d90611bd1565b6107c46000611a05565b565b60006001600160a01b0389166107ee5760405162461bcd60e51b815260040161036d90611ccb565b6001600160a01b0388166108145760405162461bcd60e51b815260040161036d90611ccb565b876001600160a01b0316896001600160a01b031614156108635760405162461bcd60e51b815260206004820152600a60248201526973616d6520706172747960b01b604482015260640161036d565b6001600160a01b0387166108895760405162461bcd60e51b815260040161036d90611ccb565b6001600160a01b0386166108af5760405162461bcd60e51b815260040161036d90611ccb565b6001600160a01b0385166108d55760405162461bcd60e51b815260040161036d90611ccb565b826109155760405162461bcd60e51b815260206004820152601060248201526f7a65726f206d61696e74656e616e636560801b604482015260640161036d565b601860009054906101000a90046001600160a01b03166001600160a01b031663c0a5977f6040518163ffffffff1660e01b815260040160206040518083038186803b15801561096357600080fd5b505afa158015610977573d6000803e3d6000fd5b505050506040513d601f19601f8201168201806040525081019061099b9190611c1c565b600d819055601755600b80546001600160a01b03199081166001600160a01b038c811691909117909255600c805482168b84161790556011805482168a84161790556013805482168984161790556014805482168884161790556015869055601685905560128054909116918416919091179055601a805461ffff60a81b191690556000601b819055612710610a318686611cee565b610a3b9190611d06565b600d54610a489190611c6d565b601254601354601154604051636eb1769f60e11b81526001600160a01b0392831660048201529082166024820152929350839291169063dd62ed3e9060440160206040518083038186803b158015610a9f57600080fd5b505afa158015610ab3573d6000803e3d6000fd5b505050506040513d601f19601f82011682018060405250810190610ad79190611c1c565b118015610b6f5750601254601454601154604051636eb1769f60e11b81526001600160a01b03928316600482015290821660248201528392919091169063dd62ed3e9060440160206040518083038186803b158015610b3557600080fd5b505afa158015610b49573d6000803e3d6000fd5b505050506040513d601f19601f82011682018060405250810190610b6d9190611c1c565b115b610bab5760405162461bcd60e51b815260206004820152600d60248201526c30b63637bbb0b731b29032b93960991b604482015260640161036d565b60115460145460135460125460405163680e6ff960e11b81523060048201526001600160a01b0393841660248201529183166044830152821660648201526084810184905291169063d01cdff29060a401600060405180830381600087803b158015610c1657600080fd5b505af1158015610c2a573d6000803e3d6000fd5b50506009805460ff191660019081179091559c9b505050505050505050505050565b600160095460ff166003811115610c6557610c65611c06565b14610cab5760405162461bcd60e51b815260206004820152601660248201527510dbdb9d1c9858dd081b9bdd081a5b9a5d1a585d195960521b604482015260640161036d565b6000610cb942600f546119b3565b11610cc357600080fd5b61012c610cd2601c54426119b3565b11610d105760405162461bcd60e51b815260206004820152600e60248201526d36ba37b69032b0b9363c9032b93960911b604482015260640161036d565b601b5415610ecf57601a54600160a81b900460ff1615610de357601154601b546040516361415e0760e11b81526000926001600160a01b03169163c282bc0e91610d6291309160019190600401611d28565b602060405180830381600087803b158015610d7c57600080fd5b505af1158015610d90573d6000803e3d6000fd5b505050506040513d601f19601f82011682018060405250810190610db49190611c1c565b90508015610dd757600c54610dd2906001600160a01b031682611491565b610ddd565b6000601b555b50610ecf565b601a54600160b01b900460ff1615610e9c57601154601b546040516361415e0760e11b81526000926001600160a01b03169163c282bc0e91610e2c913091869190600401611d28565b602060405180830381600087803b158015610e4657600080fd5b505af1158015610e5a573d6000803e3d6000fd5b505050506040513d601f19601f82011682018060405250810190610e7e9190611c1c565b90508015610dd757600b54610dd2906001600160a01b031682611491565b60405162461bcd60e51b815260206004820152600860248201526736aa37a69032b93960c11b604482015260640161036d565b6018546040805163c0a5977f60e01b815290516000926001600160a01b03169163c0a5977f916004808301926020929190829003018186803b158015610f1457600080fd5b505afa158015610f28573d6000803e3d6000fd5b505050506040513d601f19601f82011682018060405250810190610f4c9190611c1c565b90506000600a5482610f5e9190611c6d565b90506000600a54601754610f729190611c6d565b90506000610f808284611c8c565b90506000612710601654610f949190611d06565b610f9e9085611c6d565b601154604051632825159960e11b81523060048201526024810185905291925060009182916001600160a01b03169063504a2b3290604401602060405180830381600087803b158015610ff057600080fd5b505af1158015611004573d6000803e3d6000fd5b505050506040513d601f19601f820116820180604052508101906110289190611c1c565b601b5560115460405163a082256560e01b815230600482015284916001600160a01b03169063a08225659060240160206040518083038186803b15801561106e57600080fd5b505afa158015611082573d6000803e3d6000fd5b505050506040513d601f19601f820116820180604052508101906110a69190611c1c565b101561118857601a54600160a81b900460ff16156110dc57600c54601b546110d7916001600160a01b031690611491565b611196565b601b5460115460405163a082256560e01b81523060048201526001600160a01b039091169063a08225659060240160206040518083038186803b15801561112257600080fd5b505afa158015611136573d6000803e3d6000fd5b505050506040513d601f19601f8201168201806040525081019061115a9190611c1c565b6111649085611d49565b61116e9190611cee565b601a805460ff60a81b1916600160a81b1790559150611196565b601a805460ff60a81b191690555b6011546040516378cfad8560e01b815230600482015284916001600160a01b0316906378cfad859060240160206040518083038186803b1580156111d957600080fd5b505afa1580156111ed573d6000803e3d6000fd5b505050506040513d601f19601f820116820180604052508101906112119190611c1c565b101561130457601a54600160b01b900460ff161561125857601a54600160a81b900460ff1661125357600b54601b54611253916001600160a01b031690611491565b611312565b601b546011546040516378cfad8560e01b81523060048201526001600160a01b03909116906378cfad859060240160206040518083038186803b15801561129e57600080fd5b505afa1580156112b2573d6000803e3d6000fd5b505050506040513d601f19601f820116820180604052508101906112d69190611c1c565b6112e09085611d49565b6112ea9190611cee565b601a805460ff60b01b1916600160b01b1790559050611312565b601a805460ff60b01b191690555b601787905560408051858152602081018490529081018290527f7e947d3fa7566428c36ccacbe4b58a26793422c426378a4918899c3e95e06c829060600160405180910390a150505050505050565b6060600060095460ff16600381111561137c5761137c611c06565b14156113a4575060408051808201909152600781526610dc99585d195960ca1b602082015290565b600160095460ff1660038111156113bd576113bd611c06565b14156113e75750604080518082019091526009815268125b9a5d1a585d195960ba1b602082015290565b600260095460ff16600381111561140057611400611c06565b1415611428575060408051808201909152600781526614d95d1d1b195960ca1b602082015290565b600360095460ff16600381111561144157611441611c06565b141561146b5750604080518082019091526009815268111959985d5b1d195960ba1b602082015290565b5060408051808201909152600b81526a39ba30ba329032b93937b960a91b602082015290565b600c546001600160a01b03838116911614806114ba5750600b546001600160a01b038381169116145b6114f25760405162461bcd60e51b81526020600482015260096024820152683830b93a3c9032b93960b91b604482015260640161036d565b600160095460ff16600381111561150b5761150b611c06565b146115445760405162461bcd60e51b815260206004820152600960248201526839ba30ba329032b93960b91b604482015260640161036d565b600061155242600f546119b3565b1161155c57600080fd5b600c546001600160a01b03838116911614156116855760115460405163a082256560e01b81523060048201526000916001600160a01b03169063a08225659060240160206040518083038186803b1580156115b657600080fd5b505afa1580156115ca573d6000803e3d6000fd5b505050506040513d601f19601f820116820180604052508101906115ee9190611c1c565b9050801561167f576011546040516361415e0760e11b81526001600160a01b039091169063c282bc0e9061162b9030906001908690600401611d28565b602060405180830381600087803b15801561164557600080fd5b505af1158015611659573d6000803e3d6000fd5b505050506040513d601f19601f8201168201806040525081019061167d9190611c1c565b505b50611794565b6011546040516378cfad8560e01b81523060048201526000916001600160a01b0316906378cfad859060240160206040518083038186803b1580156116c957600080fd5b505afa1580156116dd573d6000803e3d6000fd5b505050506040513d601f19601f820116820180604052508101906117019190611c1c565b90508015611792576011546040516361415e0760e11b81526001600160a01b039091169063c282bc0e9061173e9030906000908690600401611d28565b602060405180830381600087803b15801561175857600080fd5b505af115801561176c573d6000803e3d6000fd5b505050506040513d601f19601f820116820180604052508101906117909190611c1c565b505b505b601960009054906101000a90046001600160a01b03166001600160a01b0316638dc654a26040518163ffffffff1660e01b8152600401600060405180830381600087803b1580156117e457600080fd5b505af11580156117f8573d6000803e3d6000fd5b50505050601860009054906101000a90046001600160a01b03166001600160a01b0316638dc654a26040518163ffffffff1660e01b8152600401600060405180830381600087803b15801561184c57600080fd5b505af1158015611860573d6000803e3d6000fd5b50505050601860009054906101000a90046001600160a01b03166001600160a01b0316638dc654a26040518163ffffffff1660e01b8152600401600060405180830381600087803b1580156118b457600080fd5b505af11580156118c8573d6000803e3d6000fd5b50506009805460ff191660031790555050604080516001600160a01b0384168152602081018390527f689adb72648bbd7c2f367f4bc87930faa9f84d5271951d9d1e693372bd8bdbdd9101610565565b6006546001600160a01b031633146119425760405162461bcd60e51b815260040161036d90611bd1565b6001600160a01b0381166119a75760405162461bcd60e51b815260206004820152602660248201527f4f776e61626c653a206e6577206f776e657220697320746865207a65726f206160448201526564647265737360d01b606482015260840161036d565b6119b081611a05565b50565b6000818311156119f45760405162461bcd60e51b815260206004820152600c60248201526b3a34b6b2b234b3331032b93960a11b604482015260640161036d565b6119fe8383611d49565b9392505050565b600680546001600160a01b038381166001600160a01b0319831681179093556040519116919082907f8be0079c531659141344cd1fd0a4f28419497f9722a3daafe3b4186f6b6457e090600090a35050565b600060208083528351808285015260005b81811015611a8457858101830151858201604001528201611a68565b81811115611a96576000604083870101525b50601f01601f1916929092016040019392505050565b80356001600160a01b0381168114611ac357600080fd5b919050565b600080600080600080600080610100898b031215611ae557600080fd5b611aee89611aac565b9750611afc60208a01611aac565b9650611b0a60408a01611aac565b9550611b1860608a01611aac565b9450611b2660808a01611aac565b935060a0890135925060c08901359150611b4260e08a01611aac565b90509295985092959890939650565b60008060408385031215611b6457600080fd5b611b6d83611aac565b946020939093013593505050565b600060208284031215611b8d57600080fd5b6119fe82611aac565b600181811c90821680611baa57607f821691505b60208210811415611bcb57634e487b7160e01b600052602260045260246000fd5b50919050565b6020808252818101527f4f776e61626c653a2063616c6c6572206973206e6f7420746865206f776e6572604082015260600190565b634e487b7160e01b600052602160045260246000fd5b600060208284031215611c2e57600080fd5b5051919050565b600060208284031215611c4757600080fd5b815180151581146119fe57600080fd5b634e487b7160e01b600052601160045260246000fd5b6000816000190483118215151615611c8757611c87611c57565b500290565b60008083128015600160ff1b850184121615611caa57611caa611c57565b6001600160ff1b0384018313811615611cc557611cc5611c57565b50500390565b60208082526009908201526830206164647265737360b81b604082015260600190565b60008219821115611d0157611d01611c57565b500190565b600082611d2357634e487b7160e01b600052601260045260246000fd5b500490565b6001600160a01b039390931683529015156020830152604082015260600190565b600082821015611d5b57611d5b611c57565b50039056fea264697066735822122048215d6268a64576e11bf07daf5e18b0dde09fd5ab1b62447d5a6b2a7bcc9b9064736f6c6343000809003360806040526001600455600f80546001600160a01b03199081167356dd6586db0d08c6ce7b2f2805af28616e082455179091556010805490911673a36085f69e2889c224210f603d836748e7dc008817905567016345785d8a00006011557f62363630326431346534373334633439613565316365313964343561343633326012553480156200008e57600080fd5b5060405162001b4938038062001b49833981016040819052620000b1916200041f565b601254600f546010546011548692869286926000926001600160a01b0390811692889291169087878787620000e633620001a9565b6001600160a01b0386166200010557620000ff620001fb565b62000121565b600280546001600160a01b0319166001600160a01b0388161790555b600980546001600160a01b0319166001600160a01b038a16179055600a879055600e859055600d84905582516200016090600c906020860190620002ac565b5081516200017690600b906020850190620002ac565b5060068054911515600160a01b0260ff60a01b1990921691909117905550620005029d5050505050505050505050505050565b600680546001600160a01b038381166001600160a01b0319831681179093556040519116919082907f8be0079c531659141344cd1fd0a4f28419497f9722a3daafe3b4186f6b6457e090600090a35050565b620002aa73c89bd4e1632d3a43cb03aaad5262cbe4038bc5716001600160a01b03166338cc48316040518163ffffffff1660e01b815260040160206040518083038186803b1580156200024d57600080fd5b505afa15801562000262573d6000803e3d6000fd5b505050506040513d601f19601f8201168201806040525081019062000288919062000493565b600280546001600160a01b0319166001600160a01b0392909216919091179055565b565b828054620002ba90620004c5565b90600052602060002090601f016020900481019282620002de576000855562000329565b82601f10620002f957805160ff191683800117855562000329565b8280016001018555821562000329579182015b82811115620003295782518255916020019190600101906200030c565b50620003379291506200033b565b5090565b5b808211156200033757600081556001016200033c565b634e487b7160e01b600052604160045260246000fd5b600082601f8301126200037a57600080fd5b81516001600160401b038082111562000397576200039762000352565b604051601f8301601f19908116603f01168101908282118183101715620003c257620003c262000352565b81604052838152602092508683858801011115620003df57600080fd5b600091505b83821015620004035785820183015181830184015290820190620003e4565b83821115620004155760008385830101525b9695505050505050565b6000806000606084860312156200043557600080fd5b835160208501519093506001600160401b03808211156200045557600080fd5b620004638783880162000368565b935060408601519150808211156200047a57600080fd5b50620004898682870162000368565b9150509250925092565b600060208284031215620004a657600080fd5b81516001600160a01b0381168114620004be57600080fd5b9392505050565b600181811c90821680620004da57607f821691505b60208210811415620004fc57634e487b7160e01b600052602260045260246000fd5b50919050565b61163780620005126000396000f3fe6080604052600436106101015760003560e01c80638dc654a21161008f578063c0a5977f11610061578063c0a5977f146102e8578063c2939d97146102fe578063c5b37c2214610314578063ddca3f431461032a578063f2fde38b1461034057005b80638dc654a21461026c578063918c00b914610281578063a89ae4ba146102b2578063c043a254146102d257005b806369723be7116100d357806369723be7146101d95780636fb7cb57146101f9578063715018a6146102195780637e0b66d01461022e5780638da5cb5b1461024e57005b8063185defc614610142578063313ce5671461017f5780634665e65a146101a357806351744bca146101b957005b3661014057604080513381523460208201527f88a5966d370b9919b20f3e2c13ff65706f196a4e32cc2c12bf57088f88525874910160405180910390a1005b005b34801561014e57600080fd5b50601054610162906001600160a01b031681565b6040516001600160a01b0390911681526020015b60405180910390f35b34801561018b57600080fd5b50610195600d5481565b604051908152602001610176565b3480156101af57600080fd5b5061019560125481565b3480156101c557600080fd5b506101406101d4366004611137565b610360565b3480156101e557600080fd5b506101956101f436600461116f565b6103eb565b34801561020557600080fd5b50600f54610162906001600160a01b031681565b34801561022557600080fd5b506101406105fd565b34801561023a57600080fd5b50610140610249366004611137565b610633565b34801561025a57600080fd5b506006546001600160a01b0316610162565b34801561027857600080fd5b506101406106b5565b34801561028d57600080fd5b506006546102a290600160a01b900460ff1681565b6040519015158152602001610176565b3480156102be57600080fd5b50600954610162906001600160a01b031681565b3480156102de57600080fd5b5061019560085481565b3480156102f457600080fd5b5061019560075481565b34801561030a57600080fd5b50610195600a5481565b34801561032057600080fd5b5061019560115481565b34801561033657600080fd5b50610195600e5481565b34801561034c57600080fd5b5061014061035b366004611220565b61086c565b60008281526005602052604090205482906001600160a01b031633146103a15760405162461bcd60e51b815260040161039890611249565b60405180910390fd5b60008181526005602052604080822080546001600160a01b03191690555182917f7cc135e0cebb02c3480ae5d74d377283180a2601f8f644edf7987b009316c63a91a25060085550565b60006103f56110fc565b600654600160a01b900460ff161561042357600a5461041c90306328ba25e560e11b610907565b905061043b565b600a5461043890306307e0b66d60e41b610907565b90505b6104f66040518060400160405280600381526020016219d95d60ea1b8152506104ee600c805461046a90611291565b80601f016020809104026020016040519081016040528092919081815260200182805461049690611291565b80156104e35780601f106104b8576101008083540402835291602001916104e3565b820191906000526020600020905b8154815290600101906020018083116104c657829003601f168201915b50505050508661092c565b839190610959565b6105b1604051806040016040528060048152602001630e0c2e8d60e31b815250600b805461052390611291565b80601f016020809104026020016040519081016040528092919081815260200182805461054f90611291565b801561059c5780601f106105715761010080835404028352916020019161059c565b820191906000526020600020905b81548152906001019060200180831161057f57829003601f168201915b5050505050836109599092919063ffffffff16565b60408051808201909152600581526474696d657360d81b6020820152600d546105db91839161097c565b600954600e546105f6916001600160a01b031690839061099a565b9392505050565b6006546001600160a01b031633146106275760405162461bcd60e51b8152600401610398906112c6565b61063160006109b9565b565b60008281526005602052604090205482906001600160a01b0316331461066b5760405162461bcd60e51b815260040161039890611249565b60008181526005602052604080822080546001600160a01b03191690555182917f7cc135e0cebb02c3480ae5d74d377283180a2601f8f644edf7987b009316c63a91a25060075550565b6006546001600160a01b031633146106df5760405162461bcd60e51b8152600401610398906112c6565b60006106f36002546001600160a01b031690565b6040516370a0823160e01b81523060048201529091506000906001600160a01b038316906370a082319060240160206040518083038186803b15801561073857600080fd5b505afa15801561074c573d6000803e3d6000fd5b505050506040513d601f19601f8201168201806040525081019061077091906112fb565b60405163a9059cbb60e01b8152336004820152602481018290529091506001600160a01b0383169063a9059cbb90604401602060405180830381600087803b1580156107bb57600080fd5b505af11580156107cf573d6000803e3d6000fd5b505050506040513d601f19601f820116820180604052508101906107f39190611314565b61082f5760405162461bcd60e51b815260206004820152600d60248201526c2bb4ba34323930bb9032b9391760991b6044820152606401610398565b60408051338152602081018390527fcb1436249a1dd8cf93362c28d79a4e20dc54398b6c49e30316e8396e72a584b0910160405180910390a15050565b6006546001600160a01b031633146108965760405162461bcd60e51b8152600401610398906112c6565b6001600160a01b0381166108fb5760405162461bcd60e51b815260206004820152602660248201527f4f776e61626c653a206e6577206f776e657220697320746865207a65726f206160448201526564647265737360d01b6064820152608401610398565b610904816109b9565b50565b61090f6110fc565b6109176110fc565b61092381868686610a0b565b95945050505050565b60608282604051602001610941929190611362565b60405160208183030381529060405290505b92915050565b60808301516109689083610a48565b60808301516109779082610a48565b505050565b608083015161098b9083610a48565b60808301516109779082610a5f565b60006109b184848460016320214ca360e11b610ac3565b949350505050565b600680546001600160a01b038381166001600160a01b0319831681179093556040519116919082907f8be0079c531659141344cd1fd0a4f28419497f9722a3daafe3b4186f6b6457e090600090a35050565b610a136110fc565b610a238560800151610100610ccf565b50509183526001600160a01b031660208301526001600160e01b031916604082015290565b610a558260038351610d34565b6109778282610e08565b67ffffffffffffffff19811215610a7e57610a7a8282610e2f565b5050565b67ffffffffffffffff811315610a9857610a7a8282610e71565b60008112610aac57610a7a82600083610d34565b610a7a826001610abe846000196113a7565b610d34565b6004546040516bffffffffffffffffffffffff193060601b166020820152603481019190915260009060540160408051808303601f19018152918152815160209283012060045460608901526000818152600590935281832080546001600160a01b0319166001600160a01b038b16179055905190925082917fb5e6e01e79f91267dc17b4e6314d5d4d03593d2ceee0fbb452b750bd70ea5af991a2600082600080886000015189602001518a604001518b606001518a8d6080015160000151604051602401610b9a989796959493929190611412565b60408051601f198184030181529181526020820180516001600160e01b03166001600160e01b0319909416939093179092526002549151630200057560e51b81529092506001600160a01b0390911690634000aea090610c02908a908990869060040161147a565b602060405180830381600087803b158015610c1c57600080fd5b505af1158015610c30573d6000803e3d6000fd5b505050506040513d601f19601f82011682018060405250810190610c549190611314565b610cac5760405162461bcd60e51b815260206004820152602360248201527f756e61626c6520746f207472616e73666572416e6443616c6c20746f206f7261604482015262636c6560e81b6064820152608401610398565b600160046000828254610cbf91906114a1565b9091555091979650505050505050565b604080518082019091526060815260006020820152610cef6020836114b9565b15610d1757610cff6020836114b9565b610d0a9060206114db565b610d1490836114a1565b91505b506020828101829052604080518085526000815290920101905290565b60178111610d5557610d4f8360e0600585901b168317610e94565b50505050565b60ff8111610d7f57610d72836018611fe0600586901b1617610e94565b50610d4f83826001610eb9565b61ffff8111610daa57610d9d836019611fe0600586901b1617610e94565b50610d4f83826002610eb9565b63ffffffff8111610dd757610dca83601a611fe0600586901b1617610e94565b50610d4f83826004610eb9565b67ffffffffffffffff811161097757610dfb83601b611fe0600586901b1617610e94565b50610d4f83826008610eb9565b6040805180820190915260608152600060208201526105f683846000015151848551610edf565b610e3a8260c3610e94565b50610a7a82610e4b836000196113a7565b604051602001610e5d91815260200190565b604051602081830303815290604052610fe4565b610e7c8260c2610e94565b50610a7a8282604051602001610e5d91815260200190565b6040805180820190915260608152600060208201526105f68384600001515184610ff1565b6040805180820190915260608152600060208201526109b184856000015151858561104d565b6040805180820190915260608152600060208201528251821115610f0257600080fd5b6020850151610f1183866114a1565b1115610f4457610f4485610f3487602001518786610f2f91906114a1565b6110ce565b610f3f9060026114f2565b6110e5565b600080865180518760208301019350808887011115610f635787860182525b505050602084015b60208410610fa35780518252610f826020836114a1565b9150610f8f6020826114a1565b9050610f9c6020856114db565b9350610f6b565b60006001610fb28660206114db565b610fbe906101006115f5565b610fc891906114db565b9151835183169219169190911790915250849050949350505050565b610a558260028351610d34565b60408051808201909152606081526000602082015283602001518310611026576110268485602001516002610f3f91906114f2565b835180516020858301018481535080851415611043576001810182525b5093949350505050565b604080518082019091526060815260006020820152602085015161107185846114a1565b11156110855761108585610f3486856114a1565b60006001611095846101006115f5565b61109f91906114db565b90508551838682010185831982511617815250805184870111156110c35783860181525b509495945050505050565b6000818311156110df575081610953565b50919050565b81516110f18383610ccf565b50610d4f8382610e08565b6040805160a0810182526000808252602080830182905282840182905260608084018390528451808601909552845283015290608082015290565b6000806040838503121561114a57600080fd5b50508035926020909101359150565b634e487b7160e01b600052604160045260246000fd5b60006020828403121561118157600080fd5b813567ffffffffffffffff8082111561119957600080fd5b818401915084601f8301126111ad57600080fd5b8135818111156111bf576111bf611159565b604051601f8201601f19908116603f011681019083821181831017156111e7576111e7611159565b8160405282815287602084870101111561120057600080fd5b826020860160208301376000928101602001929092525095945050505050565b60006020828403121561123257600080fd5b81356001600160a01b03811681146105f657600080fd5b60208082526028908201527f536f75726365206d75737420626520746865206f7261636c65206f6620746865604082015267081c995c5d595cdd60c21b606082015260800190565b600181811c908216806112a557607f821691505b602082108114156110df57634e487b7160e01b600052602260045260246000fd5b6020808252818101527f4f776e61626c653a2063616c6c6572206973206e6f7420746865206f776e6572604082015260600190565b60006020828403121561130d57600080fd5b5051919050565b60006020828403121561132657600080fd5b815180151581146105f657600080fd5b60005b83811015611351578181015183820152602001611339565b83811115610d4f5750506000910152565b60008351611374818460208801611336565b835190830190611388818360208801611336565b01949350505050565b634e487b7160e01b600052601160045260246000fd5b60008083128015600160ff1b8501841216156113c5576113c5611391565b6001600160ff1b03840183138116156113e0576113e0611391565b50500390565b600081518084526113fe816020860160208601611336565b601f01601f19169290920160200192915050565b6001600160a01b0389811682526020820189905260408201889052861660608201526001600160e01b03198516608082015260a0810184905260c0810183905261010060e0820181905260009061146b838201856113e6565b9b9a5050505050505050505050565b60018060a01b038416815282602082015260606040820152600061092360608301846113e6565b600082198211156114b4576114b4611391565b500190565b6000826114d657634e487b7160e01b600052601260045260246000fd5b500690565b6000828210156114ed576114ed611391565b500390565b600081600019048311821515161561150c5761150c611391565b500290565b600181815b8085111561154c57816000190482111561153257611532611391565b8085161561153f57918102915b93841c9390800290611516565b509250929050565b60008261156357506001610953565b8161157057506000610953565b81600181146115865760028114611590576115ac565b6001915050610953565b60ff8411156115a1576115a1611391565b50506001821b610953565b5060208310610133831016604e8410600b84101617156115cf575081810a610953565b6115d98383611511565b80600019048211156115ed576115ed611391565b029392505050565b60006105f6838361155456fea264697066735822122056ddc1495355d05e55420dc9fa7adce30c9e20971bcca82c16a028598efa2e6764736f6c63430008090033a26469706673582212207018a0d2a8cb31c6ae5112ea34007cd33e2175be14a2b3671b1a6ad9599349af64736f6c6343000809003360806040526001600455600f80546001600160a01b03199081167356dd6586db0d08c6ce7b2f2805af28616e082455179091556010805490911673a36085f69e2889c224210f603d836748e7dc008817905567016345785d8a00006011557f623636303264313465343733346334396135653163653139643435613436333260125560646013553480156200009357600080fd5b5060135460405180606001604052806029815260200162001aa160299139604080518082019091526005815264707269636560d81b6020820152601254600f546010546011548692869286926000926001600160a01b03908116928892911690878787876200010233620001c5565b6001600160a01b03861662000121576200011b62000217565b6200013d565b600280546001600160a01b0319166001600160a01b0388161790555b600980546001600160a01b0319166001600160a01b038a16179055600a879055600e859055600d84905582516200017c90600c906020860190620002c8565b5081516200019290600b906020850190620002c8565b5060068054911515600160a01b0260ff60a01b1990921691909117905550620003dd9d5050505050505050505050505050565b600680546001600160a01b038381166001600160a01b0319831681179093556040519116919082907f8be0079c531659141344cd1fd0a4f28419497f9722a3daafe3b4186f6b6457e090600090a35050565b620002c673c89bd4e1632d3a43cb03aaad5262cbe4038bc5716001600160a01b03166338cc48316040518163ffffffff1660e01b815260040160206040518083038186803b1580156200026957600080fd5b505afa1580156200027e573d6000803e3d6000fd5b505050506040513d601f19601f82011682018060405250810190620002a491906200036e565b600280546001600160a01b0319166001600160a01b0392909216919091179055565b565b828054620002d690620003a0565b90600052602060002090601f016020900481019282620002fa576000855562000345565b82601f106200031557805160ff191683800117855562000345565b8280016001018555821562000345579182015b828111156200034557825182559160200191906001019062000328565b506200035392915062000357565b5090565b5b8082111562000353576000815560010162000358565b6000602082840312156200038157600080fd5b81516001600160a01b03811681146200039957600080fd5b9392505050565b600181811c90821680620003b557607f821691505b60208210811415620003d757634e487b7160e01b600052602260045260246000fd5b50919050565b6116b480620003ed6000396000f3fe6080604052600436106101175760003560e01c8063918c00b91161009a578063c5b37c2211610061578063c5b37c221461032a578063d233da0814610340578063ddca3f4314610356578063de0a217d1461036c578063f2fde38b146103aa57005b8063918c00b914610297578063a89ae4ba146102c8578063c043a254146102e8578063c0a5977f146102fe578063c2939d971461031457005b80636fb7cb57116100de5780636fb7cb571461020f578063715018a61461022f5780637e0b66d0146102445780638da5cb5b146102645780638dc654a21461028257005b8063185defc614610158578063313ce567146101955780634665e65a146101b957806351744bca146101cf57806369723be7146101ef57005b3661015657604080513381523460208201527f88a5966d370b9919b20f3e2c13ff65706f196a4e32cc2c12bf57088f88525874910160405180910390a1005b005b34801561016457600080fd5b50601054610178906001600160a01b031681565b6040516001600160a01b0390911681526020015b60405180910390f35b3480156101a157600080fd5b506101ab600d5481565b60405190815260200161018c565b3480156101c557600080fd5b506101ab60125481565b3480156101db57600080fd5b506101566101ea3660046111a1565b6103ca565b3480156101fb57600080fd5b506101ab61020a3660046111d9565b610455565b34801561021b57600080fd5b50600f54610178906001600160a01b031681565b34801561023b57600080fd5b50610156610667565b34801561025057600080fd5b5061015661025f3660046111a1565b61069d565b34801561027057600080fd5b506006546001600160a01b0316610178565b34801561028e57600080fd5b5061015661071f565b3480156102a357600080fd5b506006546102b890600160a01b900460ff1681565b604051901515815260200161018c565b3480156102d457600080fd5b50600954610178906001600160a01b031681565b3480156102f457600080fd5b506101ab60085481565b34801561030a57600080fd5b506101ab60075481565b34801561032057600080fd5b506101ab600a5481565b34801561033657600080fd5b506101ab60115481565b34801561034c57600080fd5b506101ab60135481565b34801561036257600080fd5b506101ab600e5481565b34801561037857600080fd5b5061039d60405180604001604052806005815260200164707269636560d81b81525081565b60405161018c91906112e2565b3480156103b657600080fd5b506101566103c53660046112f5565b6108d6565b60008281526005602052604090205482906001600160a01b0316331461040b5760405162461bcd60e51b81526004016104029061131e565b60405180910390fd5b60008181526005602052604080822080546001600160a01b03191690555182917f7cc135e0cebb02c3480ae5d74d377283180a2601f8f644edf7987b009316c63a91a25060085550565b600061045f611166565b600654600160a01b900460ff161561048d57600a5461048690306328ba25e560e11b610971565b90506104a5565b600a546104a290306307e0b66d60e41b610971565b90505b6105606040518060400160405280600381526020016219d95d60ea1b815250610558600c80546104d490611366565b80601f016020809104026020016040519081016040528092919081815260200182805461050090611366565b801561054d5780601f106105225761010080835404028352916020019161054d565b820191906000526020600020905b81548152906001019060200180831161053057829003601f168201915b505050505086610996565b8391906109c3565b61061b604051806040016040528060048152602001630e0c2e8d60e31b815250600b805461058d90611366565b80601f01602080910402602001604051908101604052809291908181526020018280546105b990611366565b80156106065780601f106105db57610100808354040283529160200191610606565b820191906000526020600020905b8154815290600101906020018083116105e957829003601f168201915b5050505050836109c39092919063ffffffff16565b60408051808201909152600581526474696d657360d81b6020820152600d546106459183916109e6565b600954600e54610660916001600160a01b0316908390610a04565b9392505050565b6006546001600160a01b031633146106915760405162461bcd60e51b81526004016104029061139b565b61069b6000610a23565b565b60008281526005602052604090205482906001600160a01b031633146106d55760405162461bcd60e51b81526004016104029061131e565b60008181526005602052604080822080546001600160a01b03191690555182917f7cc135e0cebb02c3480ae5d74d377283180a2601f8f644edf7987b009316c63a91a25060075550565b6006546001600160a01b031633146107495760405162461bcd60e51b81526004016104029061139b565b600061075d6002546001600160a01b031690565b6040516370a0823160e01b81523060048201529091506000906001600160a01b038316906370a082319060240160206040518083038186803b1580156107a257600080fd5b505afa1580156107b6573d6000803e3d6000fd5b505050506040513d601f19601f820116820180604052508101906107da91906113d0565b60405163a9059cbb60e01b8152336004820152602481018290529091506001600160a01b0383169063a9059cbb90604401602060405180830381600087803b15801561082557600080fd5b505af1158015610839573d6000803e3d6000fd5b505050506040513d601f19601f8201168201806040525081019061085d91906113e9565b6108995760405162461bcd60e51b815260206004820152600d60248201526c2bb4ba34323930bb9032b9391760991b6044820152606401610402565b60408051338152602081018390527fcb1436249a1dd8cf93362c28d79a4e20dc54398b6c49e30316e8396e72a584b0910160405180910390a15050565b6006546001600160a01b031633146109005760405162461bcd60e51b81526004016104029061139b565b6001600160a01b0381166109655760405162461bcd60e51b815260206004820152602660248201527f4f776e61626c653a206e6577206f776e657220697320746865207a65726f206160448201526564647265737360d01b6064820152608401610402565b61096e81610a23565b50565b610979611166565b610981611166565b61098d81868686610a75565b95945050505050565b606082826040516020016109ab92919061140b565b60405160208183030381529060405290505b92915050565b60808301516109d29083610ab2565b60808301516109e19082610ab2565b505050565b60808301516109f59083610ab2565b60808301516109e19082610ac9565b6000610a1b84848460016320214ca360e11b610b2d565b949350505050565b600680546001600160a01b038381166001600160a01b0319831681179093556040519116919082907f8be0079c531659141344cd1fd0a4f28419497f9722a3daafe3b4186f6b6457e090600090a35050565b610a7d611166565b610a8d8560800151610100610d39565b50509183526001600160a01b031660208301526001600160e01b031916604082015290565b610abf8260038351610d9e565b6109e18282610e72565b67ffffffffffffffff19811215610ae857610ae48282610e99565b5050565b67ffffffffffffffff811315610b0257610ae48282610edb565b60008112610b1657610ae482600083610d9e565b610ae4826001610b2884600019611450565b610d9e565b6004546040516bffffffffffffffffffffffff193060601b166020820152603481019190915260009060540160408051808303601f19018152918152815160209283012060045460608901526000818152600590935281832080546001600160a01b0319166001600160a01b038b16179055905190925082917fb5e6e01e79f91267dc17b4e6314d5d4d03593d2ceee0fbb452b750bd70ea5af991a2600082600080886000015189602001518a604001518b606001518a8d6080015160000151604051602401610c0498979695949392919061148f565b60408051601f198184030181529181526020820180516001600160e01b03166001600160e01b0319909416939093179092526002549151630200057560e51b81529092506001600160a01b0390911690634000aea090610c6c908a90899086906004016114f7565b602060405180830381600087803b158015610c8657600080fd5b505af1158015610c9a573d6000803e3d6000fd5b505050506040513d601f19601f82011682018060405250810190610cbe91906113e9565b610d165760405162461bcd60e51b815260206004820152602360248201527f756e61626c6520746f207472616e73666572416e6443616c6c20746f206f7261604482015262636c6560e81b6064820152608401610402565b600160046000828254610d29919061151e565b9091555091979650505050505050565b604080518082019091526060815260006020820152610d59602083611536565b15610d8157610d69602083611536565b610d74906020611558565b610d7e908361151e565b91505b506020828101829052604080518085526000815290920101905290565b60178111610dbf57610db98360e0600585901b168317610efe565b50505050565b60ff8111610de957610ddc836018611fe0600586901b1617610efe565b50610db983826001610f23565b61ffff8111610e1457610e07836019611fe0600586901b1617610efe565b50610db983826002610f23565b63ffffffff8111610e4157610e3483601a611fe0600586901b1617610efe565b50610db983826004610f23565b67ffffffffffffffff81116109e157610e6583601b611fe0600586901b1617610efe565b50610db983826008610f23565b60408051808201909152606081526000602082015261066083846000015151848551610f49565b610ea48260c3610efe565b50610ae482610eb583600019611450565b604051602001610ec791815260200190565b60405160208183030381529060405261104e565b610ee68260c2610efe565b50610ae48282604051602001610ec791815260200190565b604080518082019091526060815260006020820152610660838460000151518461105b565b604080518082019091526060815260006020820152610a1b8485600001515185856110b7565b6040805180820190915260608152600060208201528251821115610f6c57600080fd5b6020850151610f7b838661151e565b1115610fae57610fae85610f9e87602001518786610f99919061151e565b611138565b610fa990600261156f565b61114f565b600080865180518760208301019350808887011115610fcd5787860182525b505050602084015b6020841061100d5780518252610fec60208361151e565b9150610ff960208261151e565b9050611006602085611558565b9350610fd5565b6000600161101c866020611558565b61102890610100611672565b6110329190611558565b9151835183169219169190911790915250849050949350505050565b610abf8260028351610d9e565b60408051808201909152606081526000602082015283602001518310611090576110908485602001516002610fa9919061156f565b8351805160208583010184815350808514156110ad576001810182525b5093949350505050565b60408051808201909152606081526000602082015260208501516110db858461151e565b11156110ef576110ef85610f9e868561151e565b600060016110ff84610100611672565b6111099190611558565b905085518386820101858319825116178152508051848701111561112d5783860181525b509495945050505050565b6000818311156111495750816109bd565b50919050565b815161115b8383610d39565b50610db98382610e72565b6040805160a0810182526000808252602080830182905282840182905260608084018390528451808601909552845283015290608082015290565b600080604083850312156111b457600080fd5b50508035926020909101359150565b634e487b7160e01b600052604160045260246000fd5b6000602082840312156111eb57600080fd5b813567ffffffffffffffff8082111561120357600080fd5b818401915084601f83011261121757600080fd5b813581811115611229576112296111c3565b604051601f8201601f19908116603f01168101908382118183101715611251576112516111c3565b8160405282815287602084870101111561126a57600080fd5b826020860160208301376000928101602001929092525095945050505050565b60005b838110156112a557818101518382015260200161128d565b83811115610db95750506000910152565b600081518084526112ce81602086016020860161128a565b601f01601f19169290920160200192915050565b60208152600061066060208301846112b6565b60006020828403121561130757600080fd5b81356001600160a01b038116811461066057600080fd5b60208082526028908201527f536f75726365206d75737420626520746865206f7261636c65206f6620746865604082015267081c995c5d595cdd60c21b606082015260800190565b600181811c9082168061137a57607f821691505b6020821081141561114957634e487b7160e01b600052602260045260246000fd5b6020808252818101527f4f776e61626c653a2063616c6c6572206973206e6f7420746865206f776e6572604082015260600190565b6000602082840312156113e257600080fd5b5051919050565b6000602082840312156113fb57600080fd5b8151801515811461066057600080fd5b6000835161141d81846020880161128a565b83519083019061143181836020880161128a565b01949350505050565b634e487b7160e01b600052601160045260246000fd5b60008083128015600160ff1b85018412161561146e5761146e61143a565b6001600160ff1b03840183138116156114895761148961143a565b50500390565b6001600160a01b0389811682526020820189905260408201889052861660608201526001600160e01b03198516608082015260a0810184905260c0810183905261010060e082018190526000906114e8838201856112b6565b9b9a5050505050505050505050565b60018060a01b038416815282602082015260606040820152600061098d60608301846112b6565b600082198211156115315761153161143a565b500190565b60008261155357634e487b7160e01b600052601260045260246000fd5b500690565b60008282101561156a5761156a61143a565b500390565b60008160001904831182151516156115895761158961143a565b500290565b600181815b808511156115c95781600019048211156115af576115af61143a565b808516156115bc57918102915b93841c9390800290611593565b509250929050565b6000826115e0575060016109bd565b816115ed575060006109bd565b8160018114611603576002811461160d57611629565b60019150506109bd565b60ff84111561161e5761161e61143a565b50506001821b6109bd565b5060208310610133831016604e8410600b841016171561164c575081810a6109bd565b611656838361158e565b806000190482111561166a5761166a61143a565b029392505050565b600061066083836115d156fea26469706673582212207ba08e27e2776b9a91720e4ee207945626138f6e3fc2742df3562af8c29d44be64736f6c63430008090033687474703a2f2f76616c756174696f6e2d6170692e6865726f6b756170702e636f6d2f70726963652f6001600455600f80546001600160a01b03199081167356dd6586db0d08c6ce7b2f2805af28616e0824551782556010805490911673a36085f69e2889c224210f603d836748e7dc008817905567016345785d8a00006011557f3236343966633463613833633430313662666432643135373635353932626565601255606460135560c060405260808190526e3230ba30b9b2ba173230ba3097181760891b60a0908152620000b19160149190620002e7565b50348015620000bf57600080fd5b506013546040518060800160405280604f815260200162001f77604f9139604080516020810190915260008152601254600f546010546011548692869286926001926001600160a01b03908116928892911690878787876200012133620001e4565b6001600160a01b03861662000140576200013a62000236565b6200015c565b600280546001600160a01b0319166001600160a01b0388161790555b600980546001600160a01b0319166001600160a01b038a16179055600a879055600e859055600d84905582516200019b90600c906020860190620002e7565b508151620001b190600b906020850190620002e7565b5060068054911515600160a01b0260ff60a01b1990921691909117905550620003fc9d5050505050505050505050505050565b600680546001600160a01b038381166001600160a01b0319831681179093556040519116919082907f8be0079c531659141344cd1fd0a4f28419497f9722a3daafe3b4186f6b6457e090600090a35050565b620002e573c89bd4e1632d3a43cb03aaad5262cbe4038bc5716001600160a01b03166338cc48316040518163ffffffff1660e01b815260040160206040518083038186803b1580156200028857600080fd5b505afa1580156200029d573d6000803e3d6000fd5b505050506040513d601f19601f82011682018060405250810190620002c391906200038d565b600280546001600160a01b0319166001600160a01b0392909216919091179055565b565b828054620002f590620003bf565b90600052602060002090601f01602090048101928262000319576000855562000364565b82601f106200033457805160ff191683800117855562000364565b8280016001018555821562000364579182015b828111156200036457825182559160200191906001019062000347565b506200037292915062000376565b5090565b5b8082111562000372576000815560010162000377565b600060208284031215620003a057600080fd5b81516001600160a01b0381168114620003b857600080fd5b9392505050565b600181811c90821680620003d457607f821691505b60208210811415620003f657634e487b7160e01b600052602260045260246000fd5b50919050565b611b6b806200040c6000396000f3fe60806040526004361061012d5760003560e01c8063918c00b9116100a5578063c0a5977f1161006c578063c0a5977f1461036b578063c2939d9714610381578063c5b37c2214610397578063d233da08146103ad578063ddca3f43146103c3578063f2fde38b146103d957005b8063918c00b9146102cf578063a89ae4ba14610300578063afb0a7d714610320578063c043a25414610340578063c068e8b11461035657005b806369723be7116100f457806369723be7146102275780636fb7cb5714610247578063715018a6146102675780637e0b66d01461027c5780638da5cb5b1461029c5780638dc654a2146102ba57005b8063185defc61461016e5780631d5cd009146101ab578063313ce567146101cd5780634665e65a146101f157806351744bca1461020757005b3661016c57604080513381523460208201527f88a5966d370b9919b20f3e2c13ff65706f196a4e32cc2c12bf57088f88525874910160405180910390a1005b005b34801561017a57600080fd5b5060105461018e906001600160a01b031681565b6040516001600160a01b0390911681526020015b60405180910390f35b3480156101b757600080fd5b506101c06103f9565b6040516101a291906115d6565b3480156101d957600080fd5b506101e3600d5481565b6040519081526020016101a2565b3480156101fd57600080fd5b506101e360125481565b34801561021357600080fd5b5061016c6102223660046115e9565b610415565b34801561023357600080fd5b506101e3610242366004611621565b6104a0565b34801561025357600080fd5b50600f5461018e906001600160a01b031681565b34801561027357600080fd5b5061016c6106b2565b34801561028857600080fd5b5061016c6102973660046115e9565b6106e8565b3480156102a857600080fd5b506006546001600160a01b031661018e565b3480156102c657600080fd5b5061016c61076a565b3480156102db57600080fd5b506006546102f090600160a01b900460ff1681565b60405190151581526020016101a2565b34801561030c57600080fd5b5060095461018e906001600160a01b031681565b34801561032c57600080fd5b5061016c61033b3660046116d2565b610921565b34801561034c57600080fd5b506101e360085481565b34801561036257600080fd5b506101c06109d0565b34801561037757600080fd5b506101e360075481565b34801561038d57600080fd5b506101e3600a5481565b3480156103a357600080fd5b506101e360115481565b3480156103b957600080fd5b506101e360135481565b3480156103cf57600080fd5b506101e3600e5481565b3480156103e557600080fd5b5061016c6103f43660046116eb565b610a5e565b6040518060800160405280604f8152602001611ae7604f913981565b60008281526005602052604090205482906001600160a01b031633146104565760405162461bcd60e51b815260040161044d90611714565b60405180910390fd5b60008181526005602052604080822080546001600160a01b03191690555182917f7cc135e0cebb02c3480ae5d74d377283180a2601f8f644edf7987b009316c63a91a25060085550565b60006104aa6114aa565b600654600160a01b900460ff16156104d857600a546104d190306328ba25e560e11b610af6565b90506104f0565b600a546104ed90306307e0b66d60e41b610af6565b90505b6105ab6040518060400160405280600381526020016219d95d60ea1b8152506105a3600c805461051f9061175c565b80601f016020809104026020016040519081016040528092919081815260200182805461054b9061175c565b80156105985780601f1061056d57610100808354040283529160200191610598565b820191906000526020600020905b81548152906001019060200180831161057b57829003601f168201915b505050505086610b1b565b839190610b48565b610666604051806040016040528060048152602001630e0c2e8d60e31b815250600b80546105d89061175c565b80601f01602080910402602001604051908101604052809291908181526020018280546106049061175c565b80156106515780601f1061062657610100808354040283529160200191610651565b820191906000526020600020905b81548152906001019060200180831161063457829003601f168201915b505050505083610b489092919063ffffffff16565b60408051808201909152600581526474696d657360d81b6020820152600d54610690918391610b6b565b600954600e546106ab916001600160a01b0316908390610b89565b9392505050565b6006546001600160a01b031633146106dc5760405162461bcd60e51b815260040161044d90611791565b6106e66000610ba8565b565b60008281526005602052604090205482906001600160a01b031633146107205760405162461bcd60e51b815260040161044d90611714565b60008181526005602052604080822080546001600160a01b03191690555182917f7cc135e0cebb02c3480ae5d74d377283180a2601f8f644edf7987b009316c63a91a25060075550565b6006546001600160a01b031633146107945760405162461bcd60e51b815260040161044d90611791565b60006107a86002546001600160a01b031690565b6040516370a0823160e01b81523060048201529091506000906001600160a01b038316906370a082319060240160206040518083038186803b1580156107ed57600080fd5b505afa158015610801573d6000803e3d6000fd5b505050506040513d601f19601f8201168201806040525081019061082591906117c6565b60405163a9059cbb60e01b8152336004820152602481018290529091506001600160a01b0383169063a9059cbb90604401602060405180830381600087803b15801561087057600080fd5b505af1158015610884573d6000803e3d6000fd5b505050506040513d601f19601f820116820180604052508101906108a891906117df565b6108e45760405162461bcd60e51b815260206004820152600d60248201526c2bb4ba34323930bb9032b9391760991b604482015260640161044d565b60408051338152602081018390527fcb1436249a1dd8cf93362c28d79a4e20dc54398b6c49e30316e8396e72a584b0910160405180910390a15050565b6109cd6109c8601480546109349061175c565b80601f01602080910402602001604051908101604052809291908181526020018280546109609061175c565b80156109ad5780601f10610982576101008083540402835291602001916109ad565b820191906000526020600020905b81548152906001019060200180831161099057829003601f168201915b50505050506109c36109be85610bfa565b610c7d565b610b1b565b610da6565b50565b601480546109dd9061175c565b80601f0160208091040260200160405190810160405280929190818152602001828054610a099061175c565b8015610a565780601f10610a2b57610100808354040283529160200191610a56565b820191906000526020600020905b815481529060010190602001808311610a3957829003601f168201915b505050505081565b6006546001600160a01b03163314610a885760405162461bcd60e51b815260040161044d90611791565b6001600160a01b038116610aed5760405162461bcd60e51b815260206004820152602660248201527f4f776e61626c653a206e6577206f776e657220697320746865207a65726f206160448201526564647265737360d01b606482015260840161044d565b6109cd81610ba8565b610afe6114aa565b610b066114aa565b610b1281868686610dbd565b95945050505050565b60608282604051602001610b30929190611801565b60405160208183030381529060405290505b92915050565b6080830151610b579083610dfa565b6080830151610b669082610dfa565b505050565b6080830151610b7a9083610dfa565b6080830151610b669082610e11565b6000610ba084848460016320214ca360e11b610e71565b949350505050565b600680546001600160a01b038381166001600160a01b0319831681179093556040519116919082907f8be0079c531659141344cd1fd0a4f28419497f9722a3daafe3b4186f6b6457e090600090a35050565b600062375f008213610c0e57506001919050565b8162375f00128015610c235750625c49008213155b15610c3057506002919050565b81625c4900128015610c45575062af57808213155b15610c5257506003919050565b8162af5780128015610c685750630167e9808213155b15610c7557506004919050565b506005919050565b606081610ca15750506040805180820190915260018152600360fc1b602082015290565b8160005b8115610ccb5780610cb581611846565b9150610cc49050600a83611877565b9150610ca5565b60008167ffffffffffffffff811115610ce657610ce661160b565b6040519080825280601f01601f191660200182016040528015610d10576020820181803683370190505b509050815b8515610d9d57610d2660018261188b565b90506000610d35600a88611877565b610d4090600a6118a2565b610d4a908861188b565b610d559060306118c1565b905060008160f81b905080848481518110610d7257610d726118e6565b60200101906001600160f81b031916908160001a905350610d94600a89611877565b97505050610d15565b50949350505050565b8051610db990600b9060208401906114e5565b5050565b610dc56114aa565b610dd5856080015161010061107d565b50509183526001600160a01b031660208301526001600160e01b031916604082015290565b610e0782600383516110e2565b610b6682826111b6565b67ffffffffffffffff19811215610e2c57610db982826111dd565b67ffffffffffffffff811315610e4657610db9828261121f565b60008112610e5a57610db9826000836110e2565b610db9826001610e6c846000196118fc565b6110e2565b6004546040516bffffffffffffffffffffffff193060601b166020820152603481019190915260009060540160408051808303601f19018152918152815160209283012060045460608901526000818152600590935281832080546001600160a01b0319166001600160a01b038b16179055905190925082917fb5e6e01e79f91267dc17b4e6314d5d4d03593d2ceee0fbb452b750bd70ea5af991a2600082600080886000015189602001518a604001518b606001518a8d6080015160000151604051602401610f4898979695949392919061193b565b60408051601f198184030181529181526020820180516001600160e01b03166001600160e01b0319909416939093179092526002549151630200057560e51b81529092506001600160a01b0390911690634000aea090610fb0908a90899086906004016119a3565b602060405180830381600087803b158015610fca57600080fd5b505af1158015610fde573d6000803e3d6000fd5b505050506040513d601f19601f8201168201806040525081019061100291906117df565b61105a5760405162461bcd60e51b815260206004820152602360248201527f756e61626c6520746f207472616e73666572416e6443616c6c20746f206f7261604482015262636c6560e81b606482015260840161044d565b60016004600082825461106d91906119ca565b9091555091979650505050505050565b60408051808201909152606081526000602082015261109d6020836119e2565b156110c5576110ad6020836119e2565b6110b890602061188b565b6110c290836119ca565b91505b506020828101829052604080518085526000815290920101905290565b60178111611103576110fd8360e0600585901b168317611242565b50505050565b60ff811161112d57611120836018611fe0600586901b1617611242565b506110fd83826001611267565b61ffff81116111585761114b836019611fe0600586901b1617611242565b506110fd83826002611267565b63ffffffff81116111855761117883601a611fe0600586901b1617611242565b506110fd83826004611267565b67ffffffffffffffff8111610b66576111a983601b611fe0600586901b1617611242565b506110fd83826008611267565b6040805180820190915260608152600060208201526106ab8384600001515184855161128d565b6111e88260c3611242565b50610db9826111f9836000196118fc565b60405160200161120b91815260200190565b604051602081830303815290604052611392565b61122a8260c2611242565b50610db9828260405160200161120b91815260200190565b6040805180820190915260608152600060208201526106ab838460000151518461139f565b604080518082019091526060815260006020820152610ba08485600001515185856113fb565b60408051808201909152606081526000602082015282518211156112b057600080fd5b60208501516112bf83866119ca565b11156112f2576112f2856112e2876020015187866112dd91906119ca565b61147c565b6112ed9060026118a2565b611493565b6000808651805187602083010193508088870111156113115787860182525b505050602084015b6020841061135157805182526113306020836119ca565b915061133d6020826119ca565b905061134a60208561188b565b9350611319565b6000600161136086602061188b565b61136c90610100611ada565b611376919061188b565b9151835183169219169190911790915250849050949350505050565b610e0782600283516110e2565b604080518082019091526060815260006020820152836020015183106113d4576113d484856020015160026112ed91906118a2565b8351805160208583010184815350808514156113f1576001810182525b5093949350505050565b604080518082019091526060815260006020820152602085015161141f85846119ca565b111561143357611433856112e286856119ca565b6000600161144384610100611ada565b61144d919061188b565b90508551838682010185831982511617815250805184870111156114715783860181525b509495945050505050565b60008183111561148d575081610b42565b50919050565b815161149f838361107d565b506110fd83826111b6565b6040805160a0810182526000808252602080830182905282840182905260608084018390528451808601909552845283015290608082015290565b8280546114f19061175c565b90600052602060002090601f0160209004810192826115135760008555611559565b82601f1061152c57805160ff1916838001178555611559565b82800160010185558215611559579182015b8281111561155957825182559160200191906001019061153e565b50611565929150611569565b5090565b5b80821115611565576000815560010161156a565b60005b83811015611599578181015183820152602001611581565b838111156110fd5750506000910152565b600081518084526115c281602086016020860161157e565b601f01601f19169290920160200192915050565b6020815260006106ab60208301846115aa565b600080604083850312156115fc57600080fd5b50508035926020909101359150565b634e487b7160e01b600052604160045260246000fd5b60006020828403121561163357600080fd5b813567ffffffffffffffff8082111561164b57600080fd5b818401915084601f83011261165f57600080fd5b8135818111156116715761167161160b565b604051601f8201601f19908116603f011681019083821181831017156116995761169961160b565b816040528281528760208487010111156116b257600080fd5b826020860160208301376000928101602001929092525095945050505050565b6000602082840312156116e457600080fd5b5035919050565b6000602082840312156116fd57600080fd5b81356001600160a01b03811681146106ab57600080fd5b60208082526028908201527f536f75726365206d75737420626520746865206f7261636c65206f6620746865604082015267081c995c5d595cdd60c21b606082015260800190565b600181811c9082168061177057607f821691505b6020821081141561148d57634e487b7160e01b600052602260045260246000fd5b6020808252818101527f4f776e61626c653a2063616c6c6572206973206e6f7420746865206f776e6572604082015260600190565b6000602082840312156117d857600080fd5b5051919050565b6000602082840312156117f157600080fd5b815180151581146106ab57600080fd5b6000835161181381846020880161157e565b83519083019061182781836020880161157e565b01949350505050565b634e487b7160e01b600052601160045260246000fd5b600060001982141561185a5761185a611830565b5060010190565b634e487b7160e01b600052601260045260246000fd5b60008261188657611886611861565b500490565b60008282101561189d5761189d611830565b500390565b60008160001904831182151516156118bc576118bc611830565b500290565b600060ff821660ff84168060ff038211156118de576118de611830565b019392505050565b634e487b7160e01b600052603260045260246000fd5b60008083128015600160ff1b85018412161561191a5761191a611830565b6001600160ff1b038401831381161561193557611935611830565b50500390565b6001600160a01b0389811682526020820189905260408201889052861660608201526001600160e01b03198516608082015260a0810184905260c0810183905261010060e08201819052600090611994838201856115aa565b9b9a5050505050505050505050565b60018060a01b0384168152826020820152606060408201526000610b1260608301846115aa565b600082198211156119dd576119dd611830565b500190565b6000826119f1576119f1611861565b500690565b600181815b80851115611a31578160001904821115611a1757611a17611830565b80851615611a2457918102915b93841c93908002906119fb565b509250929050565b600082611a4857506001610b42565b81611a5557506000610b42565b8160018114611a6b5760028114611a7557611a91565b6001915050610b42565b60ff841115611a8657611a86611830565b50506001821b610b42565b5060208310610133831016604e8410600b8410161715611ab4575081810a610b42565b611abe83836119f6565b8060001904821115611ad257611ad2611830565b029392505050565b60006106ab8383611a3956fe68747470733a2f2f7777772e7175616e646c2e636f6d2f6170692f76332f64617461736574732f555354524541535552592f42494c4c52415445532e6a736f6e3f6170695f6b65793d4d595f4b4559a2646970667358221220d9a16fcc56b95e3bef24a9ec7cdbdc1662741e273e88e36f3518b00b57bff5ec64736f6c6343000809003368747470733a2f2f7777772e7175616e646c2e636f6d2f6170692f76332f64617461736574732f555354524541535552592f42494c4c52415445532e6a736f6e3f6170695f6b65793d4d595f4b4559",
  "immutableReferences": {},
  "source": "// SPDX-License-Identifier: UNLICENSED\r\npragma solidity ^0.8.6;\r\n\r\nimport \"../utils/DateTimeLibrary.sol\";\r\nimport \"./ForwardContract.sol\";\r\nimport \"../oracles/link-pool-oracles/LinkPoolValuationOracle.sol\";\r\nimport \"../oracles/link-pool-oracles/USDRFROracle.sol\";\r\nimport \"./interfaces/IForwardFactory.sol\";\r\n\r\ncontract ForwardFatory is IForwardFactory{\r\n    address[] public forwardContracts;\r\n    address payable valuationOracleAddres = payable(address(new LinkPoolValuationOracle()));\r\n    address payable usdRiskFreeRateOracleAddress = payable(address(new USDRFROracle()));\r\n\r\n    /// @notice Create forward contract.\r\n    /// @param name Name of forward.\r\n    /// @param symbol Symbol of forward\r\n    /// @param sizeOfContract size of contract to be created\r\n    /// @param expirationDate Date of expiration of contract\r\n    /// @param underlyingApiURL URL of underlying asset\r\n    /// @param underlyingApiPath JSON path to underlying asset's price.\r\n    /// @param underlyingDecimalScale Decimal scale\r\n    /// @return forwardContractAddress_ Address of forward contract.\r\n    function createForwardContract(\r\n        string memory name, \r\n        bytes32 symbol,\r\n        uint256 sizeOfContract,\r\n        uint256 expirationDate,\r\n        string memory underlyingApiURL,\r\n        string memory underlyingApiPath,\r\n        int256 underlyingDecimalScale\r\n        ) \r\n        external override returns (address forwardContractAddress_) {\r\n            require(bytes(underlyingApiURL).length != 0, \"url empty\");\r\n            require(bytes(underlyingApiPath).length != 0, \"url empty\");\r\n            require(underlyingDecimalScale != 0, \"decimal zero\");\r\n            require(sizeOfContract > 0, \"contract size zero\");\r\n            require(DateTimeLibrary.diffSeconds(block.timestamp, expirationDate) > 0);\r\n            forwardContractAddress_ = address(new ForwardContract(\r\n                name, \r\n                symbol, \r\n                sizeOfContract, \r\n                expirationDate,\r\n                underlyingApiURL,\r\n                underlyingApiPath,\r\n                underlyingDecimalScale,\r\n                valuationOracleAddres,\r\n                usdRiskFreeRateOracleAddress));\r\n            require(keccak256(\r\n                abi.encodePacked(ForwardContract(forwardContractAddress_).getContractState()))\r\n                 == keccak256(abi.encodePacked(\"Created\")), \"contract not created\");\r\n            forwardContracts.push(forwardContractAddress_);\r\n            //transfer ownership to be able to withdraw link into contract\r\n            LinkPoolValuationOracle(valuationOracleAddres).transferOwnership(forwardContractAddress_);\r\n            USDRFROracle(usdRiskFreeRateOracleAddress).transferOwnership(forwardContractAddress_);\r\n            emit ForwardCreated(name, symbol);\r\n    }\r\n}\r\n",
  "sourcePath": "C:\\Users\\Tomi\\OneDrive - The University of Chicago\\Documents\\Securrency\\ForwardExchange\\contracts\\forward\\ForwardFactory.sol",
  "compiler": {
    "name": "solc",
    "version": "0.8.9+commit.e5eed63a.Emscripten.clang"
  },
  "schemaVersion": "3.4.3",
  "updatedAt": "2021-09-30T21:50:57.321Z",
  "devdoc": {
    "kind": "dev",
    "methods": {
      "createForwardContract(string,bytes32,uint256,uint256,string,string,int256)": {
        "params": {
          "expirationDate": "Date of expiration of contract",
          "name": "Name of forward.",
          "sizeOfContract": "size of contract to be created",
          "symbol": "Symbol of forward",
          "underlyingApiPath": "JSON path to underlying asset's price.",
          "underlyingApiURL": "URL of underlying asset",
          "underlyingDecimalScale": "Decimal scale"
        },
        "returns": {
          "forwardContractAddress_": "Address of forward contract."
        }
      }
    },
    "version": 1
  },
  "userdoc": {
    "kind": "user",
    "methods": {
      "createForwardContract(string,bytes32,uint256,uint256,string,string,int256)": {
        "notice": "Create forward contract."
      }
    },
    "version": 1
  }
}