{
  "contractName": "ForwardContractMock",
  "abi": [
    {
      "inputs": [],
      "stateMutability": "nonpayable",
      "type": "constructor"
    },
    {
      "anonymous": false,
      "inputs": [
        {
          "indexed": true,
          "internalType": "bytes32",
          "name": "id",
          "type": "bytes32"
        }
      ],
      "name": "ChainlinkCancelled",
      "type": "event"
    },
    {
      "anonymous": false,
      "inputs": [
        {
          "indexed": true,
          "internalType": "bytes32",
          "name": "id",
          "type": "bytes32"
        }
      ],
      "name": "ChainlinkFulfilled",
      "type": "event"
    },
    {
      "anonymous": false,
      "inputs": [
        {
          "indexed": true,
          "internalType": "bytes32",
          "name": "id",
          "type": "bytes32"
        }
      ],
      "name": "ChainlinkRequested",
      "type": "event"
    },
    {
      "anonymous": false,
      "inputs": [
        {
          "indexed": false,
          "internalType": "address",
          "name": "defaultingParty",
          "type": "address"
        },
        {
          "indexed": false,
          "internalType": "uint256",
          "name": "amountSillOwed",
          "type": "uint256"
        }
      ],
      "name": "Defaulted",
      "type": "event"
    },
    {
      "anonymous": false,
      "inputs": [
        {
          "indexed": false,
          "internalType": "uint256",
          "name": "amountWithdrawn",
          "type": "uint256"
        }
      ],
      "name": "LinkWithdrawn",
      "type": "event"
    },
    {
      "anonymous": false,
      "inputs": [
        {
          "indexed": false,
          "internalType": "int256",
          "name": "contractValueChange",
          "type": "int256"
        },
        {
          "indexed": false,
          "internalType": "uint256",
          "name": "shortOwedAmount",
          "type": "uint256"
        },
        {
          "indexed": false,
          "internalType": "uint256",
          "name": "longOwedAmount",
          "type": "uint256"
        }
      ],
      "name": "MarkedToMarket",
      "type": "event"
    },
    {
      "anonymous": false,
      "inputs": [
        {
          "indexed": true,
          "internalType": "address",
          "name": "previousOwner",
          "type": "address"
        },
        {
          "indexed": true,
          "internalType": "address",
          "name": "newOwner",
          "type": "address"
        }
      ],
      "name": "OwnershipTransferred",
      "type": "event"
    },
    {
      "anonymous": false,
      "inputs": [
        {
          "indexed": false,
          "internalType": "int256",
          "name": "profitAndLoss",
          "type": "int256"
        }
      ],
      "name": "SettledAtExpiration",
      "type": "event"
    },
    {
      "inputs": [],
      "name": "annualRiskFreeRate",
      "outputs": [
        {
          "internalType": "int256",
          "name": "",
          "type": "int256"
        }
      ],
      "stateMutability": "view",
      "type": "function",
      "constant": true
    },
    {
      "inputs": [],
      "name": "collateralWallet",
      "outputs": [
        {
          "internalType": "address",
          "name": "",
          "type": "address"
        }
      ],
      "stateMutability": "view",
      "type": "function",
      "constant": true
    },
    {
      "inputs": [
        {
          "internalType": "address",
          "name": "_defaultingParty",
          "type": "address"
        },
        {
          "internalType": "uint256",
          "name": "amountStillOwed",
          "type": "uint256"
        }
      ],
      "name": "defaultContract",
      "outputs": [],
      "stateMutability": "nonpayable",
      "type": "function"
    },
    {
      "inputs": [],
      "name": "expirationDate",
      "outputs": [
        {
          "internalType": "uint256",
          "name": "",
          "type": "uint256"
        }
      ],
      "stateMutability": "view",
      "type": "function",
      "constant": true
    },
    {
      "inputs": [],
      "name": "exposureMarginRate",
      "outputs": [
        {
          "internalType": "uint256",
          "name": "",
          "type": "uint256"
        }
      ],
      "stateMutability": "view",
      "type": "function",
      "constant": true
    },
    {
      "inputs": [],
      "name": "getContractState",
      "outputs": [
        {
          "internalType": "string",
          "name": "",
          "type": "string"
        }
      ],
      "stateMutability": "view",
      "type": "function",
      "constant": true
    },
    {
      "inputs": [],
      "name": "getLong",
      "outputs": [
        {
          "internalType": "address",
          "name": "",
          "type": "address"
        }
      ],
      "stateMutability": "view",
      "type": "function",
      "constant": true
    },
    {
      "inputs": [],
      "name": "getLongPersonalWallet",
      "outputs": [
        {
          "internalType": "address",
          "name": "",
          "type": "address"
        }
      ],
      "stateMutability": "view",
      "type": "function",
      "constant": true
    },
    {
      "inputs": [],
      "name": "getShort",
      "outputs": [
        {
          "internalType": "address",
          "name": "",
          "type": "address"
        }
      ],
      "stateMutability": "view",
      "type": "function",
      "constant": true
    },
    {
      "inputs": [],
      "name": "getShortPersonalWallet",
      "outputs": [
        {
          "internalType": "address",
          "name": "",
          "type": "address"
        }
      ],
      "stateMutability": "view",
      "type": "function",
      "constant": true
    },
    {
      "inputs": [],
      "name": "initialForwardPrice",
      "outputs": [
        {
          "internalType": "uint256",
          "name": "",
          "type": "uint256"
        }
      ],
      "stateMutability": "view",
      "type": "function",
      "constant": true
    },
    {
      "inputs": [
        {
          "internalType": "address",
          "name": "_long",
          "type": "address"
        },
        {
          "internalType": "address",
          "name": "_short",
          "type": "address"
        },
        {
          "internalType": "address",
          "name": "_collateralWallet",
          "type": "address"
        },
        {
          "internalType": "address",
          "name": "_longPersonalWallet",
          "type": "address"
        },
        {
          "internalType": "address",
          "name": "_shortPersonalWallet",
          "type": "address"
        },
        {
          "internalType": "uint256",
          "name": "_exposureMarginRate",
          "type": "uint256"
        },
        {
          "internalType": "uint256",
          "name": "_maintenanceMarginRate",
          "type": "uint256"
        },
        {
          "internalType": "address",
          "name": "_collateralTokenAddress",
          "type": "address"
        }
      ],
      "name": "initiateForward",
      "outputs": [
        {
          "internalType": "bool",
          "name": "initiated_",
          "type": "bool"
        }
      ],
      "stateMutability": "nonpayable",
      "type": "function"
    },
    {
      "inputs": [],
      "name": "maintenanceMarginRate",
      "outputs": [
        {
          "internalType": "uint256",
          "name": "",
          "type": "uint256"
        }
      ],
      "stateMutability": "view",
      "type": "function",
      "constant": true
    },
    {
      "inputs": [],
      "name": "markToMarket",
      "outputs": [],
      "stateMutability": "nonpayable",
      "type": "function"
    },
    {
      "inputs": [],
      "name": "name",
      "outputs": [
        {
          "internalType": "string",
          "name": "",
          "type": "string"
        }
      ],
      "stateMutability": "view",
      "type": "function",
      "constant": true
    },
    {
      "inputs": [],
      "name": "owner",
      "outputs": [
        {
          "internalType": "address",
          "name": "",
          "type": "address"
        }
      ],
      "stateMutability": "view",
      "type": "function",
      "constant": true
    },
    {
      "inputs": [],
      "name": "renounceOwnership",
      "outputs": [],
      "stateMutability": "nonpayable",
      "type": "function"
    },
    {
      "inputs": [],
      "name": "settleAtExpiration",
      "outputs": [],
      "stateMutability": "nonpayable",
      "type": "function"
    },
    {
      "inputs": [],
      "name": "sizeOfContract",
      "outputs": [
        {
          "internalType": "uint256",
          "name": "",
          "type": "uint256"
        }
      ],
      "stateMutability": "view",
      "type": "function",
      "constant": true
    },
    {
      "inputs": [],
      "name": "symbol",
      "outputs": [
        {
          "internalType": "bytes32",
          "name": "",
          "type": "bytes32"
        }
      ],
      "stateMutability": "view",
      "type": "function",
      "constant": true
    },
    {
      "inputs": [
        {
          "internalType": "address",
          "name": "newOwner",
          "type": "address"
        }
      ],
      "name": "transferOwnership",
      "outputs": [],
      "stateMutability": "nonpayable",
      "type": "function"
    },
    {
      "inputs": [],
      "name": "underlyingPrice",
      "outputs": [
        {
          "internalType": "uint256",
          "name": "",
          "type": "uint256"
        }
      ],
      "stateMutability": "view",
      "type": "function",
      "constant": true
    },
    {
      "inputs": [],
      "name": "withdrawLinkFromContract",
      "outputs": [],
      "stateMutability": "nonpayable",
      "type": "function"
    },
    {
      "inputs": [
        {
          "internalType": "address",
          "name": "shortWallet",
          "type": "address"
        },
        {
          "internalType": "address",
          "name": "longWallet",
          "type": "address"
        }
      ],
      "name": "setPersonalWallets",
      "outputs": [],
      "stateMutability": "nonpayable",
      "type": "function"
    }
  ],
  "bytecode": "0x608060405260016004553480156200001657600080fd5b506040518060400160405280600c81526020016b135bd8dac8119bdc9dd85c9960a21b8152506213519160ea1b6103e863674bf40e6040518060400160405280600c81526020016b11985ad9481054124815549360a21b8152506040518060400160405280600981526020016808c82968a5ca082a8960bb1b81525060647301be23585060835e02b77ef475b0cc51aa1e070980620000c4620000be6200019360201b60201c565b62000197565b8851620000d99060079060208c0190620001e9565b506008889055600a879055600f869055601880546001600160a01b038085166001600160a01b031992831617909255601a8054928416929091169190911790556040518390869086906200012d9062000278565b6200013b93929190620002ed565b604051809103906000f08015801562000158573d6000803e3d6000fd5b50601980546001600160a01b0319166001600160a01b039290921691909117905550506009805460ff19169055506200036395505050505050565b3390565b600680546001600160a01b038381166001600160a01b0319831681179093556040519116919082907f8be0079c531659141344cd1fd0a4f28419497f9722a3daafe3b4186f6b6457e090600090a35050565b828054620001f79062000326565b90600052602060002090601f0160209004810192826200021b576000855562000266565b82601f106200023657805160ff191683800117855562000266565b8280016001018555821562000266579182015b828111156200026657825182559160200191906001019062000249565b506200027492915062000286565b5090565b611b49806200218383390190565b5b8082111562000274576000815560010162000287565b6000815180845260005b81811015620002c557602081850181015186830182015201620002a7565b81811115620002d8576000602083870101525b50601f01601f19169290920160200192915050565b8381526060602082015260006200030860608301856200029d565b82810360408401526200031c81856200029d565b9695505050505050565b600181811c908216806200033b57607f821691505b602082108114156200035d57634e487b7160e01b600052602260045260246000fd5b50919050565b611e1080620003736000396000f3fe608060405234801561001057600080fd5b50600436106101585760003560e01c806378f8f7d4116100c3578063addcb0e61161007c578063addcb0e6146102a0578063b317f5ec146102a9578063c08611d1146102ba578063d7188dfb146102cd578063efa32d49146102e0578063f2fde38b146102e957600080fd5b806378f8f7d4146102645780637f4e48491461026c57806389f00b6d146102745780638da5cb5b1461027d5780638f6204871461028e57806395d89b411461029757600080fd5b80636a9c8266116101155780636a9c82661461020757806370a4cd341461020f578063715018a61461021757806371fbadcc1461021f57806374a99c541461024257806377588b7c1461025357600080fd5b806306fdde031461015d578063343d20881461017b578063381cf2e81461019257806347d3fa6d1461019b578063581f187e146101c0578063621e29db146101fe575b600080fd5b6101656102fc565b6040516101729190611a9e565b60405180910390f35b610184600d5481565b604051908152602001610172565b610184600e5481565b600b546001600160a01b03165b6040516001600160a01b039091168152602001610172565b6101fc6101ce366004611b0f565b601480546001600160a01b039384166001600160a01b03199182161790915560138054929093169116179055565b005b610184600a5481565b6101fc61038a565b6101fc6105b8565b6101fc6107d7565b61023261022d366004611b42565b61080d565b6040519015158152602001610172565b6014546001600160a01b03166101a8565b6013546001600160a01b03166101a8565b6101fc610c93565b6101656113a8565b61018460165481565b6006546001600160a01b03166101a8565b610184600f5481565b61018460085481565b61018460155481565b600c546001600160a01b03166101a8565b6101fc6102c8366004611bcb565b6114d8565b6011546101a8906001600160a01b031681565b61018460105481565b6101fc6102f7366004611bf5565b61195f565b6007805461030990611c10565b80601f016020809104026020016040519081016040528092919081815260200182805461033590611c10565b80156103825780601f1061035757610100808354040283529160200191610382565b820191906000526020600020905b81548152906001019060200180831161036557829003601f168201915b505050505081565b6006546001600160a01b031633146103bd5760405162461bcd60e51b81526004016103b490611c4b565b60405180910390fd5b600260095460ff1660038111156103d6576103d6611c80565b14806103f85750600360095460ff1660038111156103f6576103f6611c80565b145b6104305760405162461bcd60e51b815260206004820152600960248201526839ba30ba329032b93960b91b60448201526064016103b4565b60006104446002546001600160a01b031690565b6040516370a0823160e01b81523060048201529091506000906001600160a01b038316906370a082319060240160206040518083038186803b15801561048957600080fd5b505afa15801561049d573d6000803e3d6000fd5b505050506040513d601f19601f820116820180604052508101906104c19190611c96565b60405163a9059cbb60e01b8152336004820152602481018290529091506001600160a01b0383169063a9059cbb90604401602060405180830381600087803b15801561050c57600080fd5b505af1158015610520573d6000803e3d6000fd5b505050506040513d601f19601f820116820180604052508101906105449190611caf565b6105805760405162461bcd60e51b815260206004820152600d60248201526c2bb4ba34323930bb9032b9391760991b60448201526064016103b4565b6040518181527f1a75917c8965c2b9722b0cae30df645224fca070ce7c8edc2c3e208f6ae71b43906020015b60405180910390a15050565b600160095460ff1660038111156105d1576105d1611c80565b1461060c5760405162461bcd60e51b815260206004820152600b60248201526a77726f6e6720737461746560a81b60448201526064016103b4565b600061061a42600f546119fa565b1161062457600080fd5b6000600a54600d546106369190611ce7565b90506000600a5460175461064a9190611ce7565b905060006106588383611d06565b9050601960009054906101000a90046001600160a01b03166001600160a01b0316638dc654a26040518163ffffffff1660e01b8152600401600060405180830381600087803b1580156106aa57600080fd5b505af11580156106be573d6000803e3d6000fd5b50505050601860009054906101000a90046001600160a01b03166001600160a01b0316638dc654a26040518163ffffffff1660e01b8152600401600060405180830381600087803b15801561071257600080fd5b505af1158015610726573d6000803e3d6000fd5b50505050601860009054906101000a90046001600160a01b03166001600160a01b0316638dc654a26040518163ffffffff1660e01b8152600401600060405180830381600087803b15801561077a57600080fd5b505af115801561078e573d6000803e3d6000fd5b50506009805460ff1916600217905550506040518181527f86da3a1d3f4b013014acc467deb0db6e6d8cc958b6f998933ded255e44e69ac99060200160405180910390a1505050565b6006546001600160a01b031633146108015760405162461bcd60e51b81526004016103b490611c4b565b61080b6000611a4c565b565b60006001600160a01b0389166108355760405162461bcd60e51b81526004016103b490611d45565b6001600160a01b03881661085b5760405162461bcd60e51b81526004016103b490611d45565b876001600160a01b0316896001600160a01b031614156108aa5760405162461bcd60e51b815260206004820152600a60248201526973616d6520706172747960b01b60448201526064016103b4565b6001600160a01b0387166108d05760405162461bcd60e51b81526004016103b490611d45565b6001600160a01b0386166108f65760405162461bcd60e51b81526004016103b490611d45565b6001600160a01b03851661091c5760405162461bcd60e51b81526004016103b490611d45565b8261095c5760405162461bcd60e51b815260206004820152601060248201526f7a65726f206d61696e74656e616e636560801b60448201526064016103b4565b601860009054906101000a90046001600160a01b03166001600160a01b031663c0a5977f6040518163ffffffff1660e01b815260040160206040518083038186803b1580156109aa57600080fd5b505afa1580156109be573d6000803e3d6000fd5b505050506040513d601f19601f820116820180604052508101906109e29190611c96565b600d819055601755600b80546001600160a01b03199081166001600160a01b038c811691909117909255600c805482168b84161790556011805482168a84161790556013805482168984161790556014805482168884161790556015869055601685905560128054909116918416919091179055601a805461ffff60a81b191690556000601b819055612710610a788686611d68565b610a829190611d80565b600d54610a8f9190611ce7565b601254601354601154604051636eb1769f60e11b81526001600160a01b0392831660048201529082166024820152929350839291169063dd62ed3e9060440160206040518083038186803b158015610ae657600080fd5b505afa158015610afa573d6000803e3d6000fd5b505050506040513d601f19601f82011682018060405250810190610b1e9190611c96565b118015610bb65750601254601454601154604051636eb1769f60e11b81526001600160a01b03928316600482015290821660248201528392919091169063dd62ed3e9060440160206040518083038186803b158015610b7c57600080fd5b505afa158015610b90573d6000803e3d6000fd5b505050506040513d601f19601f82011682018060405250810190610bb49190611c96565b115b610bf25760405162461bcd60e51b815260206004820152600d60248201526c30b63637bbb0b731b29032b93960991b60448201526064016103b4565b60115460145460135460125460405163680e6ff960e11b81523060048201526001600160a01b0393841660248201529183166044830152821660648201526084810184905291169063d01cdff29060a401600060405180830381600087803b158015610c5d57600080fd5b505af1158015610c71573d6000803e3d6000fd5b50506009805460ff191660019081179091559c9b505050505050505050505050565b600160095460ff166003811115610cac57610cac611c80565b14610cf25760405162461bcd60e51b815260206004820152601660248201527510dbdb9d1c9858dd081b9bdd081a5b9a5d1a585d195960521b60448201526064016103b4565b6000610d0042600f546119fa565b11610d0a57600080fd5b61012c610d19601c54426119fa565b11610d575760405162461bcd60e51b815260206004820152600e60248201526d36ba37b69032b0b9363c9032b93960911b60448201526064016103b4565b601b5415610f1657601a54600160a81b900460ff1615610e2a57601154601b546040516361415e0760e11b81526000926001600160a01b03169163c282bc0e91610da991309160019190600401611da2565b602060405180830381600087803b158015610dc357600080fd5b505af1158015610dd7573d6000803e3d6000fd5b505050506040513d601f19601f82011682018060405250810190610dfb9190611c96565b90508015610e1e57600c54610e19906001600160a01b0316826114d8565b610e24565b6000601b555b50610f16565b601a54600160b01b900460ff1615610ee357601154601b546040516361415e0760e11b81526000926001600160a01b03169163c282bc0e91610e73913091869190600401611da2565b602060405180830381600087803b158015610e8d57600080fd5b505af1158015610ea1573d6000803e3d6000fd5b505050506040513d601f19601f82011682018060405250810190610ec59190611c96565b90508015610e1e57600b54610e19906001600160a01b0316826114d8565b60405162461bcd60e51b815260206004820152600860248201526736aa37a69032b93960c11b60448201526064016103b4565b6018546040805163c0a5977f60e01b815290516000926001600160a01b03169163c0a5977f916004808301926020929190829003018186803b158015610f5b57600080fd5b505afa158015610f6f573d6000803e3d6000fd5b505050506040513d601f19601f82011682018060405250810190610f939190611c96565b90506000600a5482610fa59190611ce7565b90506000600a54601754610fb99190611ce7565b90506000610fc78284611d06565b90506000612710601654610fdb9190611d80565b610fe59085611ce7565b601154604051632825159960e11b81523060048201526024810185905291925060009182916001600160a01b03169063504a2b3290604401602060405180830381600087803b15801561103757600080fd5b505af115801561104b573d6000803e3d6000fd5b505050506040513d601f19601f8201168201806040525081019061106f9190611c96565b601b5560115460405163a082256560e01b815230600482015284916001600160a01b03169063a08225659060240160206040518083038186803b1580156110b557600080fd5b505afa1580156110c9573d6000803e3d6000fd5b505050506040513d601f19601f820116820180604052508101906110ed9190611c96565b10156111cf57601a54600160a81b900460ff161561112357600c54601b5461111e916001600160a01b0316906114d8565b6111dd565b601b5460115460405163a082256560e01b81523060048201526001600160a01b039091169063a08225659060240160206040518083038186803b15801561116957600080fd5b505afa15801561117d573d6000803e3d6000fd5b505050506040513d601f19601f820116820180604052508101906111a19190611c96565b6111ab9085611dc3565b6111b59190611d68565b601a805460ff60a81b1916600160a81b17905591506111dd565b601a805460ff60a81b191690555b6011546040516378cfad8560e01b815230600482015284916001600160a01b0316906378cfad859060240160206040518083038186803b15801561122057600080fd5b505afa158015611234573d6000803e3d6000fd5b505050506040513d601f19601f820116820180604052508101906112589190611c96565b101561134b57601a54600160b01b900460ff161561129f57601a54600160a81b900460ff1661129a57600b54601b5461129a916001600160a01b0316906114d8565b611359565b601b546011546040516378cfad8560e01b81523060048201526001600160a01b03909116906378cfad859060240160206040518083038186803b1580156112e557600080fd5b505afa1580156112f9573d6000803e3d6000fd5b505050506040513d601f19601f8201168201806040525081019061131d9190611c96565b6113279085611dc3565b6113319190611d68565b601a805460ff60b01b1916600160b01b1790559050611359565b601a805460ff60b01b191690555b601787905560408051858152602081018490529081018290527f7e947d3fa7566428c36ccacbe4b58a26793422c426378a4918899c3e95e06c829060600160405180910390a150505050505050565b6060600060095460ff1660038111156113c3576113c3611c80565b14156113eb575060408051808201909152600781526610dc99585d195960ca1b602082015290565b600160095460ff16600381111561140457611404611c80565b141561142e5750604080518082019091526009815268125b9a5d1a585d195960ba1b602082015290565b600260095460ff16600381111561144757611447611c80565b141561146f575060408051808201909152600781526614d95d1d1b195960ca1b602082015290565b600360095460ff16600381111561148857611488611c80565b14156114b25750604080518082019091526009815268111959985d5b1d195960ba1b602082015290565b5060408051808201909152600b81526a39ba30ba329032b93937b960a91b602082015290565b600c546001600160a01b03838116911614806115015750600b546001600160a01b038381169116145b6115395760405162461bcd60e51b81526020600482015260096024820152683830b93a3c9032b93960b91b60448201526064016103b4565b600160095460ff16600381111561155257611552611c80565b1461158b5760405162461bcd60e51b815260206004820152600960248201526839ba30ba329032b93960b91b60448201526064016103b4565b600061159942600f546119fa565b116115a357600080fd5b600c546001600160a01b03838116911614156116cc5760115460405163a082256560e01b81523060048201526000916001600160a01b03169063a08225659060240160206040518083038186803b1580156115fd57600080fd5b505afa158015611611573d6000803e3d6000fd5b505050506040513d601f19601f820116820180604052508101906116359190611c96565b905080156116c6576011546040516361415e0760e11b81526001600160a01b039091169063c282bc0e906116729030906001908690600401611da2565b602060405180830381600087803b15801561168c57600080fd5b505af11580156116a0573d6000803e3d6000fd5b505050506040513d601f19601f820116820180604052508101906116c49190611c96565b505b506117db565b6011546040516378cfad8560e01b81523060048201526000916001600160a01b0316906378cfad859060240160206040518083038186803b15801561171057600080fd5b505afa158015611724573d6000803e3d6000fd5b505050506040513d601f19601f820116820180604052508101906117489190611c96565b905080156117d9576011546040516361415e0760e11b81526001600160a01b039091169063c282bc0e906117859030906000908690600401611da2565b602060405180830381600087803b15801561179f57600080fd5b505af11580156117b3573d6000803e3d6000fd5b505050506040513d601f19601f820116820180604052508101906117d79190611c96565b505b505b601960009054906101000a90046001600160a01b03166001600160a01b0316638dc654a26040518163ffffffff1660e01b8152600401600060405180830381600087803b15801561182b57600080fd5b505af115801561183f573d6000803e3d6000fd5b50505050601860009054906101000a90046001600160a01b03166001600160a01b0316638dc654a26040518163ffffffff1660e01b8152600401600060405180830381600087803b15801561189357600080fd5b505af11580156118a7573d6000803e3d6000fd5b50505050601860009054906101000a90046001600160a01b03166001600160a01b0316638dc654a26040518163ffffffff1660e01b8152600401600060405180830381600087803b1580156118fb57600080fd5b505af115801561190f573d6000803e3d6000fd5b50506009805460ff191660031790555050604080516001600160a01b0384168152602081018390527f689adb72648bbd7c2f367f4bc87930faa9f84d5271951d9d1e693372bd8bdbdd91016105ac565b6006546001600160a01b031633146119895760405162461bcd60e51b81526004016103b490611c4b565b6001600160a01b0381166119ee5760405162461bcd60e51b815260206004820152602660248201527f4f776e61626c653a206e6577206f776e657220697320746865207a65726f206160448201526564647265737360d01b60648201526084016103b4565b6119f781611a4c565b50565b600081831115611a3b5760405162461bcd60e51b815260206004820152600c60248201526b3a34b6b2b234b3331032b93960a11b60448201526064016103b4565b611a458383611dc3565b9392505050565b600680546001600160a01b038381166001600160a01b0319831681179093556040519116919082907f8be0079c531659141344cd1fd0a4f28419497f9722a3daafe3b4186f6b6457e090600090a35050565b600060208083528351808285015260005b81811015611acb57858101830151858201604001528201611aaf565b81811115611add576000604083870101525b50601f01601f1916929092016040019392505050565b80356001600160a01b0381168114611b0a57600080fd5b919050565b60008060408385031215611b2257600080fd5b611b2b83611af3565b9150611b3960208401611af3565b90509250929050565b600080600080600080600080610100898b031215611b5f57600080fd5b611b6889611af3565b9750611b7660208a01611af3565b9650611b8460408a01611af3565b9550611b9260608a01611af3565b9450611ba060808a01611af3565b935060a0890135925060c08901359150611bbc60e08a01611af3565b90509295985092959890939650565b60008060408385031215611bde57600080fd5b611be783611af3565b946020939093013593505050565b600060208284031215611c0757600080fd5b611a4582611af3565b600181811c90821680611c2457607f821691505b60208210811415611c4557634e487b7160e01b600052602260045260246000fd5b50919050565b6020808252818101527f4f776e61626c653a2063616c6c6572206973206e6f7420746865206f776e6572604082015260600190565b634e487b7160e01b600052602160045260246000fd5b600060208284031215611ca857600080fd5b5051919050565b600060208284031215611cc157600080fd5b81518015158114611a4557600080fd5b634e487b7160e01b600052601160045260246000fd5b6000816000190483118215151615611d0157611d01611cd1565b500290565b60008083128015600160ff1b850184121615611d2457611d24611cd1565b6001600160ff1b0384018313811615611d3f57611d3f611cd1565b50500390565b60208082526009908201526830206164647265737360b81b604082015260600190565b60008219821115611d7b57611d7b611cd1565b500190565b600082611d9d57634e487b7160e01b600052601260045260246000fd5b500490565b6001600160a01b039390931683529015156020830152604082015260600190565b600082821015611dd557611dd5611cd1565b50039056fea2646970667358221220e0fbf48f8bbff4b6f5a8739bc0607b5d9b31c802bc178b81ba3d02d9d5d4eb4564736f6c6343000809003360806040526001600455600f80546001600160a01b03199081167356dd6586db0d08c6ce7b2f2805af28616e082455179091556010805490911673a36085f69e2889c224210f603d836748e7dc008817905567016345785d8a00006011557f62363630326431346534373334633439613565316365313964343561343633326012553480156200008e57600080fd5b5060405162001b4938038062001b49833981016040819052620000b1916200041f565b601254600f546010546011548692869286926000926001600160a01b0390811692889291169087878787620000e633620001a9565b6001600160a01b0386166200010557620000ff620001fb565b62000121565b600280546001600160a01b0319166001600160a01b0388161790555b600980546001600160a01b0319166001600160a01b038a16179055600a879055600e859055600d84905582516200016090600c906020860190620002ac565b5081516200017690600b906020850190620002ac565b5060068054911515600160a01b0260ff60a01b1990921691909117905550620005029d5050505050505050505050505050565b600680546001600160a01b038381166001600160a01b0319831681179093556040519116919082907f8be0079c531659141344cd1fd0a4f28419497f9722a3daafe3b4186f6b6457e090600090a35050565b620002aa73c89bd4e1632d3a43cb03aaad5262cbe4038bc5716001600160a01b03166338cc48316040518163ffffffff1660e01b815260040160206040518083038186803b1580156200024d57600080fd5b505afa15801562000262573d6000803e3d6000fd5b505050506040513d601f19601f8201168201806040525081019062000288919062000493565b600280546001600160a01b0319166001600160a01b0392909216919091179055565b565b828054620002ba90620004c5565b90600052602060002090601f016020900481019282620002de576000855562000329565b82601f10620002f957805160ff191683800117855562000329565b8280016001018555821562000329579182015b82811115620003295782518255916020019190600101906200030c565b50620003379291506200033b565b5090565b5b808211156200033757600081556001016200033c565b634e487b7160e01b600052604160045260246000fd5b600082601f8301126200037a57600080fd5b81516001600160401b038082111562000397576200039762000352565b604051601f8301601f19908116603f01168101908282118183101715620003c257620003c262000352565b81604052838152602092508683858801011115620003df57600080fd5b600091505b83821015620004035785820183015181830184015290820190620003e4565b83821115620004155760008385830101525b9695505050505050565b6000806000606084860312156200043557600080fd5b835160208501519093506001600160401b03808211156200045557600080fd5b620004638783880162000368565b935060408601519150808211156200047a57600080fd5b50620004898682870162000368565b9150509250925092565b600060208284031215620004a657600080fd5b81516001600160a01b0381168114620004be57600080fd5b9392505050565b600181811c90821680620004da57607f821691505b60208210811415620004fc57634e487b7160e01b600052602260045260246000fd5b50919050565b61163780620005126000396000f3fe6080604052600436106101015760003560e01c80638dc654a21161008f578063c0a5977f11610061578063c0a5977f146102e8578063c2939d97146102fe578063c5b37c2214610314578063ddca3f431461032a578063f2fde38b1461034057005b80638dc654a21461026c578063918c00b914610281578063a89ae4ba146102b2578063c043a254146102d257005b806369723be7116100d357806369723be7146101d95780636fb7cb57146101f9578063715018a6146102195780637e0b66d01461022e5780638da5cb5b1461024e57005b8063185defc614610142578063313ce5671461017f5780634665e65a146101a357806351744bca146101b957005b3661014057604080513381523460208201527f88a5966d370b9919b20f3e2c13ff65706f196a4e32cc2c12bf57088f88525874910160405180910390a1005b005b34801561014e57600080fd5b50601054610162906001600160a01b031681565b6040516001600160a01b0390911681526020015b60405180910390f35b34801561018b57600080fd5b50610195600d5481565b604051908152602001610176565b3480156101af57600080fd5b5061019560125481565b3480156101c557600080fd5b506101406101d4366004611137565b610360565b3480156101e557600080fd5b506101956101f436600461116f565b6103eb565b34801561020557600080fd5b50600f54610162906001600160a01b031681565b34801561022557600080fd5b506101406105fd565b34801561023a57600080fd5b50610140610249366004611137565b610633565b34801561025a57600080fd5b506006546001600160a01b0316610162565b34801561027857600080fd5b506101406106b5565b34801561028d57600080fd5b506006546102a290600160a01b900460ff1681565b6040519015158152602001610176565b3480156102be57600080fd5b50600954610162906001600160a01b031681565b3480156102de57600080fd5b5061019560085481565b3480156102f457600080fd5b5061019560075481565b34801561030a57600080fd5b50610195600a5481565b34801561032057600080fd5b5061019560115481565b34801561033657600080fd5b50610195600e5481565b34801561034c57600080fd5b5061014061035b366004611220565b61086c565b60008281526005602052604090205482906001600160a01b031633146103a15760405162461bcd60e51b815260040161039890611249565b60405180910390fd5b60008181526005602052604080822080546001600160a01b03191690555182917f7cc135e0cebb02c3480ae5d74d377283180a2601f8f644edf7987b009316c63a91a25060085550565b60006103f56110fc565b600654600160a01b900460ff161561042357600a5461041c90306328ba25e560e11b610907565b905061043b565b600a5461043890306307e0b66d60e41b610907565b90505b6104f66040518060400160405280600381526020016219d95d60ea1b8152506104ee600c805461046a90611291565b80601f016020809104026020016040519081016040528092919081815260200182805461049690611291565b80156104e35780601f106104b8576101008083540402835291602001916104e3565b820191906000526020600020905b8154815290600101906020018083116104c657829003601f168201915b50505050508661092c565b839190610959565b6105b1604051806040016040528060048152602001630e0c2e8d60e31b815250600b805461052390611291565b80601f016020809104026020016040519081016040528092919081815260200182805461054f90611291565b801561059c5780601f106105715761010080835404028352916020019161059c565b820191906000526020600020905b81548152906001019060200180831161057f57829003601f168201915b5050505050836109599092919063ffffffff16565b60408051808201909152600581526474696d657360d81b6020820152600d546105db91839161097c565b600954600e546105f6916001600160a01b031690839061099a565b9392505050565b6006546001600160a01b031633146106275760405162461bcd60e51b8152600401610398906112c6565b61063160006109b9565b565b60008281526005602052604090205482906001600160a01b0316331461066b5760405162461bcd60e51b815260040161039890611249565b60008181526005602052604080822080546001600160a01b03191690555182917f7cc135e0cebb02c3480ae5d74d377283180a2601f8f644edf7987b009316c63a91a25060075550565b6006546001600160a01b031633146106df5760405162461bcd60e51b8152600401610398906112c6565b60006106f36002546001600160a01b031690565b6040516370a0823160e01b81523060048201529091506000906001600160a01b038316906370a082319060240160206040518083038186803b15801561073857600080fd5b505afa15801561074c573d6000803e3d6000fd5b505050506040513d601f19601f8201168201806040525081019061077091906112fb565b60405163a9059cbb60e01b8152336004820152602481018290529091506001600160a01b0383169063a9059cbb90604401602060405180830381600087803b1580156107bb57600080fd5b505af11580156107cf573d6000803e3d6000fd5b505050506040513d601f19601f820116820180604052508101906107f39190611314565b61082f5760405162461bcd60e51b815260206004820152600d60248201526c2bb4ba34323930bb9032b9391760991b6044820152606401610398565b60408051338152602081018390527fcb1436249a1dd8cf93362c28d79a4e20dc54398b6c49e30316e8396e72a584b0910160405180910390a15050565b6006546001600160a01b031633146108965760405162461bcd60e51b8152600401610398906112c6565b6001600160a01b0381166108fb5760405162461bcd60e51b815260206004820152602660248201527f4f776e61626c653a206e6577206f776e657220697320746865207a65726f206160448201526564647265737360d01b6064820152608401610398565b610904816109b9565b50565b61090f6110fc565b6109176110fc565b61092381868686610a0b565b95945050505050565b60608282604051602001610941929190611362565b60405160208183030381529060405290505b92915050565b60808301516109689083610a48565b60808301516109779082610a48565b505050565b608083015161098b9083610a48565b60808301516109779082610a5f565b60006109b184848460016320214ca360e11b610ac3565b949350505050565b600680546001600160a01b038381166001600160a01b0319831681179093556040519116919082907f8be0079c531659141344cd1fd0a4f28419497f9722a3daafe3b4186f6b6457e090600090a35050565b610a136110fc565b610a238560800151610100610ccf565b50509183526001600160a01b031660208301526001600160e01b031916604082015290565b610a558260038351610d34565b6109778282610e08565b67ffffffffffffffff19811215610a7e57610a7a8282610e2f565b5050565b67ffffffffffffffff811315610a9857610a7a8282610e71565b60008112610aac57610a7a82600083610d34565b610a7a826001610abe846000196113a7565b610d34565b6004546040516bffffffffffffffffffffffff193060601b166020820152603481019190915260009060540160408051808303601f19018152918152815160209283012060045460608901526000818152600590935281832080546001600160a01b0319166001600160a01b038b16179055905190925082917fb5e6e01e79f91267dc17b4e6314d5d4d03593d2ceee0fbb452b750bd70ea5af991a2600082600080886000015189602001518a604001518b606001518a8d6080015160000151604051602401610b9a989796959493929190611412565b60408051601f198184030181529181526020820180516001600160e01b03166001600160e01b0319909416939093179092526002549151630200057560e51b81529092506001600160a01b0390911690634000aea090610c02908a908990869060040161147a565b602060405180830381600087803b158015610c1c57600080fd5b505af1158015610c30573d6000803e3d6000fd5b505050506040513d601f19601f82011682018060405250810190610c549190611314565b610cac5760405162461bcd60e51b815260206004820152602360248201527f756e61626c6520746f207472616e73666572416e6443616c6c20746f206f7261604482015262636c6560e81b6064820152608401610398565b600160046000828254610cbf91906114a1565b9091555091979650505050505050565b604080518082019091526060815260006020820152610cef6020836114b9565b15610d1757610cff6020836114b9565b610d0a9060206114db565b610d1490836114a1565b91505b506020828101829052604080518085526000815290920101905290565b60178111610d5557610d4f8360e0600585901b168317610e94565b50505050565b60ff8111610d7f57610d72836018611fe0600586901b1617610e94565b50610d4f83826001610eb9565b61ffff8111610daa57610d9d836019611fe0600586901b1617610e94565b50610d4f83826002610eb9565b63ffffffff8111610dd757610dca83601a611fe0600586901b1617610e94565b50610d4f83826004610eb9565b67ffffffffffffffff811161097757610dfb83601b611fe0600586901b1617610e94565b50610d4f83826008610eb9565b6040805180820190915260608152600060208201526105f683846000015151848551610edf565b610e3a8260c3610e94565b50610a7a82610e4b836000196113a7565b604051602001610e5d91815260200190565b604051602081830303815290604052610fe4565b610e7c8260c2610e94565b50610a7a8282604051602001610e5d91815260200190565b6040805180820190915260608152600060208201526105f68384600001515184610ff1565b6040805180820190915260608152600060208201526109b184856000015151858561104d565b6040805180820190915260608152600060208201528251821115610f0257600080fd5b6020850151610f1183866114a1565b1115610f4457610f4485610f3487602001518786610f2f91906114a1565b6110ce565b610f3f9060026114f2565b6110e5565b600080865180518760208301019350808887011115610f635787860182525b505050602084015b60208410610fa35780518252610f826020836114a1565b9150610f8f6020826114a1565b9050610f9c6020856114db565b9350610f6b565b60006001610fb28660206114db565b610fbe906101006115f5565b610fc891906114db565b9151835183169219169190911790915250849050949350505050565b610a558260028351610d34565b60408051808201909152606081526000602082015283602001518310611026576110268485602001516002610f3f91906114f2565b835180516020858301018481535080851415611043576001810182525b5093949350505050565b604080518082019091526060815260006020820152602085015161107185846114a1565b11156110855761108585610f3486856114a1565b60006001611095846101006115f5565b61109f91906114db565b90508551838682010185831982511617815250805184870111156110c35783860181525b509495945050505050565b6000818311156110df575081610953565b50919050565b81516110f18383610ccf565b50610d4f8382610e08565b6040805160a0810182526000808252602080830182905282840182905260608084018390528451808601909552845283015290608082015290565b6000806040838503121561114a57600080fd5b50508035926020909101359150565b634e487b7160e01b600052604160045260246000fd5b60006020828403121561118157600080fd5b813567ffffffffffffffff8082111561119957600080fd5b818401915084601f8301126111ad57600080fd5b8135818111156111bf576111bf611159565b604051601f8201601f19908116603f011681019083821181831017156111e7576111e7611159565b8160405282815287602084870101111561120057600080fd5b826020860160208301376000928101602001929092525095945050505050565b60006020828403121561123257600080fd5b81356001600160a01b03811681146105f657600080fd5b60208082526028908201527f536f75726365206d75737420626520746865206f7261636c65206f6620746865604082015267081c995c5d595cdd60c21b606082015260800190565b600181811c908216806112a557607f821691505b602082108114156110df57634e487b7160e01b600052602260045260246000fd5b6020808252818101527f4f776e61626c653a2063616c6c6572206973206e6f7420746865206f776e6572604082015260600190565b60006020828403121561130d57600080fd5b5051919050565b60006020828403121561132657600080fd5b815180151581146105f657600080fd5b60005b83811015611351578181015183820152602001611339565b83811115610d4f5750506000910152565b60008351611374818460208801611336565b835190830190611388818360208801611336565b01949350505050565b634e487b7160e01b600052601160045260246000fd5b60008083128015600160ff1b8501841216156113c5576113c5611391565b6001600160ff1b03840183138116156113e0576113e0611391565b50500390565b600081518084526113fe816020860160208601611336565b601f01601f19169290920160200192915050565b6001600160a01b0389811682526020820189905260408201889052861660608201526001600160e01b03198516608082015260a0810184905260c0810183905261010060e0820181905260009061146b838201856113e6565b9b9a5050505050505050505050565b60018060a01b038416815282602082015260606040820152600061092360608301846113e6565b600082198211156114b4576114b4611391565b500190565b6000826114d657634e487b7160e01b600052601260045260246000fd5b500690565b6000828210156114ed576114ed611391565b500390565b600081600019048311821515161561150c5761150c611391565b500290565b600181815b8085111561154c57816000190482111561153257611532611391565b8085161561153f57918102915b93841c9390800290611516565b509250929050565b60008261156357506001610953565b8161157057506000610953565b81600181146115865760028114611590576115ac565b6001915050610953565b60ff8411156115a1576115a1611391565b50506001821b610953565b5060208310610133831016604e8410600b84101617156115cf575081810a610953565b6115d98383611511565b80600019048211156115ed576115ed611391565b029392505050565b60006105f6838361155456fea264697066735822122056ddc1495355d05e55420dc9fa7adce30c9e20971bcca82c16a028598efa2e6764736f6c63430008090033",
  "immutableReferences": {},
  "source": "// SPDX-License-Identifier: UNLICENSED\r\npragma solidity ^0.8.6;\r\n\r\nimport \"../forward/ForwardContract.sol\";\r\n\r\ncontract ForwardContractMock is ForwardContract {\r\n\r\n    constructor() ForwardContract(\r\n        \"Mock Forward\",\r\n        \"MFD\",\r\n        1000,\r\n        1733030926,\r\n        \"Fake API URL\",\r\n        \"FAKE.PATH\",\r\n        100,\r\n        payable(0x01BE23585060835E02B77ef475b0Cc51aA1e0709),\r\n        payable(0x01BE23585060835E02B77ef475b0Cc51aA1e0709)\r\n    ) {}\r\n\r\n    //set short and long wallets\r\n    function setPersonalWallets(address shortWallet, address longWallet) public {\r\n        shortPersonalWallet = shortWallet;\r\n        longPersonalWallet = longWallet;\r\n    }\r\n}",
  "sourcePath": "C:\\Users\\Tomi\\OneDrive - The University of Chicago\\Documents\\Securrency\\ForwardExchange\\contracts\\mocks\\ForwardContractMock.sol",
  "compiler": {
    "name": "solc",
    "version": "0.8.9+commit.e5eed63a.Emscripten.clang"
  },
  "schemaVersion": "3.4.3",
  "updatedAt": "2021-09-30T21:51:06.845Z",
  "networkType": "ethereum",
  "devdoc": {
    "kind": "dev",
    "methods": {
      "defaultContract(address,uint256)": {
        "params": {
          "_defaultingParty": "Address of the defaulting party",
          "amountStillOwed": "Amount of collateral still owed by lsoing party after defaulting."
        }
      },
      "getContractState()": {
        "returns": {
          "_0": "Current contract state."
        }
      },
      "getLong()": {
        "returns": {
          "_0": "address of long party"
        }
      },
      "getLongPersonalWallet()": {
        "returns": {
          "_0": "address of long party personal wallet"
        }
      },
      "getShort()": {
        "returns": {
          "_0": "address of long party"
        }
      },
      "getShortPersonalWallet()": {
        "returns": {
          "_0": "address of short party personal wallet"
        }
      },
      "initiateForward(address,address,address,address,address,uint256,uint256,address)": {
        "params": {
          "_collateralTokenAddress": "Address of the ERC20 collateral token.",
          "_collateralWallet": "Address of the collateral wallet",
          "_exposureMarginRate": "Exposure margin rate.",
          "_long": "Long party",
          "_longPersonalWallet": "Address of the long party's personal wallet",
          "_maintenanceMarginRate": "Maintenance margin rate.",
          "_short": "Short party",
          "_shortPersonalWallet": "Address of the short party's personal wallet"
        }
      },
      "markToMarket()": {
        "details": "Collateral req. is checked and if party is unable to satisfy collateral requirement by next m-to-m then default."
      },
      "owner()": {
        "details": "Returns the address of the current owner."
      },
      "renounceOwnership()": {
        "details": "Leaves the contract without owner. It will not be possible to call `onlyOwner` functions anymore. Can only be called by the current owner. NOTE: Renouncing ownership will leave the contract without an owner, thereby removing any functionality that is only available to the owner."
      },
      "transferOwnership(address)": {
        "details": "Transfers ownership of the contract to a new account (`newOwner`). Can only be called by the current owner."
      }
    },
    "version": 1
  },
  "userdoc": {
    "kind": "user",
    "methods": {
      "defaultContract(address,uint256)": {
        "notice": "Defaults contract and transfers all collateral of defaulting party to toher party."
      },
      "getContractState()": {
        "notice": "Returns current contract state."
      },
      "getLong()": {
        "notice": "get long party"
      },
      "getLongPersonalWallet()": {
        "notice": "get personal wallet of long party"
      },
      "getShort()": {
        "notice": "get short party"
      },
      "getShortPersonalWallet()": {
        "notice": "get personal wallet of short party"
      },
      "initiateForward(address,address,address,address,address,uint256,uint256,address)": {
        "notice": "Initiate forward contract and send link to oracles."
      },
      "markToMarket()": {
        "notice": "Mark to market function that is called periodically to transfer gains/losses"
      },
      "settleAtExpiration()": {
        "notice": "Settle and close contract at expiry."
      },
      "withdrawLinkFromContract()": {
        "notice": "Withdraw link from forward contract callable by ForwardFactory contract"
      }
    },
    "version": 1
  }
}