{
  "contractName": "LinkPoolUintOracle",
  "abi": [
    {
      "inputs": [
        {
          "internalType": "int256",
          "name": "__decimals",
          "type": "int256"
        },
        {
          "internalType": "string",
          "name": "__apiBaseURL",
          "type": "string"
        },
        {
          "internalType": "string",
          "name": "__apiPath",
          "type": "string"
        }
      ],
      "stateMutability": "nonpayable",
      "type": "constructor"
    },
    {
      "anonymous": false,
      "inputs": [
        {
          "indexed": true,
          "internalType": "bytes32",
          "name": "id",
          "type": "bytes32"
        }
      ],
      "name": "ChainlinkCancelled",
      "type": "event"
    },
    {
      "anonymous": false,
      "inputs": [
        {
          "indexed": true,
          "internalType": "bytes32",
          "name": "id",
          "type": "bytes32"
        }
      ],
      "name": "ChainlinkFulfilled",
      "type": "event"
    },
    {
      "anonymous": false,
      "inputs": [
        {
          "indexed": true,
          "internalType": "bytes32",
          "name": "id",
          "type": "bytes32"
        }
      ],
      "name": "ChainlinkRequested",
      "type": "event"
    },
    {
      "anonymous": false,
      "inputs": [
        {
          "indexed": false,
          "internalType": "address",
          "name": "withdrawer",
          "type": "address"
        },
        {
          "indexed": false,
          "internalType": "uint256",
          "name": "amount",
          "type": "uint256"
        }
      ],
      "name": "LinkWithdrawn",
      "type": "event"
    },
    {
      "anonymous": false,
      "inputs": [
        {
          "indexed": true,
          "internalType": "address",
          "name": "previousOwner",
          "type": "address"
        },
        {
          "indexed": true,
          "internalType": "address",
          "name": "newOwner",
          "type": "address"
        }
      ],
      "name": "OwnershipTransferred",
      "type": "event"
    },
    {
      "anonymous": false,
      "inputs": [
        {
          "indexed": false,
          "internalType": "address",
          "name": "sender",
          "type": "address"
        },
        {
          "indexed": false,
          "internalType": "uint256",
          "name": "amount",
          "type": "uint256"
        }
      ],
      "name": "Received",
      "type": "event"
    },
    {
      "stateMutability": "payable",
      "type": "fallback"
    },
    {
      "inputs": [],
      "name": "__jobId",
      "outputs": [
        {
          "internalType": "bytes32",
          "name": "",
          "type": "bytes32"
        }
      ],
      "stateMutability": "view",
      "type": "function"
    },
    {
      "inputs": [],
      "name": "_fee",
      "outputs": [
        {
          "internalType": "uint256",
          "name": "",
          "type": "uint256"
        }
      ],
      "stateMutability": "view",
      "type": "function"
    },
    {
      "inputs": [],
      "name": "_linkAddress",
      "outputs": [
        {
          "internalType": "address",
          "name": "",
          "type": "address"
        }
      ],
      "stateMutability": "view",
      "type": "function"
    },
    {
      "inputs": [],
      "name": "_oracleAddress",
      "outputs": [
        {
          "internalType": "address",
          "name": "",
          "type": "address"
        }
      ],
      "stateMutability": "view",
      "type": "function"
    },
    {
      "inputs": [],
      "name": "decimals",
      "outputs": [
        {
          "internalType": "int256",
          "name": "",
          "type": "int256"
        }
      ],
      "stateMutability": "view",
      "type": "function"
    },
    {
      "inputs": [],
      "name": "fee",
      "outputs": [
        {
          "internalType": "uint256",
          "name": "",
          "type": "uint256"
        }
      ],
      "stateMutability": "view",
      "type": "function"
    },
    {
      "inputs": [
        {
          "internalType": "bytes32",
          "name": "_requestId",
          "type": "bytes32"
        },
        {
          "internalType": "int256",
          "name": "_result",
          "type": "int256"
        }
      ],
      "name": "fulfillSigned",
      "outputs": [],
      "stateMutability": "nonpayable",
      "type": "function"
    },
    {
      "inputs": [
        {
          "internalType": "bytes32",
          "name": "_requestId",
          "type": "bytes32"
        },
        {
          "internalType": "uint256",
          "name": "_result",
          "type": "uint256"
        }
      ],
      "name": "fulfillUnsigned",
      "outputs": [],
      "stateMutability": "nonpayable",
      "type": "function"
    },
    {
      "inputs": [],
      "name": "isSignedResult",
      "outputs": [
        {
          "internalType": "bool",
          "name": "",
          "type": "bool"
        }
      ],
      "stateMutability": "view",
      "type": "function"
    },
    {
      "inputs": [],
      "name": "jobId",
      "outputs": [
        {
          "internalType": "bytes32",
          "name": "",
          "type": "bytes32"
        }
      ],
      "stateMutability": "view",
      "type": "function"
    },
    {
      "inputs": [],
      "name": "oracleAddress",
      "outputs": [
        {
          "internalType": "address",
          "name": "",
          "type": "address"
        }
      ],
      "stateMutability": "view",
      "type": "function"
    },
    {
      "inputs": [],
      "name": "owner",
      "outputs": [
        {
          "internalType": "address",
          "name": "",
          "type": "address"
        }
      ],
      "stateMutability": "view",
      "type": "function"
    },
    {
      "inputs": [],
      "name": "renounceOwnership",
      "outputs": [],
      "stateMutability": "nonpayable",
      "type": "function"
    },
    {
      "inputs": [
        {
          "internalType": "string",
          "name": "apiURLParameters",
          "type": "string"
        }
      ],
      "name": "requestIndexPrice",
      "outputs": [
        {
          "internalType": "bytes32",
          "name": "requestId",
          "type": "bytes32"
        }
      ],
      "stateMutability": "nonpayable",
      "type": "function"
    },
    {
      "inputs": [],
      "name": "signedResult",
      "outputs": [
        {
          "internalType": "int256",
          "name": "",
          "type": "int256"
        }
      ],
      "stateMutability": "view",
      "type": "function"
    },
    {
      "inputs": [
        {
          "internalType": "address",
          "name": "newOwner",
          "type": "address"
        }
      ],
      "name": "transferOwnership",
      "outputs": [],
      "stateMutability": "nonpayable",
      "type": "function"
    },
    {
      "inputs": [],
      "name": "unsignedResult",
      "outputs": [
        {
          "internalType": "uint256",
          "name": "",
          "type": "uint256"
        }
      ],
      "stateMutability": "view",
      "type": "function"
    },
    {
      "inputs": [],
      "name": "withdrawLink",
      "outputs": [],
      "stateMutability": "nonpayable",
      "type": "function"
    },
    {
      "stateMutability": "payable",
      "type": "receive"
    }
  ],
  "bytecode": "0x60806040526001600455600f80546001600160a01b03199081167356dd6586db0d08c6ce7b2f2805af28616e082455179091556010805490911673a36085f69e2889c224210f603d836748e7dc008817905567016345785d8a00006011557f62363630326431346534373334633439613565316365313964343561343633326012553480156200008e57600080fd5b5060405162001b4938038062001b49833981016040819052620000b1916200041f565b601254600f546010546011548692869286926000926001600160a01b0390811692889291169087878787620000e633620001a9565b6001600160a01b0386166200010557620000ff620001fb565b62000121565b600280546001600160a01b0319166001600160a01b0388161790555b600980546001600160a01b0319166001600160a01b038a16179055600a879055600e859055600d84905582516200016090600c906020860190620002ac565b5081516200017690600b906020850190620002ac565b5060068054911515600160a01b0260ff60a01b1990921691909117905550620005029d5050505050505050505050505050565b600680546001600160a01b038381166001600160a01b0319831681179093556040519116919082907f8be0079c531659141344cd1fd0a4f28419497f9722a3daafe3b4186f6b6457e090600090a35050565b620002aa73c89bd4e1632d3a43cb03aaad5262cbe4038bc5716001600160a01b03166338cc48316040518163ffffffff1660e01b815260040160206040518083038186803b1580156200024d57600080fd5b505afa15801562000262573d6000803e3d6000fd5b505050506040513d601f19601f8201168201806040525081019062000288919062000493565b600280546001600160a01b0319166001600160a01b0392909216919091179055565b565b828054620002ba90620004c5565b90600052602060002090601f016020900481019282620002de576000855562000329565b82601f10620002f957805160ff191683800117855562000329565b8280016001018555821562000329579182015b82811115620003295782518255916020019190600101906200030c565b50620003379291506200033b565b5090565b5b808211156200033757600081556001016200033c565b634e487b7160e01b600052604160045260246000fd5b600082601f8301126200037a57600080fd5b81516001600160401b038082111562000397576200039762000352565b604051601f8301601f19908116603f01168101908282118183101715620003c257620003c262000352565b81604052838152602092508683858801011115620003df57600080fd5b600091505b83821015620004035785820183015181830184015290820190620003e4565b83821115620004155760008385830101525b9695505050505050565b6000806000606084860312156200043557600080fd5b835160208501519093506001600160401b03808211156200045557600080fd5b620004638783880162000368565b935060408601519150808211156200047a57600080fd5b50620004898682870162000368565b9150509250925092565b600060208284031215620004a657600080fd5b81516001600160a01b0381168114620004be57600080fd5b9392505050565b600181811c90821680620004da57607f821691505b60208210811415620004fc57634e487b7160e01b600052602260045260246000fd5b50919050565b61163780620005126000396000f3fe6080604052600436106101015760003560e01c80638dc654a21161008f578063c0a5977f11610061578063c0a5977f146102e8578063c2939d97146102fe578063c5b37c2214610314578063ddca3f431461032a578063f2fde38b1461034057005b80638dc654a21461026c578063918c00b914610281578063a89ae4ba146102b2578063c043a254146102d257005b806369723be7116100d357806369723be7146101d95780636fb7cb57146101f9578063715018a6146102195780637e0b66d01461022e5780638da5cb5b1461024e57005b8063185defc614610142578063313ce5671461017f5780634665e65a146101a357806351744bca146101b957005b3661014057604080513381523460208201527f88a5966d370b9919b20f3e2c13ff65706f196a4e32cc2c12bf57088f88525874910160405180910390a1005b005b34801561014e57600080fd5b50601054610162906001600160a01b031681565b6040516001600160a01b0390911681526020015b60405180910390f35b34801561018b57600080fd5b50610195600d5481565b604051908152602001610176565b3480156101af57600080fd5b5061019560125481565b3480156101c557600080fd5b506101406101d4366004611137565b610360565b3480156101e557600080fd5b506101956101f436600461116f565b6103eb565b34801561020557600080fd5b50600f54610162906001600160a01b031681565b34801561022557600080fd5b506101406105fd565b34801561023a57600080fd5b50610140610249366004611137565b610633565b34801561025a57600080fd5b506006546001600160a01b0316610162565b34801561027857600080fd5b506101406106b5565b34801561028d57600080fd5b506006546102a290600160a01b900460ff1681565b6040519015158152602001610176565b3480156102be57600080fd5b50600954610162906001600160a01b031681565b3480156102de57600080fd5b5061019560085481565b3480156102f457600080fd5b5061019560075481565b34801561030a57600080fd5b50610195600a5481565b34801561032057600080fd5b5061019560115481565b34801561033657600080fd5b50610195600e5481565b34801561034c57600080fd5b5061014061035b366004611220565b61086c565b60008281526005602052604090205482906001600160a01b031633146103a15760405162461bcd60e51b815260040161039890611249565b60405180910390fd5b60008181526005602052604080822080546001600160a01b03191690555182917f7cc135e0cebb02c3480ae5d74d377283180a2601f8f644edf7987b009316c63a91a25060085550565b60006103f56110fc565b600654600160a01b900460ff161561042357600a5461041c90306328ba25e560e11b610907565b905061043b565b600a5461043890306307e0b66d60e41b610907565b90505b6104f66040518060400160405280600381526020016219d95d60ea1b8152506104ee600c805461046a90611291565b80601f016020809104026020016040519081016040528092919081815260200182805461049690611291565b80156104e35780601f106104b8576101008083540402835291602001916104e3565b820191906000526020600020905b8154815290600101906020018083116104c657829003601f168201915b50505050508661092c565b839190610959565b6105b1604051806040016040528060048152602001630e0c2e8d60e31b815250600b805461052390611291565b80601f016020809104026020016040519081016040528092919081815260200182805461054f90611291565b801561059c5780601f106105715761010080835404028352916020019161059c565b820191906000526020600020905b81548152906001019060200180831161057f57829003601f168201915b5050505050836109599092919063ffffffff16565b60408051808201909152600581526474696d657360d81b6020820152600d546105db91839161097c565b600954600e546105f6916001600160a01b031690839061099a565b9392505050565b6006546001600160a01b031633146106275760405162461bcd60e51b8152600401610398906112c6565b61063160006109b9565b565b60008281526005602052604090205482906001600160a01b0316331461066b5760405162461bcd60e51b815260040161039890611249565b60008181526005602052604080822080546001600160a01b03191690555182917f7cc135e0cebb02c3480ae5d74d377283180a2601f8f644edf7987b009316c63a91a25060075550565b6006546001600160a01b031633146106df5760405162461bcd60e51b8152600401610398906112c6565b60006106f36002546001600160a01b031690565b6040516370a0823160e01b81523060048201529091506000906001600160a01b038316906370a082319060240160206040518083038186803b15801561073857600080fd5b505afa15801561074c573d6000803e3d6000fd5b505050506040513d601f19601f8201168201806040525081019061077091906112fb565b60405163a9059cbb60e01b8152336004820152602481018290529091506001600160a01b0383169063a9059cbb90604401602060405180830381600087803b1580156107bb57600080fd5b505af11580156107cf573d6000803e3d6000fd5b505050506040513d601f19601f820116820180604052508101906107f39190611314565b61082f5760405162461bcd60e51b815260206004820152600d60248201526c2bb4ba34323930bb9032b9391760991b6044820152606401610398565b60408051338152602081018390527fcb1436249a1dd8cf93362c28d79a4e20dc54398b6c49e30316e8396e72a584b0910160405180910390a15050565b6006546001600160a01b031633146108965760405162461bcd60e51b8152600401610398906112c6565b6001600160a01b0381166108fb5760405162461bcd60e51b815260206004820152602660248201527f4f776e61626c653a206e6577206f776e657220697320746865207a65726f206160448201526564647265737360d01b6064820152608401610398565b610904816109b9565b50565b61090f6110fc565b6109176110fc565b61092381868686610a0b565b95945050505050565b60608282604051602001610941929190611362565b60405160208183030381529060405290505b92915050565b60808301516109689083610a48565b60808301516109779082610a48565b505050565b608083015161098b9083610a48565b60808301516109779082610a5f565b60006109b184848460016320214ca360e11b610ac3565b949350505050565b600680546001600160a01b038381166001600160a01b0319831681179093556040519116919082907f8be0079c531659141344cd1fd0a4f28419497f9722a3daafe3b4186f6b6457e090600090a35050565b610a136110fc565b610a238560800151610100610ccf565b50509183526001600160a01b031660208301526001600160e01b031916604082015290565b610a558260038351610d34565b6109778282610e08565b67ffffffffffffffff19811215610a7e57610a7a8282610e2f565b5050565b67ffffffffffffffff811315610a9857610a7a8282610e71565b60008112610aac57610a7a82600083610d34565b610a7a826001610abe846000196113a7565b610d34565b6004546040516bffffffffffffffffffffffff193060601b166020820152603481019190915260009060540160408051808303601f19018152918152815160209283012060045460608901526000818152600590935281832080546001600160a01b0319166001600160a01b038b16179055905190925082917fb5e6e01e79f91267dc17b4e6314d5d4d03593d2ceee0fbb452b750bd70ea5af991a2600082600080886000015189602001518a604001518b606001518a8d6080015160000151604051602401610b9a989796959493929190611412565b60408051601f198184030181529181526020820180516001600160e01b03166001600160e01b0319909416939093179092526002549151630200057560e51b81529092506001600160a01b0390911690634000aea090610c02908a908990869060040161147a565b602060405180830381600087803b158015610c1c57600080fd5b505af1158015610c30573d6000803e3d6000fd5b505050506040513d601f19601f82011682018060405250810190610c549190611314565b610cac5760405162461bcd60e51b815260206004820152602360248201527f756e61626c6520746f207472616e73666572416e6443616c6c20746f206f7261604482015262636c6560e81b6064820152608401610398565b600160046000828254610cbf91906114a1565b9091555091979650505050505050565b604080518082019091526060815260006020820152610cef6020836114b9565b15610d1757610cff6020836114b9565b610d0a9060206114db565b610d1490836114a1565b91505b506020828101829052604080518085526000815290920101905290565b60178111610d5557610d4f8360e0600585901b168317610e94565b50505050565b60ff8111610d7f57610d72836018611fe0600586901b1617610e94565b50610d4f83826001610eb9565b61ffff8111610daa57610d9d836019611fe0600586901b1617610e94565b50610d4f83826002610eb9565b63ffffffff8111610dd757610dca83601a611fe0600586901b1617610e94565b50610d4f83826004610eb9565b67ffffffffffffffff811161097757610dfb83601b611fe0600586901b1617610e94565b50610d4f83826008610eb9565b6040805180820190915260608152600060208201526105f683846000015151848551610edf565b610e3a8260c3610e94565b50610a7a82610e4b836000196113a7565b604051602001610e5d91815260200190565b604051602081830303815290604052610fe4565b610e7c8260c2610e94565b50610a7a8282604051602001610e5d91815260200190565b6040805180820190915260608152600060208201526105f68384600001515184610ff1565b6040805180820190915260608152600060208201526109b184856000015151858561104d565b6040805180820190915260608152600060208201528251821115610f0257600080fd5b6020850151610f1183866114a1565b1115610f4457610f4485610f3487602001518786610f2f91906114a1565b6110ce565b610f3f9060026114f2565b6110e5565b600080865180518760208301019350808887011115610f635787860182525b505050602084015b60208410610fa35780518252610f826020836114a1565b9150610f8f6020826114a1565b9050610f9c6020856114db565b9350610f6b565b60006001610fb28660206114db565b610fbe906101006115f5565b610fc891906114db565b9151835183169219169190911790915250849050949350505050565b610a558260028351610d34565b60408051808201909152606081526000602082015283602001518310611026576110268485602001516002610f3f91906114f2565b835180516020858301018481535080851415611043576001810182525b5093949350505050565b604080518082019091526060815260006020820152602085015161107185846114a1565b11156110855761108585610f3486856114a1565b60006001611095846101006115f5565b61109f91906114db565b90508551838682010185831982511617815250805184870111156110c35783860181525b509495945050505050565b6000818311156110df575081610953565b50919050565b81516110f18383610ccf565b50610d4f8382610e08565b6040805160a0810182526000808252602080830182905282840182905260608084018390528451808601909552845283015290608082015290565b6000806040838503121561114a57600080fd5b50508035926020909101359150565b634e487b7160e01b600052604160045260246000fd5b60006020828403121561118157600080fd5b813567ffffffffffffffff8082111561119957600080fd5b818401915084601f8301126111ad57600080fd5b8135818111156111bf576111bf611159565b604051601f8201601f19908116603f011681019083821181831017156111e7576111e7611159565b8160405282815287602084870101111561120057600080fd5b826020860160208301376000928101602001929092525095945050505050565b60006020828403121561123257600080fd5b81356001600160a01b03811681146105f657600080fd5b60208082526028908201527f536f75726365206d75737420626520746865206f7261636c65206f6620746865604082015267081c995c5d595cdd60c21b606082015260800190565b600181811c908216806112a557607f821691505b602082108114156110df57634e487b7160e01b600052602260045260246000fd5b6020808252818101527f4f776e61626c653a2063616c6c6572206973206e6f7420746865206f776e6572604082015260600190565b60006020828403121561130d57600080fd5b5051919050565b60006020828403121561132657600080fd5b815180151581146105f657600080fd5b60005b83811015611351578181015183820152602001611339565b83811115610d4f5750506000910152565b60008351611374818460208801611336565b835190830190611388818360208801611336565b01949350505050565b634e487b7160e01b600052601160045260246000fd5b60008083128015600160ff1b8501841216156113c5576113c5611391565b6001600160ff1b03840183138116156113e0576113e0611391565b50500390565b600081518084526113fe816020860160208601611336565b601f01601f19169290920160200192915050565b6001600160a01b0389811682526020820189905260408201889052861660608201526001600160e01b03198516608082015260a0810184905260c0810183905261010060e0820181905260009061146b838201856113e6565b9b9a5050505050505050505050565b60018060a01b038416815282602082015260606040820152600061092360608301846113e6565b600082198211156114b4576114b4611391565b500190565b6000826114d657634e487b7160e01b600052601260045260246000fd5b500690565b6000828210156114ed576114ed611391565b500390565b600081600019048311821515161561150c5761150c611391565b500290565b600181815b8085111561154c57816000190482111561153257611532611391565b8085161561153f57918102915b93841c9390800290611516565b509250929050565b60008261156357506001610953565b8161157057506000610953565b81600181146115865760028114611590576115ac565b6001915050610953565b60ff8411156115a1576115a1611391565b50506001821b610953565b5060208310610133831016604e8410600b84101617156115cf575081810a610953565b6115d98383611511565b80600019048211156115ed576115ed611391565b029392505050565b60006105f6838361155456fea264697066735822122056ddc1495355d05e55420dc9fa7adce30c9e20971bcca82c16a028598efa2e6764736f6c63430008090033",
  "immutableReferences": {},
  "source": "// SPDX-License-Identifier: UNLICENSED\r\npragma solidity ^0.8.6;\r\n\r\nimport \"./LinkPoolOracle.sol\";\r\n\r\n/// @title LinkPool Uint oracle skeleton.\r\n/// @author Tamas An\r\n/// @notice Use this oracle for making GET uint256 jobs on LinkPool.\r\n/// @dev Before using oracle. Test if LinkPool uint job is up and running.\r\ncontract LinkPoolUintOracle is LinkPoolOracle {\r\n    bytes32 public __jobId = \"b6602d14e4734c49a5e1ce19d45a4632\";\r\n\r\n    constructor (\r\n        int __decimals, \r\n        string memory __apiBaseURL, \r\n        string memory __apiPath\r\n    ) LinkPoolOracle(\r\n        __jobId,\r\n        __decimals,\r\n        __apiBaseURL,\r\n        __apiPath,\r\n        false\r\n    ) {\r\n    }\r\n}",
  "sourcePath": "C:\\Users\\Tomi\\OneDrive - The University of Chicago\\Documents\\Securrency\\ForwardExchange\\contracts\\oracles\\link-pool-oracles\\LinkPoolUintOracle.sol",
  "compiler": {
    "name": "solc",
    "version": "0.8.9+commit.e5eed63a.Emscripten.clang"
  },
  "schemaVersion": "3.4.3",
  "updatedAt": "2021-09-30T21:50:57.400Z",
  "devdoc": {
    "author": "Tamas An",
    "details": "Before using oracle. Test if LinkPool uint job is up and running.",
    "kind": "dev",
    "methods": {
      "fulfillSigned(bytes32,int256)": {
        "details": "It may take up to 3-4 minutes for the job to be fulffilled.",
        "params": {
          "_requestId": "ID of the request.",
          "_result": "Result of GET request."
        }
      },
      "fulfillUnsigned(bytes32,uint256)": {
        "details": "It may take up to 3-4 minutes for the job to be fulffilled.",
        "params": {
          "_requestId": "ID of the request.",
          "_result": "Result of GET request."
        }
      },
      "owner()": {
        "details": "Returns the address of the current owner."
      },
      "renounceOwnership()": {
        "details": "Leaves the contract without owner. It will not be possible to call `onlyOwner` functions anymore. Can only be called by the current owner. NOTE: Renouncing ownership will leave the contract without an owner, thereby removing any functionality that is only available to the owner."
      },
      "requestIndexPrice(string)": {
        "details": "For underlying price oracle apiURLParameters is empty string.",
        "params": {
          "apiURLParameters": "Parameters added to API URL."
        },
        "returns": {
          "requestId": "The ID of the request"
        }
      },
      "transferOwnership(address)": {
        "details": "Transfers ownership of the contract to a new account (`newOwner`). Can only be called by the current owner."
      },
      "withdrawLink()": {
        "details": "Withdraw LINK after the forward contract is settled."
      }
    },
    "title": "LinkPool Uint oracle skeleton.",
    "version": 1
  },
  "userdoc": {
    "kind": "user",
    "methods": {
      "fulfillSigned(bytes32,int256)": {
        "notice": "Receive response in the form of int256."
      },
      "fulfillUnsigned(bytes32,uint256)": {
        "notice": "Receive response in the form of uint256."
      },
      "requestIndexPrice(string)": {
        "notice": "Create Chainlink request with uint256 job."
      },
      "withdrawLink()": {
        "notice": "Allows the owner to withdraw the LINK in this contract."
      }
    },
    "notice": "Use this oracle for making GET uint256 jobs on LinkPool.",
    "version": 1
  }
}