{
  "contractName": "LinkPoolValuationOracle",
  "abi": [
    {
      "inputs": [],
      "stateMutability": "nonpayable",
      "type": "constructor"
    },
    {
      "anonymous": false,
      "inputs": [
        {
          "indexed": true,
          "internalType": "bytes32",
          "name": "id",
          "type": "bytes32"
        }
      ],
      "name": "ChainlinkCancelled",
      "type": "event"
    },
    {
      "anonymous": false,
      "inputs": [
        {
          "indexed": true,
          "internalType": "bytes32",
          "name": "id",
          "type": "bytes32"
        }
      ],
      "name": "ChainlinkFulfilled",
      "type": "event"
    },
    {
      "anonymous": false,
      "inputs": [
        {
          "indexed": true,
          "internalType": "bytes32",
          "name": "id",
          "type": "bytes32"
        }
      ],
      "name": "ChainlinkRequested",
      "type": "event"
    },
    {
      "anonymous": false,
      "inputs": [
        {
          "indexed": false,
          "internalType": "address",
          "name": "withdrawer",
          "type": "address"
        },
        {
          "indexed": false,
          "internalType": "uint256",
          "name": "amount",
          "type": "uint256"
        }
      ],
      "name": "LinkWithdrawn",
      "type": "event"
    },
    {
      "anonymous": false,
      "inputs": [
        {
          "indexed": true,
          "internalType": "address",
          "name": "previousOwner",
          "type": "address"
        },
        {
          "indexed": true,
          "internalType": "address",
          "name": "newOwner",
          "type": "address"
        }
      ],
      "name": "OwnershipTransferred",
      "type": "event"
    },
    {
      "anonymous": false,
      "inputs": [
        {
          "indexed": false,
          "internalType": "address",
          "name": "sender",
          "type": "address"
        },
        {
          "indexed": false,
          "internalType": "uint256",
          "name": "amount",
          "type": "uint256"
        }
      ],
      "name": "Received",
      "type": "event"
    },
    {
      "stateMutability": "payable",
      "type": "fallback"
    },
    {
      "inputs": [],
      "name": "__jobId",
      "outputs": [
        {
          "internalType": "bytes32",
          "name": "",
          "type": "bytes32"
        }
      ],
      "stateMutability": "view",
      "type": "function"
    },
    {
      "inputs": [],
      "name": "_apiPath_",
      "outputs": [
        {
          "internalType": "string",
          "name": "",
          "type": "string"
        }
      ],
      "stateMutability": "view",
      "type": "function"
    },
    {
      "inputs": [],
      "name": "_decimals_",
      "outputs": [
        {
          "internalType": "int256",
          "name": "",
          "type": "int256"
        }
      ],
      "stateMutability": "view",
      "type": "function"
    },
    {
      "inputs": [],
      "name": "_fee",
      "outputs": [
        {
          "internalType": "uint256",
          "name": "",
          "type": "uint256"
        }
      ],
      "stateMutability": "view",
      "type": "function"
    },
    {
      "inputs": [],
      "name": "_linkAddress",
      "outputs": [
        {
          "internalType": "address",
          "name": "",
          "type": "address"
        }
      ],
      "stateMutability": "view",
      "type": "function"
    },
    {
      "inputs": [],
      "name": "_oracleAddress",
      "outputs": [
        {
          "internalType": "address",
          "name": "",
          "type": "address"
        }
      ],
      "stateMutability": "view",
      "type": "function"
    },
    {
      "inputs": [],
      "name": "decimals",
      "outputs": [
        {
          "internalType": "int256",
          "name": "",
          "type": "int256"
        }
      ],
      "stateMutability": "view",
      "type": "function"
    },
    {
      "inputs": [],
      "name": "fee",
      "outputs": [
        {
          "internalType": "uint256",
          "name": "",
          "type": "uint256"
        }
      ],
      "stateMutability": "view",
      "type": "function"
    },
    {
      "inputs": [
        {
          "internalType": "bytes32",
          "name": "_requestId",
          "type": "bytes32"
        },
        {
          "internalType": "int256",
          "name": "_result",
          "type": "int256"
        }
      ],
      "name": "fulfillSigned",
      "outputs": [],
      "stateMutability": "nonpayable",
      "type": "function"
    },
    {
      "inputs": [
        {
          "internalType": "bytes32",
          "name": "_requestId",
          "type": "bytes32"
        },
        {
          "internalType": "uint256",
          "name": "_result",
          "type": "uint256"
        }
      ],
      "name": "fulfillUnsigned",
      "outputs": [],
      "stateMutability": "nonpayable",
      "type": "function"
    },
    {
      "inputs": [],
      "name": "isSignedResult",
      "outputs": [
        {
          "internalType": "bool",
          "name": "",
          "type": "bool"
        }
      ],
      "stateMutability": "view",
      "type": "function"
    },
    {
      "inputs": [],
      "name": "jobId",
      "outputs": [
        {
          "internalType": "bytes32",
          "name": "",
          "type": "bytes32"
        }
      ],
      "stateMutability": "view",
      "type": "function"
    },
    {
      "inputs": [],
      "name": "oracleAddress",
      "outputs": [
        {
          "internalType": "address",
          "name": "",
          "type": "address"
        }
      ],
      "stateMutability": "view",
      "type": "function"
    },
    {
      "inputs": [],
      "name": "owner",
      "outputs": [
        {
          "internalType": "address",
          "name": "",
          "type": "address"
        }
      ],
      "stateMutability": "view",
      "type": "function"
    },
    {
      "inputs": [],
      "name": "renounceOwnership",
      "outputs": [],
      "stateMutability": "nonpayable",
      "type": "function"
    },
    {
      "inputs": [
        {
          "internalType": "string",
          "name": "apiURLParameters",
          "type": "string"
        }
      ],
      "name": "requestIndexPrice",
      "outputs": [
        {
          "internalType": "bytes32",
          "name": "requestId",
          "type": "bytes32"
        }
      ],
      "stateMutability": "nonpayable",
      "type": "function"
    },
    {
      "inputs": [],
      "name": "signedResult",
      "outputs": [
        {
          "internalType": "int256",
          "name": "",
          "type": "int256"
        }
      ],
      "stateMutability": "view",
      "type": "function"
    },
    {
      "inputs": [
        {
          "internalType": "address",
          "name": "newOwner",
          "type": "address"
        }
      ],
      "name": "transferOwnership",
      "outputs": [],
      "stateMutability": "nonpayable",
      "type": "function"
    },
    {
      "inputs": [],
      "name": "unsignedResult",
      "outputs": [
        {
          "internalType": "uint256",
          "name": "",
          "type": "uint256"
        }
      ],
      "stateMutability": "view",
      "type": "function"
    },
    {
      "inputs": [],
      "name": "withdrawLink",
      "outputs": [],
      "stateMutability": "nonpayable",
      "type": "function"
    },
    {
      "stateMutability": "payable",
      "type": "receive"
    }
  ],
  "bytecode": "0x60806040526001600455600f80546001600160a01b03199081167356dd6586db0d08c6ce7b2f2805af28616e082455179091556010805490911673a36085f69e2889c224210f603d836748e7dc008817905567016345785d8a00006011557f623636303264313465343733346334396135653163653139643435613436333260125560646013553480156200009357600080fd5b5060135460405180606001604052806029815260200162001aa160299139604080518082019091526005815264707269636560d81b6020820152601254600f546010546011548692869286926000926001600160a01b03908116928892911690878787876200010233620001c5565b6001600160a01b03861662000121576200011b62000217565b6200013d565b600280546001600160a01b0319166001600160a01b0388161790555b600980546001600160a01b0319166001600160a01b038a16179055600a879055600e859055600d84905582516200017c90600c906020860190620002c8565b5081516200019290600b906020850190620002c8565b5060068054911515600160a01b0260ff60a01b1990921691909117905550620003dd9d5050505050505050505050505050565b600680546001600160a01b038381166001600160a01b0319831681179093556040519116919082907f8be0079c531659141344cd1fd0a4f28419497f9722a3daafe3b4186f6b6457e090600090a35050565b620002c673c89bd4e1632d3a43cb03aaad5262cbe4038bc5716001600160a01b03166338cc48316040518163ffffffff1660e01b815260040160206040518083038186803b1580156200026957600080fd5b505afa1580156200027e573d6000803e3d6000fd5b505050506040513d601f19601f82011682018060405250810190620002a491906200036e565b600280546001600160a01b0319166001600160a01b0392909216919091179055565b565b828054620002d690620003a0565b90600052602060002090601f016020900481019282620002fa576000855562000345565b82601f106200031557805160ff191683800117855562000345565b8280016001018555821562000345579182015b828111156200034557825182559160200191906001019062000328565b506200035392915062000357565b5090565b5b8082111562000353576000815560010162000358565b6000602082840312156200038157600080fd5b81516001600160a01b03811681146200039957600080fd5b9392505050565b600181811c90821680620003b557607f821691505b60208210811415620003d757634e487b7160e01b600052602260045260246000fd5b50919050565b6116b480620003ed6000396000f3fe6080604052600436106101175760003560e01c8063918c00b91161009a578063c5b37c2211610061578063c5b37c221461032a578063d233da0814610340578063ddca3f4314610356578063de0a217d1461036c578063f2fde38b146103aa57005b8063918c00b914610297578063a89ae4ba146102c8578063c043a254146102e8578063c0a5977f146102fe578063c2939d971461031457005b80636fb7cb57116100de5780636fb7cb571461020f578063715018a61461022f5780637e0b66d0146102445780638da5cb5b146102645780638dc654a21461028257005b8063185defc614610158578063313ce567146101955780634665e65a146101b957806351744bca146101cf57806369723be7146101ef57005b3661015657604080513381523460208201527f88a5966d370b9919b20f3e2c13ff65706f196a4e32cc2c12bf57088f88525874910160405180910390a1005b005b34801561016457600080fd5b50601054610178906001600160a01b031681565b6040516001600160a01b0390911681526020015b60405180910390f35b3480156101a157600080fd5b506101ab600d5481565b60405190815260200161018c565b3480156101c557600080fd5b506101ab60125481565b3480156101db57600080fd5b506101566101ea3660046111a1565b6103ca565b3480156101fb57600080fd5b506101ab61020a3660046111d9565b610455565b34801561021b57600080fd5b50600f54610178906001600160a01b031681565b34801561023b57600080fd5b50610156610667565b34801561025057600080fd5b5061015661025f3660046111a1565b61069d565b34801561027057600080fd5b506006546001600160a01b0316610178565b34801561028e57600080fd5b5061015661071f565b3480156102a357600080fd5b506006546102b890600160a01b900460ff1681565b604051901515815260200161018c565b3480156102d457600080fd5b50600954610178906001600160a01b031681565b3480156102f457600080fd5b506101ab60085481565b34801561030a57600080fd5b506101ab60075481565b34801561032057600080fd5b506101ab600a5481565b34801561033657600080fd5b506101ab60115481565b34801561034c57600080fd5b506101ab60135481565b34801561036257600080fd5b506101ab600e5481565b34801561037857600080fd5b5061039d60405180604001604052806005815260200164707269636560d81b81525081565b60405161018c91906112e2565b3480156103b657600080fd5b506101566103c53660046112f5565b6108d6565b60008281526005602052604090205482906001600160a01b0316331461040b5760405162461bcd60e51b81526004016104029061131e565b60405180910390fd5b60008181526005602052604080822080546001600160a01b03191690555182917f7cc135e0cebb02c3480ae5d74d377283180a2601f8f644edf7987b009316c63a91a25060085550565b600061045f611166565b600654600160a01b900460ff161561048d57600a5461048690306328ba25e560e11b610971565b90506104a5565b600a546104a290306307e0b66d60e41b610971565b90505b6105606040518060400160405280600381526020016219d95d60ea1b815250610558600c80546104d490611366565b80601f016020809104026020016040519081016040528092919081815260200182805461050090611366565b801561054d5780601f106105225761010080835404028352916020019161054d565b820191906000526020600020905b81548152906001019060200180831161053057829003601f168201915b505050505086610996565b8391906109c3565b61061b604051806040016040528060048152602001630e0c2e8d60e31b815250600b805461058d90611366565b80601f01602080910402602001604051908101604052809291908181526020018280546105b990611366565b80156106065780601f106105db57610100808354040283529160200191610606565b820191906000526020600020905b8154815290600101906020018083116105e957829003601f168201915b5050505050836109c39092919063ffffffff16565b60408051808201909152600581526474696d657360d81b6020820152600d546106459183916109e6565b600954600e54610660916001600160a01b0316908390610a04565b9392505050565b6006546001600160a01b031633146106915760405162461bcd60e51b81526004016104029061139b565b61069b6000610a23565b565b60008281526005602052604090205482906001600160a01b031633146106d55760405162461bcd60e51b81526004016104029061131e565b60008181526005602052604080822080546001600160a01b03191690555182917f7cc135e0cebb02c3480ae5d74d377283180a2601f8f644edf7987b009316c63a91a25060075550565b6006546001600160a01b031633146107495760405162461bcd60e51b81526004016104029061139b565b600061075d6002546001600160a01b031690565b6040516370a0823160e01b81523060048201529091506000906001600160a01b038316906370a082319060240160206040518083038186803b1580156107a257600080fd5b505afa1580156107b6573d6000803e3d6000fd5b505050506040513d601f19601f820116820180604052508101906107da91906113d0565b60405163a9059cbb60e01b8152336004820152602481018290529091506001600160a01b0383169063a9059cbb90604401602060405180830381600087803b15801561082557600080fd5b505af1158015610839573d6000803e3d6000fd5b505050506040513d601f19601f8201168201806040525081019061085d91906113e9565b6108995760405162461bcd60e51b815260206004820152600d60248201526c2bb4ba34323930bb9032b9391760991b6044820152606401610402565b60408051338152602081018390527fcb1436249a1dd8cf93362c28d79a4e20dc54398b6c49e30316e8396e72a584b0910160405180910390a15050565b6006546001600160a01b031633146109005760405162461bcd60e51b81526004016104029061139b565b6001600160a01b0381166109655760405162461bcd60e51b815260206004820152602660248201527f4f776e61626c653a206e6577206f776e657220697320746865207a65726f206160448201526564647265737360d01b6064820152608401610402565b61096e81610a23565b50565b610979611166565b610981611166565b61098d81868686610a75565b95945050505050565b606082826040516020016109ab92919061140b565b60405160208183030381529060405290505b92915050565b60808301516109d29083610ab2565b60808301516109e19082610ab2565b505050565b60808301516109f59083610ab2565b60808301516109e19082610ac9565b6000610a1b84848460016320214ca360e11b610b2d565b949350505050565b600680546001600160a01b038381166001600160a01b0319831681179093556040519116919082907f8be0079c531659141344cd1fd0a4f28419497f9722a3daafe3b4186f6b6457e090600090a35050565b610a7d611166565b610a8d8560800151610100610d39565b50509183526001600160a01b031660208301526001600160e01b031916604082015290565b610abf8260038351610d9e565b6109e18282610e72565b67ffffffffffffffff19811215610ae857610ae48282610e99565b5050565b67ffffffffffffffff811315610b0257610ae48282610edb565b60008112610b1657610ae482600083610d9e565b610ae4826001610b2884600019611450565b610d9e565b6004546040516bffffffffffffffffffffffff193060601b166020820152603481019190915260009060540160408051808303601f19018152918152815160209283012060045460608901526000818152600590935281832080546001600160a01b0319166001600160a01b038b16179055905190925082917fb5e6e01e79f91267dc17b4e6314d5d4d03593d2ceee0fbb452b750bd70ea5af991a2600082600080886000015189602001518a604001518b606001518a8d6080015160000151604051602401610c0498979695949392919061148f565b60408051601f198184030181529181526020820180516001600160e01b03166001600160e01b0319909416939093179092526002549151630200057560e51b81529092506001600160a01b0390911690634000aea090610c6c908a90899086906004016114f7565b602060405180830381600087803b158015610c8657600080fd5b505af1158015610c9a573d6000803e3d6000fd5b505050506040513d601f19601f82011682018060405250810190610cbe91906113e9565b610d165760405162461bcd60e51b815260206004820152602360248201527f756e61626c6520746f207472616e73666572416e6443616c6c20746f206f7261604482015262636c6560e81b6064820152608401610402565b600160046000828254610d29919061151e565b9091555091979650505050505050565b604080518082019091526060815260006020820152610d59602083611536565b15610d8157610d69602083611536565b610d74906020611558565b610d7e908361151e565b91505b506020828101829052604080518085526000815290920101905290565b60178111610dbf57610db98360e0600585901b168317610efe565b50505050565b60ff8111610de957610ddc836018611fe0600586901b1617610efe565b50610db983826001610f23565b61ffff8111610e1457610e07836019611fe0600586901b1617610efe565b50610db983826002610f23565b63ffffffff8111610e4157610e3483601a611fe0600586901b1617610efe565b50610db983826004610f23565b67ffffffffffffffff81116109e157610e6583601b611fe0600586901b1617610efe565b50610db983826008610f23565b60408051808201909152606081526000602082015261066083846000015151848551610f49565b610ea48260c3610efe565b50610ae482610eb583600019611450565b604051602001610ec791815260200190565b60405160208183030381529060405261104e565b610ee68260c2610efe565b50610ae48282604051602001610ec791815260200190565b604080518082019091526060815260006020820152610660838460000151518461105b565b604080518082019091526060815260006020820152610a1b8485600001515185856110b7565b6040805180820190915260608152600060208201528251821115610f6c57600080fd5b6020850151610f7b838661151e565b1115610fae57610fae85610f9e87602001518786610f99919061151e565b611138565b610fa990600261156f565b61114f565b600080865180518760208301019350808887011115610fcd5787860182525b505050602084015b6020841061100d5780518252610fec60208361151e565b9150610ff960208261151e565b9050611006602085611558565b9350610fd5565b6000600161101c866020611558565b61102890610100611672565b6110329190611558565b9151835183169219169190911790915250849050949350505050565b610abf8260028351610d9e565b60408051808201909152606081526000602082015283602001518310611090576110908485602001516002610fa9919061156f565b8351805160208583010184815350808514156110ad576001810182525b5093949350505050565b60408051808201909152606081526000602082015260208501516110db858461151e565b11156110ef576110ef85610f9e868561151e565b600060016110ff84610100611672565b6111099190611558565b905085518386820101858319825116178152508051848701111561112d5783860181525b509495945050505050565b6000818311156111495750816109bd565b50919050565b815161115b8383610d39565b50610db98382610e72565b6040805160a0810182526000808252602080830182905282840182905260608084018390528451808601909552845283015290608082015290565b600080604083850312156111b457600080fd5b50508035926020909101359150565b634e487b7160e01b600052604160045260246000fd5b6000602082840312156111eb57600080fd5b813567ffffffffffffffff8082111561120357600080fd5b818401915084601f83011261121757600080fd5b813581811115611229576112296111c3565b604051601f8201601f19908116603f01168101908382118183101715611251576112516111c3565b8160405282815287602084870101111561126a57600080fd5b826020860160208301376000928101602001929092525095945050505050565b60005b838110156112a557818101518382015260200161128d565b83811115610db95750506000910152565b600081518084526112ce81602086016020860161128a565b601f01601f19169290920160200192915050565b60208152600061066060208301846112b6565b60006020828403121561130757600080fd5b81356001600160a01b038116811461066057600080fd5b60208082526028908201527f536f75726365206d75737420626520746865206f7261636c65206f6620746865604082015267081c995c5d595cdd60c21b606082015260800190565b600181811c9082168061137a57607f821691505b6020821081141561114957634e487b7160e01b600052602260045260246000fd5b6020808252818101527f4f776e61626c653a2063616c6c6572206973206e6f7420746865206f776e6572604082015260600190565b6000602082840312156113e257600080fd5b5051919050565b6000602082840312156113fb57600080fd5b8151801515811461066057600080fd5b6000835161141d81846020880161128a565b83519083019061143181836020880161128a565b01949350505050565b634e487b7160e01b600052601160045260246000fd5b60008083128015600160ff1b85018412161561146e5761146e61143a565b6001600160ff1b03840183138116156114895761148961143a565b50500390565b6001600160a01b0389811682526020820189905260408201889052861660608201526001600160e01b03198516608082015260a0810184905260c0810183905261010060e082018190526000906114e8838201856112b6565b9b9a5050505050505050505050565b60018060a01b038416815282602082015260606040820152600061098d60608301846112b6565b600082198211156115315761153161143a565b500190565b60008261155357634e487b7160e01b600052601260045260246000fd5b500690565b60008282101561156a5761156a61143a565b500390565b60008160001904831182151516156115895761158961143a565b500290565b600181815b808511156115c95781600019048211156115af576115af61143a565b808516156115bc57918102915b93841c9390800290611593565b509250929050565b6000826115e0575060016109bd565b816115ed575060006109bd565b8160018114611603576002811461160d57611629565b60019150506109bd565b60ff84111561161e5761161e61143a565b50506001821b6109bd565b5060208310610133831016604e8410600b841016171561164c575081810a6109bd565b611656838361158e565b806000190482111561166a5761166a61143a565b029392505050565b600061066083836115d156fea26469706673582212207ba08e27e2776b9a91720e4ee207945626138f6e3fc2742df3562af8c29d44be64736f6c63430008090033687474703a2f2f76616c756174696f6e2d6170692e6865726f6b756170702e636f6d2f70726963652f",
  "immutableReferences": {},
  "source": "// SPDX-License-Identifier: UNLICENSED\r\npragma solidity ^0.8.6;\r\n\r\nimport \"./LinkPoolUintOracle.sol\";\r\n\r\n/// @title LinkPool oracle for getting the price of a forward contract.\r\n/// @author Tamas An\r\n/// @notice Use this oracle for GET requests to API that calculates value of forward contract\r\n/// @dev Before using oracle. Test if LinkPool uint job and valuation api are up and running\r\ncontract LinkPoolValuationOracle is LinkPoolUintOracle {\r\n    int public _decimals_ = 10 ** 2;\r\n    string private constant _apiBaseURL_ = \"http://valuation-api.herokuapp.com/price/\";\r\n    string public constant _apiPath_ = \"price\";\r\n\r\n    constructor() \r\n        LinkPoolUintOracle (\r\n            _decimals_,\r\n            _apiBaseURL_,\r\n            _apiPath_\r\n        ) {\r\n    }\r\n}",
  "sourcePath": "C:\\Users\\Tomi\\OneDrive - The University of Chicago\\Documents\\Securrency\\ForwardExchange\\contracts\\oracles\\link-pool-oracles\\LinkPoolValuationOracle.sol",
  "compiler": {
    "name": "solc",
    "version": "0.8.9+commit.e5eed63a.Emscripten.clang"
  },
  "schemaVersion": "3.4.3",
  "updatedAt": "2021-09-30T21:50:57.408Z",
  "devdoc": {
    "author": "Tamas An",
    "details": "Before using oracle. Test if LinkPool uint job and valuation api are up and running",
    "kind": "dev",
    "methods": {
      "fulfillSigned(bytes32,int256)": {
        "details": "It may take up to 3-4 minutes for the job to be fulffilled.",
        "params": {
          "_requestId": "ID of the request.",
          "_result": "Result of GET request."
        }
      },
      "fulfillUnsigned(bytes32,uint256)": {
        "details": "It may take up to 3-4 minutes for the job to be fulffilled.",
        "params": {
          "_requestId": "ID of the request.",
          "_result": "Result of GET request."
        }
      },
      "owner()": {
        "details": "Returns the address of the current owner."
      },
      "renounceOwnership()": {
        "details": "Leaves the contract without owner. It will not be possible to call `onlyOwner` functions anymore. Can only be called by the current owner. NOTE: Renouncing ownership will leave the contract without an owner, thereby removing any functionality that is only available to the owner."
      },
      "requestIndexPrice(string)": {
        "details": "For underlying price oracle apiURLParameters is empty string.",
        "params": {
          "apiURLParameters": "Parameters added to API URL."
        },
        "returns": {
          "requestId": "The ID of the request"
        }
      },
      "transferOwnership(address)": {
        "details": "Transfers ownership of the contract to a new account (`newOwner`). Can only be called by the current owner."
      },
      "withdrawLink()": {
        "details": "Withdraw LINK after the forward contract is settled."
      }
    },
    "title": "LinkPool oracle for getting the price of a forward contract.",
    "version": 1
  },
  "userdoc": {
    "kind": "user",
    "methods": {
      "fulfillSigned(bytes32,int256)": {
        "notice": "Receive response in the form of int256."
      },
      "fulfillUnsigned(bytes32,uint256)": {
        "notice": "Receive response in the form of uint256."
      },
      "requestIndexPrice(string)": {
        "notice": "Create Chainlink request with uint256 job."
      },
      "withdrawLink()": {
        "notice": "Allows the owner to withdraw the LINK in this contract."
      }
    },
    "notice": "Use this oracle for GET requests to API that calculates value of forward contract",
    "version": 1
  }
}