{
  "contractName": "LinkPoolOracle",
  "abi": [
    {
      "inputs": [
        {
          "internalType": "bytes32",
          "name": "_jobId",
          "type": "bytes32"
        },
        {
          "internalType": "int256",
          "name": "_decimals",
          "type": "int256"
        },
        {
          "internalType": "string",
          "name": "_apiBaseURL",
          "type": "string"
        },
        {
          "internalType": "string",
          "name": "_apiPath",
          "type": "string"
        },
        {
          "internalType": "bool",
          "name": "_isSignedResult",
          "type": "bool"
        }
      ],
      "stateMutability": "nonpayable",
      "type": "constructor"
    },
    {
      "anonymous": false,
      "inputs": [
        {
          "indexed": true,
          "internalType": "bytes32",
          "name": "id",
          "type": "bytes32"
        }
      ],
      "name": "ChainlinkCancelled",
      "type": "event"
    },
    {
      "anonymous": false,
      "inputs": [
        {
          "indexed": true,
          "internalType": "bytes32",
          "name": "id",
          "type": "bytes32"
        }
      ],
      "name": "ChainlinkFulfilled",
      "type": "event"
    },
    {
      "anonymous": false,
      "inputs": [
        {
          "indexed": true,
          "internalType": "bytes32",
          "name": "id",
          "type": "bytes32"
        }
      ],
      "name": "ChainlinkRequested",
      "type": "event"
    },
    {
      "anonymous": false,
      "inputs": [
        {
          "indexed": false,
          "internalType": "address",
          "name": "withdrawer",
          "type": "address"
        },
        {
          "indexed": false,
          "internalType": "uint256",
          "name": "amount",
          "type": "uint256"
        }
      ],
      "name": "LinkWithdrawn",
      "type": "event"
    },
    {
      "anonymous": false,
      "inputs": [
        {
          "indexed": true,
          "internalType": "address",
          "name": "previousOwner",
          "type": "address"
        },
        {
          "indexed": true,
          "internalType": "address",
          "name": "newOwner",
          "type": "address"
        }
      ],
      "name": "OwnershipTransferred",
      "type": "event"
    },
    {
      "anonymous": false,
      "inputs": [
        {
          "indexed": false,
          "internalType": "address",
          "name": "sender",
          "type": "address"
        },
        {
          "indexed": false,
          "internalType": "uint256",
          "name": "amount",
          "type": "uint256"
        }
      ],
      "name": "Received",
      "type": "event"
    },
    {
      "stateMutability": "payable",
      "type": "fallback"
    },
    {
      "inputs": [],
      "name": "_fee",
      "outputs": [
        {
          "internalType": "uint256",
          "name": "",
          "type": "uint256"
        }
      ],
      "stateMutability": "view",
      "type": "function"
    },
    {
      "inputs": [],
      "name": "_linkAddress",
      "outputs": [
        {
          "internalType": "address",
          "name": "",
          "type": "address"
        }
      ],
      "stateMutability": "view",
      "type": "function"
    },
    {
      "inputs": [],
      "name": "_oracleAddress",
      "outputs": [
        {
          "internalType": "address",
          "name": "",
          "type": "address"
        }
      ],
      "stateMutability": "view",
      "type": "function"
    },
    {
      "inputs": [],
      "name": "decimals",
      "outputs": [
        {
          "internalType": "int256",
          "name": "",
          "type": "int256"
        }
      ],
      "stateMutability": "view",
      "type": "function"
    },
    {
      "inputs": [],
      "name": "fee",
      "outputs": [
        {
          "internalType": "uint256",
          "name": "",
          "type": "uint256"
        }
      ],
      "stateMutability": "view",
      "type": "function"
    },
    {
      "inputs": [
        {
          "internalType": "bytes32",
          "name": "_requestId",
          "type": "bytes32"
        },
        {
          "internalType": "int256",
          "name": "_result",
          "type": "int256"
        }
      ],
      "name": "fulfillSigned",
      "outputs": [],
      "stateMutability": "nonpayable",
      "type": "function"
    },
    {
      "inputs": [
        {
          "internalType": "bytes32",
          "name": "_requestId",
          "type": "bytes32"
        },
        {
          "internalType": "uint256",
          "name": "_result",
          "type": "uint256"
        }
      ],
      "name": "fulfillUnsigned",
      "outputs": [],
      "stateMutability": "nonpayable",
      "type": "function"
    },
    {
      "inputs": [],
      "name": "isSignedResult",
      "outputs": [
        {
          "internalType": "bool",
          "name": "",
          "type": "bool"
        }
      ],
      "stateMutability": "view",
      "type": "function"
    },
    {
      "inputs": [],
      "name": "jobId",
      "outputs": [
        {
          "internalType": "bytes32",
          "name": "",
          "type": "bytes32"
        }
      ],
      "stateMutability": "view",
      "type": "function"
    },
    {
      "inputs": [],
      "name": "oracleAddress",
      "outputs": [
        {
          "internalType": "address",
          "name": "",
          "type": "address"
        }
      ],
      "stateMutability": "view",
      "type": "function"
    },
    {
      "inputs": [],
      "name": "owner",
      "outputs": [
        {
          "internalType": "address",
          "name": "",
          "type": "address"
        }
      ],
      "stateMutability": "view",
      "type": "function"
    },
    {
      "inputs": [],
      "name": "renounceOwnership",
      "outputs": [],
      "stateMutability": "nonpayable",
      "type": "function"
    },
    {
      "inputs": [
        {
          "internalType": "string",
          "name": "apiURLParameters",
          "type": "string"
        }
      ],
      "name": "requestIndexPrice",
      "outputs": [
        {
          "internalType": "bytes32",
          "name": "requestId",
          "type": "bytes32"
        }
      ],
      "stateMutability": "nonpayable",
      "type": "function"
    },
    {
      "inputs": [],
      "name": "signedResult",
      "outputs": [
        {
          "internalType": "int256",
          "name": "",
          "type": "int256"
        }
      ],
      "stateMutability": "view",
      "type": "function"
    },
    {
      "inputs": [
        {
          "internalType": "address",
          "name": "newOwner",
          "type": "address"
        }
      ],
      "name": "transferOwnership",
      "outputs": [],
      "stateMutability": "nonpayable",
      "type": "function"
    },
    {
      "inputs": [],
      "name": "unsignedResult",
      "outputs": [
        {
          "internalType": "uint256",
          "name": "",
          "type": "uint256"
        }
      ],
      "stateMutability": "view",
      "type": "function"
    },
    {
      "inputs": [],
      "name": "withdrawLink",
      "outputs": [],
      "stateMutability": "nonpayable",
      "type": "function"
    },
    {
      "stateMutability": "payable",
      "type": "receive"
    }
  ],
  "bytecode": "0x60806040526001600455600f80546001600160a01b03199081167356dd6586db0d08c6ce7b2f2805af28616e082455179091556010805490911673a36085f69e2889c224210f603d836748e7dc008817905567016345785d8a00006011553480156200006a57600080fd5b5060405162001b1938038062001b198339810160408190526200008d91620003eb565b600f546010546011546001600160a01b03928316928892169087878787620000b53362000175565b6001600160a01b038616620000d457620000ce620001c7565b620000f0565b600280546001600160a01b0319166001600160a01b0388161790555b600980546001600160a01b0319166001600160a01b038a16179055600a879055600e859055600d84905582516200012f90600c90602086019062000278565b5081516200014590600b90602085019062000278565b5060068054911515600160a01b0260ff60a01b1990921691909117905550620004f39a5050505050505050505050565b600680546001600160a01b038381166001600160a01b0319831681179093556040519116919082907f8be0079c531659141344cd1fd0a4f28419497f9722a3daafe3b4186f6b6457e090600090a35050565b6200027673c89bd4e1632d3a43cb03aaad5262cbe4038bc5716001600160a01b03166338cc48316040518163ffffffff1660e01b815260040160206040518083038186803b1580156200021957600080fd5b505afa1580156200022e573d6000803e3d6000fd5b505050506040513d601f19601f8201168201806040525081019062000254919062000484565b600280546001600160a01b0319166001600160a01b0392909216919091179055565b565b8280546200028690620004b6565b90600052602060002090601f016020900481019282620002aa5760008555620002f5565b82601f10620002c557805160ff1916838001178555620002f5565b82800160010185558215620002f5579182015b82811115620002f5578251825591602001919060010190620002d8565b506200030392915062000307565b5090565b5b8082111562000303576000815560010162000308565b634e487b7160e01b600052604160045260246000fd5b600082601f8301126200034657600080fd5b81516001600160401b03808211156200036357620003636200031e565b604051601f8301601f19908116603f011681019082821181831017156200038e576200038e6200031e565b81604052838152602092508683858801011115620003ab57600080fd5b600091505b83821015620003cf5785820183015181830184015290820190620003b0565b83821115620003e15760008385830101525b9695505050505050565b600080600080600060a086880312156200040457600080fd5b85516020870151604088015191965094506001600160401b03808211156200042b57600080fd5b6200043989838a0162000334565b945060608801519150808211156200045057600080fd5b506200045f8882890162000334565b925050608086015180151581146200047657600080fd5b809150509295509295909350565b6000602082840312156200049757600080fd5b81516001600160a01b0381168114620004af57600080fd5b9392505050565b600181811c90821680620004cb57607f821691505b60208210811415620004ed57634e487b7160e01b600052602260045260246000fd5b50919050565b61161680620005036000396000f3fe6080604052600436106100f65760003560e01c80638dc654a21161008f578063c0a5977f11610061578063c0a5977f146102c7578063c2939d97146102dd578063c5b37c22146102f3578063ddca3f4314610309578063f2fde38b1461031f57005b80638dc654a21461024b578063918c00b914610260578063a89ae4ba14610291578063c043a254146102b157005b80636fb7cb57116100c85780636fb7cb57146101d8578063715018a6146101f85780637e0b66d01461020d5780638da5cb5b1461022d57005b8063185defc614610137578063313ce5671461017457806351744bca1461019857806369723be7146101b857005b3661013557604080513381523460208201527f88a5966d370b9919b20f3e2c13ff65706f196a4e32cc2c12bf57088f88525874910160405180910390a1005b005b34801561014357600080fd5b50601054610157906001600160a01b031681565b6040516001600160a01b0390911681526020015b60405180910390f35b34801561018057600080fd5b5061018a600d5481565b60405190815260200161016b565b3480156101a457600080fd5b506101356101b3366004611116565b61033f565b3480156101c457600080fd5b5061018a6101d336600461114e565b6103ca565b3480156101e457600080fd5b50600f54610157906001600160a01b031681565b34801561020457600080fd5b506101356105dc565b34801561021957600080fd5b50610135610228366004611116565b610612565b34801561023957600080fd5b506006546001600160a01b0316610157565b34801561025757600080fd5b50610135610694565b34801561026c57600080fd5b5060065461028190600160a01b900460ff1681565b604051901515815260200161016b565b34801561029d57600080fd5b50600954610157906001600160a01b031681565b3480156102bd57600080fd5b5061018a60085481565b3480156102d357600080fd5b5061018a60075481565b3480156102e957600080fd5b5061018a600a5481565b3480156102ff57600080fd5b5061018a60115481565b34801561031557600080fd5b5061018a600e5481565b34801561032b57600080fd5b5061013561033a3660046111ff565b61084b565b60008281526005602052604090205482906001600160a01b031633146103805760405162461bcd60e51b815260040161037790611228565b60405180910390fd5b60008181526005602052604080822080546001600160a01b03191690555182917f7cc135e0cebb02c3480ae5d74d377283180a2601f8f644edf7987b009316c63a91a25060085550565b60006103d46110db565b600654600160a01b900460ff161561040257600a546103fb90306328ba25e560e11b6108e6565b905061041a565b600a5461041790306307e0b66d60e41b6108e6565b90505b6104d56040518060400160405280600381526020016219d95d60ea1b8152506104cd600c805461044990611270565b80601f016020809104026020016040519081016040528092919081815260200182805461047590611270565b80156104c25780601f10610497576101008083540402835291602001916104c2565b820191906000526020600020905b8154815290600101906020018083116104a557829003601f168201915b50505050508661090b565b839190610938565b610590604051806040016040528060048152602001630e0c2e8d60e31b815250600b805461050290611270565b80601f016020809104026020016040519081016040528092919081815260200182805461052e90611270565b801561057b5780601f106105505761010080835404028352916020019161057b565b820191906000526020600020905b81548152906001019060200180831161055e57829003601f168201915b5050505050836109389092919063ffffffff16565b60408051808201909152600581526474696d657360d81b6020820152600d546105ba91839161095b565b600954600e546105d5916001600160a01b0316908390610979565b9392505050565b6006546001600160a01b031633146106065760405162461bcd60e51b8152600401610377906112a5565b6106106000610998565b565b60008281526005602052604090205482906001600160a01b0316331461064a5760405162461bcd60e51b815260040161037790611228565b60008181526005602052604080822080546001600160a01b03191690555182917f7cc135e0cebb02c3480ae5d74d377283180a2601f8f644edf7987b009316c63a91a25060075550565b6006546001600160a01b031633146106be5760405162461bcd60e51b8152600401610377906112a5565b60006106d26002546001600160a01b031690565b6040516370a0823160e01b81523060048201529091506000906001600160a01b038316906370a082319060240160206040518083038186803b15801561071757600080fd5b505afa15801561072b573d6000803e3d6000fd5b505050506040513d601f19601f8201168201806040525081019061074f91906112da565b60405163a9059cbb60e01b8152336004820152602481018290529091506001600160a01b0383169063a9059cbb90604401602060405180830381600087803b15801561079a57600080fd5b505af11580156107ae573d6000803e3d6000fd5b505050506040513d601f19601f820116820180604052508101906107d291906112f3565b61080e5760405162461bcd60e51b815260206004820152600d60248201526c2bb4ba34323930bb9032b9391760991b6044820152606401610377565b60408051338152602081018390527fcb1436249a1dd8cf93362c28d79a4e20dc54398b6c49e30316e8396e72a584b0910160405180910390a15050565b6006546001600160a01b031633146108755760405162461bcd60e51b8152600401610377906112a5565b6001600160a01b0381166108da5760405162461bcd60e51b815260206004820152602660248201527f4f776e61626c653a206e6577206f776e657220697320746865207a65726f206160448201526564647265737360d01b6064820152608401610377565b6108e381610998565b50565b6108ee6110db565b6108f66110db565b610902818686866109ea565b95945050505050565b60608282604051602001610920929190611341565b60405160208183030381529060405290505b92915050565b60808301516109479083610a27565b60808301516109569082610a27565b505050565b608083015161096a9083610a27565b60808301516109569082610a3e565b600061099084848460016320214ca360e11b610aa2565b949350505050565b600680546001600160a01b038381166001600160a01b0319831681179093556040519116919082907f8be0079c531659141344cd1fd0a4f28419497f9722a3daafe3b4186f6b6457e090600090a35050565b6109f26110db565b610a028560800151610100610cae565b50509183526001600160a01b031660208301526001600160e01b031916604082015290565b610a348260038351610d13565b6109568282610de7565b67ffffffffffffffff19811215610a5d57610a598282610e0e565b5050565b67ffffffffffffffff811315610a7757610a598282610e50565b60008112610a8b57610a5982600083610d13565b610a59826001610a9d84600019611386565b610d13565b6004546040516bffffffffffffffffffffffff193060601b166020820152603481019190915260009060540160408051808303601f19018152918152815160209283012060045460608901526000818152600590935281832080546001600160a01b0319166001600160a01b038b16179055905190925082917fb5e6e01e79f91267dc17b4e6314d5d4d03593d2ceee0fbb452b750bd70ea5af991a2600082600080886000015189602001518a604001518b606001518a8d6080015160000151604051602401610b799897969594939291906113f1565b60408051601f198184030181529181526020820180516001600160e01b03166001600160e01b0319909416939093179092526002549151630200057560e51b81529092506001600160a01b0390911690634000aea090610be1908a9089908690600401611459565b602060405180830381600087803b158015610bfb57600080fd5b505af1158015610c0f573d6000803e3d6000fd5b505050506040513d601f19601f82011682018060405250810190610c3391906112f3565b610c8b5760405162461bcd60e51b815260206004820152602360248201527f756e61626c6520746f207472616e73666572416e6443616c6c20746f206f7261604482015262636c6560e81b6064820152608401610377565b600160046000828254610c9e9190611480565b9091555091979650505050505050565b604080518082019091526060815260006020820152610cce602083611498565b15610cf657610cde602083611498565b610ce99060206114ba565b610cf39083611480565b91505b506020828101829052604080518085526000815290920101905290565b60178111610d3457610d2e8360e0600585901b168317610e73565b50505050565b60ff8111610d5e57610d51836018611fe0600586901b1617610e73565b50610d2e83826001610e98565b61ffff8111610d8957610d7c836019611fe0600586901b1617610e73565b50610d2e83826002610e98565b63ffffffff8111610db657610da983601a611fe0600586901b1617610e73565b50610d2e83826004610e98565b67ffffffffffffffff811161095657610dda83601b611fe0600586901b1617610e73565b50610d2e83826008610e98565b6040805180820190915260608152600060208201526105d583846000015151848551610ebe565b610e198260c3610e73565b50610a5982610e2a83600019611386565b604051602001610e3c91815260200190565b604051602081830303815290604052610fc3565b610e5b8260c2610e73565b50610a598282604051602001610e3c91815260200190565b6040805180820190915260608152600060208201526105d58384600001515184610fd0565b60408051808201909152606081526000602082015261099084856000015151858561102c565b6040805180820190915260608152600060208201528251821115610ee157600080fd5b6020850151610ef08386611480565b1115610f2357610f2385610f1387602001518786610f0e9190611480565b6110ad565b610f1e9060026114d1565b6110c4565b600080865180518760208301019350808887011115610f425787860182525b505050602084015b60208410610f825780518252610f61602083611480565b9150610f6e602082611480565b9050610f7b6020856114ba565b9350610f4a565b60006001610f918660206114ba565b610f9d906101006115d4565b610fa791906114ba565b9151835183169219169190911790915250849050949350505050565b610a348260028351610d13565b60408051808201909152606081526000602082015283602001518310611005576110058485602001516002610f1e91906114d1565b835180516020858301018481535080851415611022576001810182525b5093949350505050565b60408051808201909152606081526000602082015260208501516110508584611480565b11156110645761106485610f138685611480565b60006001611074846101006115d4565b61107e91906114ba565b90508551838682010185831982511617815250805184870111156110a25783860181525b509495945050505050565b6000818311156110be575081610932565b50919050565b81516110d08383610cae565b50610d2e8382610de7565b6040805160a0810182526000808252602080830182905282840182905260608084018390528451808601909552845283015290608082015290565b6000806040838503121561112957600080fd5b50508035926020909101359150565b634e487b7160e01b600052604160045260246000fd5b60006020828403121561116057600080fd5b813567ffffffffffffffff8082111561117857600080fd5b818401915084601f83011261118c57600080fd5b81358181111561119e5761119e611138565b604051601f8201601f19908116603f011681019083821181831017156111c6576111c6611138565b816040528281528760208487010111156111df57600080fd5b826020860160208301376000928101602001929092525095945050505050565b60006020828403121561121157600080fd5b81356001600160a01b03811681146105d557600080fd5b60208082526028908201527f536f75726365206d75737420626520746865206f7261636c65206f6620746865604082015267081c995c5d595cdd60c21b606082015260800190565b600181811c9082168061128457607f821691505b602082108114156110be57634e487b7160e01b600052602260045260246000fd5b6020808252818101527f4f776e61626c653a2063616c6c6572206973206e6f7420746865206f776e6572604082015260600190565b6000602082840312156112ec57600080fd5b5051919050565b60006020828403121561130557600080fd5b815180151581146105d557600080fd5b60005b83811015611330578181015183820152602001611318565b83811115610d2e5750506000910152565b60008351611353818460208801611315565b835190830190611367818360208801611315565b01949350505050565b634e487b7160e01b600052601160045260246000fd5b60008083128015600160ff1b8501841216156113a4576113a4611370565b6001600160ff1b03840183138116156113bf576113bf611370565b50500390565b600081518084526113dd816020860160208601611315565b601f01601f19169290920160200192915050565b6001600160a01b0389811682526020820189905260408201889052861660608201526001600160e01b03198516608082015260a0810184905260c0810183905261010060e0820181905260009061144a838201856113c5565b9b9a5050505050505050505050565b60018060a01b038416815282602082015260606040820152600061090260608301846113c5565b6000821982111561149357611493611370565b500190565b6000826114b557634e487b7160e01b600052601260045260246000fd5b500690565b6000828210156114cc576114cc611370565b500390565b60008160001904831182151516156114eb576114eb611370565b500290565b600181815b8085111561152b57816000190482111561151157611511611370565b8085161561151e57918102915b93841c93908002906114f5565b509250929050565b60008261154257506001610932565b8161154f57506000610932565b8160018114611565576002811461156f5761158b565b6001915050610932565b60ff84111561158057611580611370565b50506001821b610932565b5060208310610133831016604e8410600b84101617156115ae575081810a610932565b6115b883836114f0565b80600019048211156115cc576115cc611370565b029392505050565b60006105d5838361153356fea2646970667358221220083290a945535a9435e7cda8e0810f3cbb1d46dd609a36b4a2deca545ef57e6464736f6c63430008090033",
  "immutableReferences": {},
  "source": "// SPDX-License-Identifier: UNLICENSED\r\npragma solidity ^0.8.6;\r\n\r\nimport \"../ChainlinkOracle.sol\";\r\n\r\n/// @title LinkPool oracle skeleton.\r\n/// @author Tamas An\r\n/// @notice Use this oracle for jobs offered by LinkPool on Kovan\r\n/// @dev Before using oracle. Test if LinkPool is up and running.\r\ncontract LinkPoolOracle is ChainlinkOracle {\r\n    address public _oracleAddress = 0x56dd6586DB0D08c6Ce7B2f2805af28616E082455;\r\n    address public _linkAddress = 0xa36085F69e2889c224210F603D836748e7dC0088;\r\n    uint256 public _fee = 0.1 * 10 ** 18; //0.1 LINK\r\n\r\n    constructor (\r\n        bytes32 _jobId,\r\n        int _decimals, \r\n        string memory _apiBaseURL, \r\n        string memory _apiPath, \r\n        bool _isSignedResult)\r\n        ChainlinkOracle (\r\n            _oracleAddress, \r\n            _jobId,\r\n            _linkAddress,\r\n            _fee,\r\n            _decimals,\r\n            _apiBaseURL,\r\n            _apiPath,\r\n            _isSignedResult\r\n        ) {\r\n    }\r\n}",
  "sourcePath": "C:\\Users\\Tomi\\OneDrive - The University of Chicago\\Documents\\Securrency\\ForwardExchange\\contracts\\oracles\\link-pool-oracles\\LinkPoolOracle.sol",
  "compiler": {
    "name": "solc",
    "version": "0.8.9+commit.e5eed63a.Emscripten.clang"
  },
  "schemaVersion": "3.4.3",
  "updatedAt": "2021-09-30T22:29:53.820Z",
  "devdoc": {
    "author": "Tamas An",
    "details": "Before using oracle. Test if LinkPool is up and running.",
    "kind": "dev",
    "methods": {
      "fulfillSigned(bytes32,int256)": {
        "details": "It may take up to 3-4 minutes for the job to be fulffilled.",
        "params": {
          "_requestId": "ID of the request.",
          "_result": "Result of GET request."
        }
      },
      "fulfillUnsigned(bytes32,uint256)": {
        "details": "It may take up to 3-4 minutes for the job to be fulffilled.",
        "params": {
          "_requestId": "ID of the request.",
          "_result": "Result of GET request."
        }
      },
      "owner()": {
        "details": "Returns the address of the current owner."
      },
      "renounceOwnership()": {
        "details": "Leaves the contract without owner. It will not be possible to call `onlyOwner` functions anymore. Can only be called by the current owner. NOTE: Renouncing ownership will leave the contract without an owner, thereby removing any functionality that is only available to the owner."
      },
      "requestIndexPrice(string)": {
        "details": "For underlying price oracle apiURLParameters is empty string.",
        "params": {
          "apiURLParameters": "Parameters added to API URL."
        },
        "returns": {
          "requestId": "The ID of the request"
        }
      },
      "transferOwnership(address)": {
        "details": "Transfers ownership of the contract to a new account (`newOwner`). Can only be called by the current owner."
      },
      "withdrawLink()": {
        "details": "Withdraw LINK after the forward contract is settled."
      }
    },
    "title": "LinkPool oracle skeleton.",
    "version": 1
  },
  "userdoc": {
    "kind": "user",
    "methods": {
      "fulfillSigned(bytes32,int256)": {
        "notice": "Receive response in the form of int256."
      },
      "fulfillUnsigned(bytes32,uint256)": {
        "notice": "Receive response in the form of uint256."
      },
      "requestIndexPrice(string)": {
        "notice": "Create Chainlink request with uint256 job."
      },
      "withdrawLink()": {
        "notice": "Allows the owner to withdraw the LINK in this contract."
      }
    },
    "notice": "Use this oracle for jobs offered by LinkPool on Kovan",
    "version": 1
  }
}