{
  "contractName": "PersonalWalletFactory",
  "abi": [
    {
      "anonymous": false,
      "inputs": [
        {
          "indexed": false,
          "internalType": "address",
          "name": "walletOwner",
          "type": "address"
        },
        {
          "indexed": false,
          "internalType": "address",
          "name": "newPersonalWalletAddress",
          "type": "address"
        }
      ],
      "name": "WalletCreated",
      "type": "event"
    },
    {
      "inputs": [
        {
          "internalType": "uint256",
          "name": "",
          "type": "uint256"
        }
      ],
      "name": "personalWallets",
      "outputs": [
        {
          "internalType": "address",
          "name": "",
          "type": "address"
        }
      ],
      "stateMutability": "view",
      "type": "function"
    },
    {
      "inputs": [
        {
          "internalType": "address",
          "name": "walletOwner",
          "type": "address"
        },
        {
          "internalType": "string",
          "name": "walletName",
          "type": "string"
        }
      ],
      "name": "createPersonalWallet",
      "outputs": [],
      "stateMutability": "nonpayable",
      "type": "function"
    }
  ],
  "bytecode": "0x608060405234801561001057600080fd5b50610eba806100206000396000f3fe608060405234801561001057600080fd5b50600436106100365760003560e01c8063457ae12a1461003b57806378aee7741461006a575b600080fd5b61004e6100493660046101bd565b61007f565b6040516001600160a01b03909116815260200160405180910390f35b61007d6100783660046101ec565b6100a9565b005b6000818154811061008f57600080fd5b6000918252602090912001546001600160a01b0316905081565b80516100e85760405162461bcd60e51b815260206004820152600a6024820152696e616d6520656d70747960b01b604482015260640160405180910390fd5b600081836040516100f8906101b0565b6101039291906102bc565b604051809103906000f08015801561011f573d6000803e3d6000fd5b50600080546001810182559080527f290decd9548b62a8d60345a988386fc84ba6bc95484008f6362f93160ef3e5630180546001600160a01b0319166001600160a01b0383811691821790925560408051928716835260208301919091529192507f5b03bfed1c14a02bdeceb5fa582eb1a5765fc0bc64ca0e6af4c20afc9487f081910160405180910390a1505050565b610b628061032383390190565b6000602082840312156101cf57600080fd5b5035919050565b634e487b7160e01b600052604160045260246000fd5b600080604083850312156101ff57600080fd5b82356001600160a01b038116811461021657600080fd5b9150602083013567ffffffffffffffff8082111561023357600080fd5b818501915085601f83011261024757600080fd5b813581811115610259576102596101d6565b604051601f8201601f19908116603f01168101908382118183101715610281576102816101d6565b8160405282815288602084870101111561029a57600080fd5b8260208601602083013760006020848301015280955050505050509250929050565b604081526000835180604084015260005b818110156102ea57602081870181015160608684010152016102cd565b818111156102fc576000606083860101525b506001600160a01b0393909316602083015250601f91909101601f19160160600191905056fe60806040523480156200001157600080fd5b5060405162000b6238038062000b6283398101604081905262000034916200027f565b6000805460ff19169055620000493362000072565b81516200005e906003906020850190620001a6565b506200006a81620000cb565b5050620003ad565b600080546001600160a01b03838116610100818102610100600160a81b0319851617855560405193049190911692909183917f8be0079c531659141344cd1fd0a4f28419497f9722a3daafe3b4186f6b6457e091a35050565b6000546001600160a01b03610100909104163314620001315760405162461bcd60e51b815260206004820181905260248201527f4f776e61626c653a2063616c6c6572206973206e6f7420746865206f776e657260448201526064015b60405180910390fd5b6001600160a01b038116620001985760405162461bcd60e51b815260206004820152602660248201527f4f776e61626c653a206e6577206f776e657220697320746865207a65726f206160448201526564647265737360d01b606482015260840162000128565b620001a38162000072565b50565b828054620001b49062000370565b90600052602060002090601f016020900481019282620001d8576000855562000223565b82601f10620001f357805160ff191683800117855562000223565b8280016001018555821562000223579182015b828111156200022357825182559160200191906001019062000206565b506200023192915062000235565b5090565b5b8082111562000231576000815560010162000236565b634e487b7160e01b600052604160045260246000fd5b80516001600160a01b03811681146200027a57600080fd5b919050565b600080604083850312156200029357600080fd5b82516001600160401b0380821115620002ab57600080fd5b818501915085601f830112620002c057600080fd5b815181811115620002d557620002d56200024c565b604051601f8201601f19908116603f011681019083821181831017156200030057620003006200024c565b816040528281526020935088848487010111156200031d57600080fd5b600091505b8282101562000341578482018401518183018501529083019062000322565b82821115620003535760008484830101525b95506200036591505085820162000262565b925050509250929050565b600181811c908216806200038557607f821691505b60208210811415620003a757634e487b7160e01b600052602260045260246000fd5b50919050565b6107a580620003bd6000396000f3fe608060405234801561001057600080fd5b506004361061009e5760003560e01c8063715018a611610066578063715018a61461013b5780638da5cb5b14610143578063a98161ba14610159578063c08d1f501461017c578063f2fde38b1461018f57600080fd5b806306fdde03146100a35780634f64b2be146100c15780635c975abb146100ec57806364db444a146101035780636e15181e14610118575b600080fd5b6100ab6101a2565b6040516100b891906105dc565b60405180910390f35b6100d46100cf366004610631565b610230565b6040516001600160a01b0390911681526020016100b8565b60005460ff165b60405190151581526020016100b8565b610116610111366004610666565b61025a565b005b6100f3610126366004610666565b60026020526000908152604090205460ff1681565b6101166102de565b60005461010090046001600160a01b03166100d4565b6100f3610167366004610666565b60046020526000908152604090205460ff1681565b61011661018a366004610688565b610323565b61011661019d366004610666565b6104e9565b600380546101af906106c4565b80601f01602080910402602001604051908101604052809291908181526020018280546101db906106c4565b80156102285780601f106101fd57610100808354040283529160200191610228565b820191906000526020600020905b81548152906001019060200180831161020b57829003601f168201915b505050505081565b6001818154811061024057600080fd5b6000918252602090912001546001600160a01b0316905081565b6001600160a01b03811660009081526002602052604090205460ff166102db576001805480820182557fb10e2d527612073b26eecdfd717e6a320cf44b4afac2b0732d9fcbe2b7fa0cf60180546001600160a01b0319166001600160a01b0384169081179091556000908152600260205260409020805460ff191690911790555b50565b6000546001600160a01b036101009091041633146103175760405162461bcd60e51b815260040161030e906106ff565b60405180910390fd5b6103216000610583565b565b6000546001600160a01b036101009091041633146103535760405162461bcd60e51b815260040161030e906106ff565b6001600160a01b03821660009081526002602052604090205460ff166103ac5760405162461bcd60e51b815260206004820152600e60248201526d31b7b636103a37b5b2b71032b93960911b604482015260640161030e565b6040516370a0823160e01b815230600482015281906001600160a01b038416906370a082319060240160206040518083038186803b1580156103ed57600080fd5b505afa158015610401573d6000803e3d6000fd5b505050506040513d601f19601f820116820180604052508101906104259190610734565b10156104615760405162461bcd60e51b815260206004820152600b60248201526a3130b630b731b29032b93960a91b604482015260640161030e565b60405163095ea7b360e01b81526001600160a01b0384811660048301526024820183905283169063095ea7b390604401602060405180830381600087803b1580156104ab57600080fd5b505af11580156104bf573d6000803e3d6000fd5b505050506040513d601f19601f820116820180604052508101906104e3919061074d565b50505050565b6000546001600160a01b036101009091041633146105195760405162461bcd60e51b815260040161030e906106ff565b6001600160a01b03811661057e5760405162461bcd60e51b815260206004820152602660248201527f4f776e61626c653a206e6577206f776e657220697320746865207a65726f206160448201526564647265737360d01b606482015260840161030e565b6102db815b600080546001600160a01b03838116610100818102610100600160a81b0319851617855560405193049190911692909183917f8be0079c531659141344cd1fd0a4f28419497f9722a3daafe3b4186f6b6457e091a35050565b600060208083528351808285015260005b81811015610609578581018301518582016040015282016105ed565b8181111561061b576000604083870101525b50601f01601f1916929092016040019392505050565b60006020828403121561064357600080fd5b5035919050565b80356001600160a01b038116811461066157600080fd5b919050565b60006020828403121561067857600080fd5b6106818261064a565b9392505050565b60008060006060848603121561069d57600080fd5b6106a68461064a565b92506106b46020850161064a565b9150604084013590509250925092565b600181811c908216806106d857607f821691505b602082108114156106f957634e487b7160e01b600052602260045260246000fd5b50919050565b6020808252818101527f4f776e61626c653a2063616c6c6572206973206e6f7420746865206f776e6572604082015260600190565b60006020828403121561074657600080fd5b5051919050565b60006020828403121561075f57600080fd5b8151801515811461068157600080fdfea2646970667358221220565160adca75b5a71efc3daa62e5b0e845f15d26e5a21fdab165a05921d9ed4f64736f6c63430008090033a264697066735822122023ba0082bd6e966771346df2bbdc5e43f75f0099dbaea26b20adeb5cd4a7bd5464736f6c63430008090033",
  "immutableReferences": {},
  "source": "// SPDX-License-Identifier: UNLICENSED\r\npragma solidity ^0.8.6;\r\n\r\nimport \"./PersonalWallet.sol\";\r\nimport \"./interfaces/IPersonalWalletFactory.sol\";\r\n\r\n/// @title Personal wallet factory\r\n/// @author Tamas An\r\n/// @notice Factory that creates and holds addresses of personal wallets.\r\ncontract PersonalWalletFactory is IPersonalWalletFactory{\r\n    address[] public personalWallets;\r\n\r\n    /// @notice Creates Personal Wallet\r\n    /// @param walletOwner Address of the owner of the wallet\r\n    /// @param walletName Name of the wallet\r\n    function createPersonalWallet(address walletOwner, string memory walletName) \r\n        external \r\n        override\r\n    {\r\n        require(bytes(walletName).length != 0, \"name empty\");\r\n        address personalWallet_ = address(new PersonalWallet(walletName,walletOwner));\r\n        personalWallets.push(personalWallet_);\r\n        emit WalletCreated(walletOwner, personalWallet_);\r\n    }\r\n}",
  "sourcePath": "C:\\Users\\Tomi\\OneDrive - The University of Chicago\\Documents\\Securrency\\ForwardExchange\\contracts\\personal-wallet\\PersonalWalletFactory.sol",
  "compiler": {
    "name": "solc",
    "version": "0.8.9+commit.e5eed63a.Emscripten.clang"
  },
  "schemaVersion": "3.4.3",
  "updatedAt": "2021-09-30T22:29:53.878Z",
  "devdoc": {
    "author": "Tamas An",
    "kind": "dev",
    "methods": {
      "createPersonalWallet(address,string)": {
        "params": {
          "walletName": "Name of the wallet",
          "walletOwner": "Address of the owner of the wallet"
        }
      }
    },
    "title": "Personal wallet factory",
    "version": 1
  },
  "userdoc": {
    "kind": "user",
    "methods": {
      "createPersonalWallet(address,string)": {
        "notice": "Creates Personal Wallet"
      }
    },
    "notice": "Factory that creates and holds addresses of personal wallets.",
    "version": 1
  }
}