{
  "contractName": "USDRFROracle",
  "abi": [
    {
      "inputs": [],
      "stateMutability": "nonpayable",
      "type": "constructor"
    },
    {
      "anonymous": false,
      "inputs": [
        {
          "indexed": true,
          "internalType": "bytes32",
          "name": "id",
          "type": "bytes32"
        }
      ],
      "name": "ChainlinkCancelled",
      "type": "event"
    },
    {
      "anonymous": false,
      "inputs": [
        {
          "indexed": true,
          "internalType": "bytes32",
          "name": "id",
          "type": "bytes32"
        }
      ],
      "name": "ChainlinkFulfilled",
      "type": "event"
    },
    {
      "anonymous": false,
      "inputs": [
        {
          "indexed": true,
          "internalType": "bytes32",
          "name": "id",
          "type": "bytes32"
        }
      ],
      "name": "ChainlinkRequested",
      "type": "event"
    },
    {
      "anonymous": false,
      "inputs": [
        {
          "indexed": false,
          "internalType": "address",
          "name": "withdrawer",
          "type": "address"
        },
        {
          "indexed": false,
          "internalType": "uint256",
          "name": "amount",
          "type": "uint256"
        }
      ],
      "name": "LinkWithdrawn",
      "type": "event"
    },
    {
      "anonymous": false,
      "inputs": [
        {
          "indexed": true,
          "internalType": "address",
          "name": "previousOwner",
          "type": "address"
        },
        {
          "indexed": true,
          "internalType": "address",
          "name": "newOwner",
          "type": "address"
        }
      ],
      "name": "OwnershipTransferred",
      "type": "event"
    },
    {
      "anonymous": false,
      "inputs": [
        {
          "indexed": false,
          "internalType": "address",
          "name": "sender",
          "type": "address"
        },
        {
          "indexed": false,
          "internalType": "uint256",
          "name": "amount",
          "type": "uint256"
        }
      ],
      "name": "Received",
      "type": "event"
    },
    {
      "stateMutability": "payable",
      "type": "fallback"
    },
    {
      "inputs": [],
      "name": "__jobId",
      "outputs": [
        {
          "internalType": "bytes32",
          "name": "",
          "type": "bytes32"
        }
      ],
      "stateMutability": "view",
      "type": "function"
    },
    {
      "inputs": [],
      "name": "_apiBaseURL_",
      "outputs": [
        {
          "internalType": "string",
          "name": "",
          "type": "string"
        }
      ],
      "stateMutability": "view",
      "type": "function"
    },
    {
      "inputs": [],
      "name": "_apiPathBase_",
      "outputs": [
        {
          "internalType": "string",
          "name": "",
          "type": "string"
        }
      ],
      "stateMutability": "view",
      "type": "function"
    },
    {
      "inputs": [],
      "name": "_decimals_",
      "outputs": [
        {
          "internalType": "int256",
          "name": "",
          "type": "int256"
        }
      ],
      "stateMutability": "view",
      "type": "function"
    },
    {
      "inputs": [],
      "name": "_fee",
      "outputs": [
        {
          "internalType": "uint256",
          "name": "",
          "type": "uint256"
        }
      ],
      "stateMutability": "view",
      "type": "function"
    },
    {
      "inputs": [],
      "name": "_linkAddress",
      "outputs": [
        {
          "internalType": "address",
          "name": "",
          "type": "address"
        }
      ],
      "stateMutability": "view",
      "type": "function"
    },
    {
      "inputs": [],
      "name": "_oracleAddress",
      "outputs": [
        {
          "internalType": "address",
          "name": "",
          "type": "address"
        }
      ],
      "stateMutability": "view",
      "type": "function"
    },
    {
      "inputs": [],
      "name": "decimals",
      "outputs": [
        {
          "internalType": "int256",
          "name": "",
          "type": "int256"
        }
      ],
      "stateMutability": "view",
      "type": "function"
    },
    {
      "inputs": [],
      "name": "fee",
      "outputs": [
        {
          "internalType": "uint256",
          "name": "",
          "type": "uint256"
        }
      ],
      "stateMutability": "view",
      "type": "function"
    },
    {
      "inputs": [
        {
          "internalType": "bytes32",
          "name": "_requestId",
          "type": "bytes32"
        },
        {
          "internalType": "int256",
          "name": "_result",
          "type": "int256"
        }
      ],
      "name": "fulfillSigned",
      "outputs": [],
      "stateMutability": "nonpayable",
      "type": "function"
    },
    {
      "inputs": [
        {
          "internalType": "bytes32",
          "name": "_requestId",
          "type": "bytes32"
        },
        {
          "internalType": "uint256",
          "name": "_result",
          "type": "uint256"
        }
      ],
      "name": "fulfillUnsigned",
      "outputs": [],
      "stateMutability": "nonpayable",
      "type": "function"
    },
    {
      "inputs": [],
      "name": "isSignedResult",
      "outputs": [
        {
          "internalType": "bool",
          "name": "",
          "type": "bool"
        }
      ],
      "stateMutability": "view",
      "type": "function"
    },
    {
      "inputs": [],
      "name": "jobId",
      "outputs": [
        {
          "internalType": "bytes32",
          "name": "",
          "type": "bytes32"
        }
      ],
      "stateMutability": "view",
      "type": "function"
    },
    {
      "inputs": [],
      "name": "oracleAddress",
      "outputs": [
        {
          "internalType": "address",
          "name": "",
          "type": "address"
        }
      ],
      "stateMutability": "view",
      "type": "function"
    },
    {
      "inputs": [],
      "name": "owner",
      "outputs": [
        {
          "internalType": "address",
          "name": "",
          "type": "address"
        }
      ],
      "stateMutability": "view",
      "type": "function"
    },
    {
      "inputs": [],
      "name": "renounceOwnership",
      "outputs": [],
      "stateMutability": "nonpayable",
      "type": "function"
    },
    {
      "inputs": [
        {
          "internalType": "string",
          "name": "apiURLParameters",
          "type": "string"
        }
      ],
      "name": "requestIndexPrice",
      "outputs": [
        {
          "internalType": "bytes32",
          "name": "requestId",
          "type": "bytes32"
        }
      ],
      "stateMutability": "nonpayable",
      "type": "function"
    },
    {
      "inputs": [],
      "name": "signedResult",
      "outputs": [
        {
          "internalType": "int256",
          "name": "",
          "type": "int256"
        }
      ],
      "stateMutability": "view",
      "type": "function"
    },
    {
      "inputs": [
        {
          "internalType": "address",
          "name": "newOwner",
          "type": "address"
        }
      ],
      "name": "transferOwnership",
      "outputs": [],
      "stateMutability": "nonpayable",
      "type": "function"
    },
    {
      "inputs": [],
      "name": "unsignedResult",
      "outputs": [
        {
          "internalType": "uint256",
          "name": "",
          "type": "uint256"
        }
      ],
      "stateMutability": "view",
      "type": "function"
    },
    {
      "inputs": [],
      "name": "withdrawLink",
      "outputs": [],
      "stateMutability": "nonpayable",
      "type": "function"
    },
    {
      "stateMutability": "payable",
      "type": "receive"
    },
    {
      "inputs": [
        {
          "internalType": "int256",
          "name": "contractDurationInSeconds",
          "type": "int256"
        }
      ],
      "name": "updateAPIPath",
      "outputs": [],
      "stateMutability": "nonpayable",
      "type": "function"
    }
  ],
  "bytecode": "0x6001600455600f80546001600160a01b03199081167356dd6586db0d08c6ce7b2f2805af28616e0824551782556010805490911673a36085f69e2889c224210f603d836748e7dc008817905567016345785d8a00006011557f3236343966633463613833633430313662666432643135373635353932626565601255606460135560c060405260808190526e3230ba30b9b2ba173230ba3097181760891b60a0908152620000b19160149190620002e7565b50348015620000bf57600080fd5b506013546040518060800160405280604f815260200162001f77604f9139604080516020810190915260008152601254600f546010546011548692869286926001926001600160a01b03908116928892911690878787876200012133620001e4565b6001600160a01b03861662000140576200013a62000236565b6200015c565b600280546001600160a01b0319166001600160a01b0388161790555b600980546001600160a01b0319166001600160a01b038a16179055600a879055600e859055600d84905582516200019b90600c906020860190620002e7565b508151620001b190600b906020850190620002e7565b5060068054911515600160a01b0260ff60a01b1990921691909117905550620003fc9d5050505050505050505050505050565b600680546001600160a01b038381166001600160a01b0319831681179093556040519116919082907f8be0079c531659141344cd1fd0a4f28419497f9722a3daafe3b4186f6b6457e090600090a35050565b620002e573c89bd4e1632d3a43cb03aaad5262cbe4038bc5716001600160a01b03166338cc48316040518163ffffffff1660e01b815260040160206040518083038186803b1580156200028857600080fd5b505afa1580156200029d573d6000803e3d6000fd5b505050506040513d601f19601f82011682018060405250810190620002c391906200038d565b600280546001600160a01b0319166001600160a01b0392909216919091179055565b565b828054620002f590620003bf565b90600052602060002090601f01602090048101928262000319576000855562000364565b82601f106200033457805160ff191683800117855562000364565b8280016001018555821562000364579182015b828111156200036457825182559160200191906001019062000347565b506200037292915062000376565b5090565b5b8082111562000372576000815560010162000377565b600060208284031215620003a057600080fd5b81516001600160a01b0381168114620003b857600080fd5b9392505050565b600181811c90821680620003d457607f821691505b60208210811415620003f657634e487b7160e01b600052602260045260246000fd5b50919050565b611b6b806200040c6000396000f3fe60806040526004361061012d5760003560e01c8063918c00b9116100a5578063c0a5977f1161006c578063c0a5977f1461036b578063c2939d9714610381578063c5b37c2214610397578063d233da08146103ad578063ddca3f43146103c3578063f2fde38b146103d957005b8063918c00b9146102cf578063a89ae4ba14610300578063afb0a7d714610320578063c043a25414610340578063c068e8b11461035657005b806369723be7116100f457806369723be7146102275780636fb7cb5714610247578063715018a6146102675780637e0b66d01461027c5780638da5cb5b1461029c5780638dc654a2146102ba57005b8063185defc61461016e5780631d5cd009146101ab578063313ce567146101cd5780634665e65a146101f157806351744bca1461020757005b3661016c57604080513381523460208201527f88a5966d370b9919b20f3e2c13ff65706f196a4e32cc2c12bf57088f88525874910160405180910390a1005b005b34801561017a57600080fd5b5060105461018e906001600160a01b031681565b6040516001600160a01b0390911681526020015b60405180910390f35b3480156101b757600080fd5b506101c06103f9565b6040516101a291906115d6565b3480156101d957600080fd5b506101e3600d5481565b6040519081526020016101a2565b3480156101fd57600080fd5b506101e360125481565b34801561021357600080fd5b5061016c6102223660046115e9565b610415565b34801561023357600080fd5b506101e3610242366004611621565b6104a0565b34801561025357600080fd5b50600f5461018e906001600160a01b031681565b34801561027357600080fd5b5061016c6106b2565b34801561028857600080fd5b5061016c6102973660046115e9565b6106e8565b3480156102a857600080fd5b506006546001600160a01b031661018e565b3480156102c657600080fd5b5061016c61076a565b3480156102db57600080fd5b506006546102f090600160a01b900460ff1681565b60405190151581526020016101a2565b34801561030c57600080fd5b5060095461018e906001600160a01b031681565b34801561032c57600080fd5b5061016c61033b3660046116d2565b610921565b34801561034c57600080fd5b506101e360085481565b34801561036257600080fd5b506101c06109d0565b34801561037757600080fd5b506101e360075481565b34801561038d57600080fd5b506101e3600a5481565b3480156103a357600080fd5b506101e360115481565b3480156103b957600080fd5b506101e360135481565b3480156103cf57600080fd5b506101e3600e5481565b3480156103e557600080fd5b5061016c6103f43660046116eb565b610a5e565b6040518060800160405280604f8152602001611ae7604f913981565b60008281526005602052604090205482906001600160a01b031633146104565760405162461bcd60e51b815260040161044d90611714565b60405180910390fd5b60008181526005602052604080822080546001600160a01b03191690555182917f7cc135e0cebb02c3480ae5d74d377283180a2601f8f644edf7987b009316c63a91a25060085550565b60006104aa6114aa565b600654600160a01b900460ff16156104d857600a546104d190306328ba25e560e11b610af6565b90506104f0565b600a546104ed90306307e0b66d60e41b610af6565b90505b6105ab6040518060400160405280600381526020016219d95d60ea1b8152506105a3600c805461051f9061175c565b80601f016020809104026020016040519081016040528092919081815260200182805461054b9061175c565b80156105985780601f1061056d57610100808354040283529160200191610598565b820191906000526020600020905b81548152906001019060200180831161057b57829003601f168201915b505050505086610b1b565b839190610b48565b610666604051806040016040528060048152602001630e0c2e8d60e31b815250600b80546105d89061175c565b80601f01602080910402602001604051908101604052809291908181526020018280546106049061175c565b80156106515780601f1061062657610100808354040283529160200191610651565b820191906000526020600020905b81548152906001019060200180831161063457829003601f168201915b505050505083610b489092919063ffffffff16565b60408051808201909152600581526474696d657360d81b6020820152600d54610690918391610b6b565b600954600e546106ab916001600160a01b0316908390610b89565b9392505050565b6006546001600160a01b031633146106dc5760405162461bcd60e51b815260040161044d90611791565b6106e66000610ba8565b565b60008281526005602052604090205482906001600160a01b031633146107205760405162461bcd60e51b815260040161044d90611714565b60008181526005602052604080822080546001600160a01b03191690555182917f7cc135e0cebb02c3480ae5d74d377283180a2601f8f644edf7987b009316c63a91a25060075550565b6006546001600160a01b031633146107945760405162461bcd60e51b815260040161044d90611791565b60006107a86002546001600160a01b031690565b6040516370a0823160e01b81523060048201529091506000906001600160a01b038316906370a082319060240160206040518083038186803b1580156107ed57600080fd5b505afa158015610801573d6000803e3d6000fd5b505050506040513d601f19601f8201168201806040525081019061082591906117c6565b60405163a9059cbb60e01b8152336004820152602481018290529091506001600160a01b0383169063a9059cbb90604401602060405180830381600087803b15801561087057600080fd5b505af1158015610884573d6000803e3d6000fd5b505050506040513d601f19601f820116820180604052508101906108a891906117df565b6108e45760405162461bcd60e51b815260206004820152600d60248201526c2bb4ba34323930bb9032b9391760991b604482015260640161044d565b60408051338152602081018390527fcb1436249a1dd8cf93362c28d79a4e20dc54398b6c49e30316e8396e72a584b0910160405180910390a15050565b6109cd6109c8601480546109349061175c565b80601f01602080910402602001604051908101604052809291908181526020018280546109609061175c565b80156109ad5780601f10610982576101008083540402835291602001916109ad565b820191906000526020600020905b81548152906001019060200180831161099057829003601f168201915b50505050506109c36109be85610bfa565b610c7d565b610b1b565b610da6565b50565b601480546109dd9061175c565b80601f0160208091040260200160405190810160405280929190818152602001828054610a099061175c565b8015610a565780601f10610a2b57610100808354040283529160200191610a56565b820191906000526020600020905b815481529060010190602001808311610a3957829003601f168201915b505050505081565b6006546001600160a01b03163314610a885760405162461bcd60e51b815260040161044d90611791565b6001600160a01b038116610aed5760405162461bcd60e51b815260206004820152602660248201527f4f776e61626c653a206e6577206f776e657220697320746865207a65726f206160448201526564647265737360d01b606482015260840161044d565b6109cd81610ba8565b610afe6114aa565b610b066114aa565b610b1281868686610dbd565b95945050505050565b60608282604051602001610b30929190611801565b60405160208183030381529060405290505b92915050565b6080830151610b579083610dfa565b6080830151610b669082610dfa565b505050565b6080830151610b7a9083610dfa565b6080830151610b669082610e11565b6000610ba084848460016320214ca360e11b610e71565b949350505050565b600680546001600160a01b038381166001600160a01b0319831681179093556040519116919082907f8be0079c531659141344cd1fd0a4f28419497f9722a3daafe3b4186f6b6457e090600090a35050565b600062375f008213610c0e57506001919050565b8162375f00128015610c235750625c49008213155b15610c3057506002919050565b81625c4900128015610c45575062af57808213155b15610c5257506003919050565b8162af5780128015610c685750630167e9808213155b15610c7557506004919050565b506005919050565b606081610ca15750506040805180820190915260018152600360fc1b602082015290565b8160005b8115610ccb5780610cb581611846565b9150610cc49050600a83611877565b9150610ca5565b60008167ffffffffffffffff811115610ce657610ce661160b565b6040519080825280601f01601f191660200182016040528015610d10576020820181803683370190505b509050815b8515610d9d57610d2660018261188b565b90506000610d35600a88611877565b610d4090600a6118a2565b610d4a908861188b565b610d559060306118c1565b905060008160f81b905080848481518110610d7257610d726118e6565b60200101906001600160f81b031916908160001a905350610d94600a89611877565b97505050610d15565b50949350505050565b8051610db990600b9060208401906114e5565b5050565b610dc56114aa565b610dd5856080015161010061107d565b50509183526001600160a01b031660208301526001600160e01b031916604082015290565b610e0782600383516110e2565b610b6682826111b6565b67ffffffffffffffff19811215610e2c57610db982826111dd565b67ffffffffffffffff811315610e4657610db9828261121f565b60008112610e5a57610db9826000836110e2565b610db9826001610e6c846000196118fc565b6110e2565b6004546040516bffffffffffffffffffffffff193060601b166020820152603481019190915260009060540160408051808303601f19018152918152815160209283012060045460608901526000818152600590935281832080546001600160a01b0319166001600160a01b038b16179055905190925082917fb5e6e01e79f91267dc17b4e6314d5d4d03593d2ceee0fbb452b750bd70ea5af991a2600082600080886000015189602001518a604001518b606001518a8d6080015160000151604051602401610f4898979695949392919061193b565b60408051601f198184030181529181526020820180516001600160e01b03166001600160e01b0319909416939093179092526002549151630200057560e51b81529092506001600160a01b0390911690634000aea090610fb0908a90899086906004016119a3565b602060405180830381600087803b158015610fca57600080fd5b505af1158015610fde573d6000803e3d6000fd5b505050506040513d601f19601f8201168201806040525081019061100291906117df565b61105a5760405162461bcd60e51b815260206004820152602360248201527f756e61626c6520746f207472616e73666572416e6443616c6c20746f206f7261604482015262636c6560e81b606482015260840161044d565b60016004600082825461106d91906119ca565b9091555091979650505050505050565b60408051808201909152606081526000602082015261109d6020836119e2565b156110c5576110ad6020836119e2565b6110b890602061188b565b6110c290836119ca565b91505b506020828101829052604080518085526000815290920101905290565b60178111611103576110fd8360e0600585901b168317611242565b50505050565b60ff811161112d57611120836018611fe0600586901b1617611242565b506110fd83826001611267565b61ffff81116111585761114b836019611fe0600586901b1617611242565b506110fd83826002611267565b63ffffffff81116111855761117883601a611fe0600586901b1617611242565b506110fd83826004611267565b67ffffffffffffffff8111610b66576111a983601b611fe0600586901b1617611242565b506110fd83826008611267565b6040805180820190915260608152600060208201526106ab8384600001515184855161128d565b6111e88260c3611242565b50610db9826111f9836000196118fc565b60405160200161120b91815260200190565b604051602081830303815290604052611392565b61122a8260c2611242565b50610db9828260405160200161120b91815260200190565b6040805180820190915260608152600060208201526106ab838460000151518461139f565b604080518082019091526060815260006020820152610ba08485600001515185856113fb565b60408051808201909152606081526000602082015282518211156112b057600080fd5b60208501516112bf83866119ca565b11156112f2576112f2856112e2876020015187866112dd91906119ca565b61147c565b6112ed9060026118a2565b611493565b6000808651805187602083010193508088870111156113115787860182525b505050602084015b6020841061135157805182526113306020836119ca565b915061133d6020826119ca565b905061134a60208561188b565b9350611319565b6000600161136086602061188b565b61136c90610100611ada565b611376919061188b565b9151835183169219169190911790915250849050949350505050565b610e0782600283516110e2565b604080518082019091526060815260006020820152836020015183106113d4576113d484856020015160026112ed91906118a2565b8351805160208583010184815350808514156113f1576001810182525b5093949350505050565b604080518082019091526060815260006020820152602085015161141f85846119ca565b111561143357611433856112e286856119ca565b6000600161144384610100611ada565b61144d919061188b565b90508551838682010185831982511617815250805184870111156114715783860181525b509495945050505050565b60008183111561148d575081610b42565b50919050565b815161149f838361107d565b506110fd83826111b6565b6040805160a0810182526000808252602080830182905282840182905260608084018390528451808601909552845283015290608082015290565b8280546114f19061175c565b90600052602060002090601f0160209004810192826115135760008555611559565b82601f1061152c57805160ff1916838001178555611559565b82800160010185558215611559579182015b8281111561155957825182559160200191906001019061153e565b50611565929150611569565b5090565b5b80821115611565576000815560010161156a565b60005b83811015611599578181015183820152602001611581565b838111156110fd5750506000910152565b600081518084526115c281602086016020860161157e565b601f01601f19169290920160200192915050565b6020815260006106ab60208301846115aa565b600080604083850312156115fc57600080fd5b50508035926020909101359150565b634e487b7160e01b600052604160045260246000fd5b60006020828403121561163357600080fd5b813567ffffffffffffffff8082111561164b57600080fd5b818401915084601f83011261165f57600080fd5b8135818111156116715761167161160b565b604051601f8201601f19908116603f011681019083821181831017156116995761169961160b565b816040528281528760208487010111156116b257600080fd5b826020860160208301376000928101602001929092525095945050505050565b6000602082840312156116e457600080fd5b5035919050565b6000602082840312156116fd57600080fd5b81356001600160a01b03811681146106ab57600080fd5b60208082526028908201527f536f75726365206d75737420626520746865206f7261636c65206f6620746865604082015267081c995c5d595cdd60c21b606082015260800190565b600181811c9082168061177057607f821691505b6020821081141561148d57634e487b7160e01b600052602260045260246000fd5b6020808252818101527f4f776e61626c653a2063616c6c6572206973206e6f7420746865206f776e6572604082015260600190565b6000602082840312156117d857600080fd5b5051919050565b6000602082840312156117f157600080fd5b815180151581146106ab57600080fd5b6000835161181381846020880161157e565b83519083019061182781836020880161157e565b01949350505050565b634e487b7160e01b600052601160045260246000fd5b600060001982141561185a5761185a611830565b5060010190565b634e487b7160e01b600052601260045260246000fd5b60008261188657611886611861565b500490565b60008282101561189d5761189d611830565b500390565b60008160001904831182151516156118bc576118bc611830565b500290565b600060ff821660ff84168060ff038211156118de576118de611830565b019392505050565b634e487b7160e01b600052603260045260246000fd5b60008083128015600160ff1b85018412161561191a5761191a611830565b6001600160ff1b038401831381161561193557611935611830565b50500390565b6001600160a01b0389811682526020820189905260408201889052861660608201526001600160e01b03198516608082015260a0810184905260c0810183905261010060e08201819052600090611994838201856115aa565b9b9a5050505050505050505050565b60018060a01b0384168152826020820152606060408201526000610b1260608301846115aa565b600082198211156119dd576119dd611830565b500190565b6000826119f1576119f1611861565b500690565b600181815b80851115611a31578160001904821115611a1757611a17611830565b80851615611a2457918102915b93841c93908002906119fb565b509250929050565b600082611a4857506001610b42565b81611a5557506000610b42565b8160018114611a6b5760028114611a7557611a91565b6001915050610b42565b60ff841115611a8657611a86611830565b50506001821b610b42565b5060208310610133831016604e8410600b8410161715611ab4575081810a610b42565b611abe83836119f6565b8060001904821115611ad257611ad2611830565b029392505050565b60006106ab8383611a3956fe68747470733a2f2f7777772e7175616e646c2e636f6d2f6170692f76332f64617461736574732f555354524541535552592f42494c4c52415445532e6a736f6e3f6170695f6b65793d4d595f4b4559a2646970667358221220d9a16fcc56b95e3bef24a9ec7cdbdc1662741e273e88e36f3518b00b57bff5ec64736f6c6343000809003368747470733a2f2f7777772e7175616e646c2e636f6d2f6170692f76332f64617461736574732f555354524541535552592f42494c4c52415445532e6a736f6e3f6170695f6b65793d4d595f4b4559",
  "immutableReferences": {},
  "source": "// SPDX-License-Identifier: UNLICENSED\r\n\r\npragma solidity ^0.8.6;\r\n\r\nimport \"./LinkPoolIntOracle.sol\";\r\nimport \"../../utils/StringManipLibrary.sol\";\r\n\r\n/* Using https://www.quandl.com/data/USTREASURY/BILLRATES-Treasury-Bill-Rates\r\n * Risk free rate is usually considered to be equal to interest paid on 3-month T-bill\r\n * Techincally the risk free rate returned should also depend on the forward contract's \r\n * time period.\r\n * Calculating the risk free rate: \r\n * https://www.orionstartups.com/research/how-to-calculate-the-risk-free-rate\r\n * WATCH OUT: rate can be negative!!!\r\n * Put API key in .env file\r\n *\r\n * have start_date be an adjustable parameter:\r\n * depending on the current date and the expiration date the risk free rate can be \r\n * determined from T-bills with various maturity trenches.\r\n * We expect standard forward contracts to be up to twelve month. (anything beyond that would be a long-dated forward)\r\n * In the quandl API here is how to get various maturity tranches according data[n] array index:\r\n * \"column_names\":[\r\n\t\t\"Date\",\r\n\t\t\"4 Wk Bank Discount Rate\", (index 1)\r\n\t\t\"4 Wk Coupon Equiv\",\r\n\t\t\"8 Wk Bank Discount Rate\", (index 3)\r\n\t\t\"8 Wk Coupon Equiv\",\r\n\t\t\"13 Wk Bank Discount Rate\", (index 5)\r\n\t\t\"13 Wk Coupon Equiv\",\r\n\t\t\"26 Wk Bank Discount Rate\", (index 7)\r\n\t\t\"26 Wk Coupon Equiv\",\r\n\t\t\"52 Wk Bank Discount Rate\", (index 9)\r\n\t\t\"52 Wk Coupon Equiv\"],\r\n * - for 0-6weeks expiration we'll use 4Wk rate\r\n * - for 7-10weeks use 8Wk rate\r\n * - for 11-19weeks use 13Wk rate\r\n * - for 20-39weeks use 26Wk rate\r\n * - for 40+ weeks use 52Wk rate\r\n *\r\n * Watch out for decimals for risk free rates!! Data is given as percentage\r\n * Decimal convention for risk free rate: 1.23 => 1.23 % => scale by 1:100 => 123\r\n */\r\n\r\n/// @title LinkPool oracle for getting USD risk free rate from T-bill rates.\r\n/// @author Tamas An\r\n/// @notice Use this oracle for GET requests to API that returns rfr in given maturity tranch\r\n/// @dev Before using oracle. Test if LinkPool int job and quandl api are up and running\r\ncontract USDRFROracle is LinkPoolIntOracle {\r\n    int public _decimals_ = 10 ** 2;\r\n    string public constant _apiBaseURL_ = \r\n        \"https://www.quandl.com/api/v3/datasets/USTREASURY/BILLRATES.json?api_key=MY_KEY\";\r\n    string public  _apiPathBase_ = \"dataset.data.0.\";//0 index gives most recent value\r\n\r\n    constructor() \r\n        LinkPoolIntOracle(\r\n            _decimals_,\r\n            _apiBaseURL_,\r\n            \"\"\r\n        ) {\r\n    }\r\n\r\n    /// @notice Calculate maturity tranch index (4, 8, 13, 26, 52 weeks)\r\n    /// @dev Refer to documentation for details on maturity tranch index.\r\n    /// @param contractDurationInSeconds Parameters added to API URL.\r\n    /// @return requestId The ID of the request\r\n    function calcMaturityTranchIndex(int contractDurationInSeconds) internal pure returns(uint) {\r\n        if (contractDurationInSeconds <= 3628800) {// <=4 weeks\r\n            return 1;\r\n         } else if ((3628800 < contractDurationInSeconds) && \r\n                    (contractDurationInSeconds <= 6048000)) {\r\n            return 2;\r\n         } else if ((6048000 < contractDurationInSeconds) && \r\n                    (contractDurationInSeconds <= 11491200)) {\r\n            return 3;\r\n         } else if ((11491200 < contractDurationInSeconds) && \r\n                    (contractDurationInSeconds <= 23587200)) {\r\n            return 4;\r\n         } else {\r\n            return 5;\r\n         }\r\n    }\r\n\r\n    /// @notice Update API path with maturity tranch index.\r\n    /// @param contractDurationInSeconds Time until expiry in seconds.\r\n    function updateAPIPath(int contractDurationInSeconds)  external {\r\n         setAPIPath(StringManipLibrary.concatenateTwoStrings(\r\n            _apiPathBase_, \r\n            StringManipLibrary.uint2str(calcMaturityTranchIndex(contractDurationInSeconds))));\r\n    }\r\n}",
  "sourcePath": "C:\\Users\\Tomi\\OneDrive - The University of Chicago\\Documents\\Securrency\\ForwardExchange\\contracts\\oracles\\link-pool-oracles\\USDRFROracle.sol",
  "compiler": {
    "name": "solc",
    "version": "0.8.9+commit.e5eed63a.Emscripten.clang"
  },
  "schemaVersion": "3.4.3",
  "updatedAt": "2021-09-30T21:50:57.417Z",
  "devdoc": {
    "author": "Tamas An",
    "details": "Before using oracle. Test if LinkPool int job and quandl api are up and running",
    "kind": "dev",
    "methods": {
      "fulfillSigned(bytes32,int256)": {
        "details": "It may take up to 3-4 minutes for the job to be fulffilled.",
        "params": {
          "_requestId": "ID of the request.",
          "_result": "Result of GET request."
        }
      },
      "fulfillUnsigned(bytes32,uint256)": {
        "details": "It may take up to 3-4 minutes for the job to be fulffilled.",
        "params": {
          "_requestId": "ID of the request.",
          "_result": "Result of GET request."
        }
      },
      "owner()": {
        "details": "Returns the address of the current owner."
      },
      "renounceOwnership()": {
        "details": "Leaves the contract without owner. It will not be possible to call `onlyOwner` functions anymore. Can only be called by the current owner. NOTE: Renouncing ownership will leave the contract without an owner, thereby removing any functionality that is only available to the owner."
      },
      "requestIndexPrice(string)": {
        "details": "For underlying price oracle apiURLParameters is empty string.",
        "params": {
          "apiURLParameters": "Parameters added to API URL."
        },
        "returns": {
          "requestId": "The ID of the request"
        }
      },
      "transferOwnership(address)": {
        "details": "Transfers ownership of the contract to a new account (`newOwner`). Can only be called by the current owner."
      },
      "updateAPIPath(int256)": {
        "params": {
          "contractDurationInSeconds": "Time until expiry in seconds."
        }
      },
      "withdrawLink()": {
        "details": "Withdraw LINK after the forward contract is settled."
      }
    },
    "title": "LinkPool oracle for getting USD risk free rate from T-bill rates.",
    "version": 1
  },
  "userdoc": {
    "kind": "user",
    "methods": {
      "fulfillSigned(bytes32,int256)": {
        "notice": "Receive response in the form of int256."
      },
      "fulfillUnsigned(bytes32,uint256)": {
        "notice": "Receive response in the form of uint256."
      },
      "requestIndexPrice(string)": {
        "notice": "Create Chainlink request with uint256 job."
      },
      "updateAPIPath(int256)": {
        "notice": "Update API path with maturity tranch index."
      },
      "withdrawLink()": {
        "notice": "Allows the owner to withdraw the LINK in this contract."
      }
    },
    "notice": "Use this oracle for GET requests to API that returns rfr in given maturity tranch",
    "version": 1
  }
}